:020000040800F2
:10000000804500204501000801040008F9030008AC
:10001000FD0300086F0200087D08000800000000D2
:100020000000000000000000000000005701000870
:10003000B7020008000000005B0100083906000854
:100040005F0100085F0100085F0100085F01000810
:100050005F0100085F0100085F0100085F01000800
:100060005F0100085F0100085F0100085F010008F0
:100070005F0100085F0100085F0100085F010008E0
:100080005F0100085F0100085F0100085F010008D0
:100090005F0100085F0100085F0100085F010008C0
:1000A0005F0100085F0100085F0100085F010008B0
:1000B0005F0100085F0100085F0100085F010008A0
:1000C0005F0100085F0100085F0100085F01000890
:1000D0005F0100085F0100085F0100085F01000880
:1000E0005F0100085F0100085F0100085F01000870
:1000F0005F0100085F0100085F0100085F01000860
:100100005F0100085F0100085F0100085F0100084F
:100110005F0100085F0100085F0100085F0100083F
:100120005F0100085F0100085F0100085F0100082F
:10013000DFF80CD000F06AF800480047E519000825
:10014000804500200648804706480047FEE7FEE756
:10015000FEE7FEE7FEE7FEE7FEE7FEE7FEE7FEE777
:100160003D0600083101000840EA01039B0703D067
:1001700009E008C9121F08C0042AFAD203E011F8E6
:10018000013B00F8013B521EF9D2704710B5002226
:1001900000E0521C835C8C5CA34201D1002BF8D19F
:1001A000D8B2E1B2401A10BD2DE9F05F054600203B
:1001B00092469B4688460646814640241BE02846D8
:1001C00041464746224600F042F853465A46C01A76
:1001D000914110D311461846224600F029F82D1AF5
:1001E00067EB01084F4622460120002100F020F86D
:1001F00017EB00094E41201EA4F10104DFDC484644
:1002000031462A464346BDE8F09F0000064C074DA4
:1002100006E0E06840F0010394E8070098471034D6
:10022000AC42F6D3FFF788FFF02300081024000843
:10023000202A04DB203A00FA02F1002070479140A6
:10024000C2F1200320FA03F3194390407047202A9B
:1002500004DB203A21FA02F00021704721FA02F370
:10026000D040C2F12002914008431946704700BFB8
:10027000FEE730B502460B46002016E012F8015B9F
:1002800080EA052000210EE000F400442CB141F288
:10029000210484EA4004A0B203E04FF6FF7404EAAC
:1002A00040004C1CE1B20829EEDB1C1EA3F1010545
:1002B000ABB2E3D130BD70472DE9F04105460C46A5
:1002C0001CB128192949884202D90020BDE8F081D3
:1002D000EFB2002601F0C2F9C7F50060A04232D2A9
:1002E00040F2073001F0C6F8284601F045F906460D
:1002F00006B136E0C7F500600544C7F50060241A72
:10030000C4F3C7280BE040F2073001F0B3F82846E9
:1003100001F032F9064606B123E005F50065B8F1B3
:100320000000A8F1010101F0FF08ECD1C4F30A00BC
:1003300098B140F2073001F09DF8284601F01CF911
:10034000064656B10DE040F2073001F093F828461A
:1003500001F012F9064606B103E001F0F7F80120BA
:10036000B4E701F0F3F80020B0E70000FFFF070852
:100370002DE9F04704460D461646A0191D4988424E
:1003800002D90020BDE8F08704F0010008B1002088
:10039000F8E74FF0000801F061F9C14613E040F2C0
:1003A000073001F067F82988204601F073F880468D
:1003B000B8F1000F03D001F0C9F80020E2E7AD1C4E
:1003C000A41C09F10109B9EB560FE8D306F00100AE
:1003D00058B140F2073001F04DF8287840F47F47DB
:1003E0003946204601F056F8804601F0AFF801206A
:1003F000C8E70000FFFF070800BFFEE700BFFEE7F9
:10040000704770B505460C4605E0284601F046FEEB
:1004100008B1002070BD201EA4F10104F5D1401EDA
:10042000F8E72DE9F84F04460E469146002030606B
:1004300049466846FFF7E5FF18B14FF0FF30BDE8C9
:10044000F88F9DF80000182813D006DC012809D089
:10045000022809D0042820D109E041281AD06128B7
:100460001BD118E080251BE04FF4806518E00020C8
:10047000E5E749466846FFF7C4FF40B99DF800002C
:10048000182804D14FF0FF3030600020D7E74FF03C
:10049000FF30D4E700BF0120D1E74FF0FF30CEE7B7
:1004A00000BF9DF800002070012709E0E0194946CF
:1004B000FFF7A7FF10B14FF0FF30C0E7781C87B2FD
:1004C000681D8742F2DB6078A1780843FF2802D0DC
:1004D0004FF0FF30B3E72946E01CFFF7CAFE804625
:1004E000281D215CE81C205C41EA002AD04502D08E
:1004F0004FF0FF30A3E735600020A0E710B50446B9
:10050000012300220221072000F012FB21460848A7
:1005100001F0CDFE00BF0621054801F023FF0028B1
:10052000F9D0012300221946072000F001FB10BD7D
:100530000038014070B502460C460021002500231A
:100540001078302843D15078782802D05078582835
:100550003DD1907808B9002070BD022130E0505C98
:1005600010B9236001252DE0505C412802DB505C6E
:1005700046280BDD505C612802DB505C662805DDF7
:10058000505C302819DB505C392816DC505C302870
:1005900005DB505C392802DC505C30380AE0505CE6
:1005A000412805DB505C462802DC505C373801E00E
:1005B000505C573800EB031301E0002502E0491CB2
:1005C0000B29CCD300BF0B2934D3002532E0002106
:1005D0002AE0505C10B92360012527E0505C6B28AD
:1005E00002D0505C4B2804D119B19B022360012535
:1005F0001CE0505C6D2802D0505C4D2804D119B12C
:100600001B052360012511E0505C302809DB505C9C
:10061000392806DC505C303803EB830600EB4603D8
:1006200001E0002502E0491C0B29D2D300BF0B29B1
:1006300000D3002528468FE77047000008B51B4807
:10064000006840F47000194908601948006840F0DB
:100650000100174908600846406840F08000486083
:100660000020009002E00098401C009044F62061B9
:1006700000988842F7D30E48406820F003000C49E8
:100680004860084600680B490840094908604FF473
:100690001F0088600846006820F480200860002061
:1006A0004860C86201F098FD08BD000088ED00E0D8
:1006B00000100240FFFFF6FE08B50A2000F064FEBD
:1006C00029A000F03FFB374800F0DAF80A2000F0DC
:1006D0005BFE35A000F036FB3BA000F033FB3DA0F5
:1006E00000F030FB43A000F02DFB49A000F02AFBF6
:1006F0004EA000F027FB52A000F024FB00BF68468C
:1007000001F0CCFC0028FAD09DF80000E12802D1CD
:10071000FFF7D2FF27E09DF80000E22802D101F0A8
:10072000A1FA20E09DF80000E32803D149A000F0E1
:10073000DBFC18E09DF80000E42803D147A000F09E
:10074000D3FC10E09DF80000E52802D101F066F826
:1007500009E09DF80000E62802D101F0D1F802E09E
:1007600040A000F0EFFA08BD57616974696E672018
:10077000666F72207468652066696C6520746F20EE
:1007800062652073656E74202E2E2E20287072658F
:1007900073732027612720746F2061626F72742940
:1007A0000A0D00007C000020506C656173652043D9
:1007B000686F6F736520596F757220436F6D6D613F
:1007C0006E643A0D0A000000313A5570646174613C
:1007D0000D0A0000323A7175657279206C6173748C
:1007E0002061707020696E666F6D6174696F6E0D47
:1007F0000A000000333A7175657279206170705F8C
:100800003120696E666F6D6174696F6E0D0A00004C
:10081000343A7175657279206170705F3220696E4B
:10082000666F6D6174696F6E0D0A0000353A4A7526
:100830006D7020746F204150505F310D0A00000030
:10084000363A4A756D7020746F204150505F320DFA
:100850000A0000006170705F310000006170705F1D
:100860003200000041726520796F75206B69646405
:10087000696E67206D653F0D0A00000000BFFEE74E
:100880002DE9F04FADF2344D8046002002908246B3
:1008900005908146039000BF002700200490464643
:1008A00000BF4FF4801206A90BA8FFF7BAFD10B1E4
:1008B000012873D1E8E04FF000090698B0F1FF3F3E
:1008C00001D078B907E00620FFF718FE00200DF2EE
:1008D000344DBDE8F08F0620FFF710FE0120049094
:1008E0000590CFE0002F48D19DF82F0000283DD083
:1008F00000250DF12F0405E014F8012B28466D1C8E
:1009000077490A54207808B1FF2DF5DD00222846EA
:100910006D1C73490A540025641C05E014F8012B72
:1009200028466D1C07A90A542078202801D0102DD4
:10093000F4DB002228466D1C07A90A5402A907A867
:10094000FFF7F8FD0298B0F5E02F08DD1820FFF75B
:10095000D5FD1820FFF7D2FD4FF0FF30B7E7062096
:10096000FFF7CCFD4320FFF7C9FD87E00620FFF726
:10097000C5FD01200490059084E0012F6ED10DF19A
:100980002F005849086008460068006856498842A8
:1009900005D056A000F0D6F900BFFEE77DE0514833
:1009A000006880685549884224D1824650460299A1
:1009B000FFF782FCDFF848B10DF12F013046069AAF
:1009C000FFF7D2FB58460699FFF776FC31465846AA
:1009D000069AFFF7CDFC4FF400614A48FFF76CFC24
:1009E00049A006C8CDE90012062269464548FFF72E
:1009F000BFFC2FE03B48006880684549884224D10D
:100A0000824650460299FFF757FCDFF808B10DF116
:100A10002F013046069AFFF7A7FB58460699FFF7C5
:100A20004BFC31465846069AFFF7A2FC4FF4006192
:100A30003448FFF741FC38A006C8CDE90012062271
:100A400069463048FFF794FC04E035A000F07AF9DD
:100A500000BFFEE70620FFF751FD0FE00DF12F016B
:100A60003046069AFFF780FB31465046069AFFF75C
:100A70007FFC069882440620FFF740FD7F1C012082
:100A8000039000BF00BF1CE01820FFF737FD1820BF
:100A9000FFF734FD6FF0020019E70398002801DD2D
:100AA00009F10109B9F1050F07DD1820FFF726FD4F
:100AB0001820FFF723FD002009E74320FFF71EFD64
:100AC00000BF00BF049800283FF4EBAE00BF00BF9A
:100AD000059800283FF4E0AE00BF00BF0298F6E69C
:100AE0007C04002048000020242005276D616769F0
:100AF00063206572726F720D0A0000000000010829
:100B000000000708001007086170705F31000000E6
:100B100000000408000807086170705F32000000E0
:100B20006C6F6164206572726F720D0A00000000C4
:100B30002DE9F04106460C4615461F46082E7AD28E
:100B4000DFE806F004111E2B3845526554B9012D1B
:100B500001D1012000E000203D49097860F34511F2
:100B60003B48017068E054B9012D01D1012000E03B
:100B700000203749097860F38611354801705BE041
:100B800054B9012D01D1012000E00020304909783D
:100B900060F3C7112E4801704EE054B9012D01D108
:100BA000012000E000202A49097860F30411284858
:100BB000017041E054B9012D01D1012000E0002075
:100BC0002349097860F3C3012148017034E054B926
:100BD000012D01D1012000E000201D49097860F3BA
:100BE00082011B48017027E0012C06D118480078CB
:100BF00020F001001649087008E0022C06D11448C4
:100C0000007820F00100401C1149087014E0012C0C
:100C100007D10F48007820F002000D49087009E064
:100C200009E0022C06D10A48007820F00200801C5E
:100C30000749087000E000BF00BF0FB9BDE8F081B0
:100C4000034800F04FF800F03FF800BFF6E700005F
:100C50007400002010B50446208B01F0BDF9A08B74
:100C600001F0BAF9608B01F0B7F9E168206800F093
:100C70002BFD6169A06800F027FD2169606800F024
:100C800023FD03221021E368206800F021FD0322E8
:100C900010216369A06800F01BFD03221021236965
:100CA000606800F015FD10BD10B50548FFF7D2FFD4
:100CB00004480021017000F015F800F005F810BD9F
:100CC000540000207400002010B5054A11695068D6
:100CD00000F0FCFC024A1169506800F0F5FC10BD00
:100CE0005400002070B50546002403E0285D00F0A4
:100CF00005F8641C002CF9D070BD000070B50446E6
:100D000000251AE0E01128B90D4AD168106800F0FA
:100D1000DBFC04E00A4AD168106800F0D7FC6006EA
:100D2000040E074A5169906800F0D0FC044A5169EA
:100D3000906800F0C9FC681CC5B2082DE2DB70BDEC
:100D4000540000200FB4054B10B503A9044A0298C3
:100D500000F01CF810BC5DF814FB0000A1160008A0
:100D60007800002002E008C8121F08C1002AFAD14A
:100D700070477047002001E001C1121F002AFBD11B
:100D8000704700F0010181F3138870472DE9FF4F90
:100D90008DB09B460F460446002606E025280BD062
:100DA0005A460F999047641C761C20780028F5D18C
:100DB00011B03046BDE8F08F0025A84601229849C1
:100DC00000E0054314F8013F203B02FA03F008421B
:100DD000F7D120782E2817D114F8010F45F004051B
:100DE0002A280ED06FF02F022078A0F130010929B7
:100DF0000AD808EB880102EB410100EB0108641CF2
:100E0000F2E757F8048B641C20786C280DD004DCC2
:100E10004C2812D06A2811D104E074280DD07A2809
:100E20000CD10AE045F4001507E0617845F480151F
:100E3000814202D1641C05F58015641C2278692A60
:100E400045D008DC002AB3D0582A69D0632A10D0D4
:100E5000642A08D13BE0702A67D0732A13D0752A20
:100E60005CD0782A5CD010465A460F999047761C81
:100E7000D3E017F8040B8DF8000000208DF8010076
:100E8000E946012003E057F8049B4FF0FF30690763
:100E90004FF0000501D40AE06D1C45450DDA85428E
:100EA000FADB19F805100029F6D106E06D1C854221
:100EB000FCDB19F805100029F8D12E4404E019F8DC
:100EC000010B5A460F9990476D1EF8D2A5E00A20F3
:100ED0000021CDE90801C5F3025002280DD001CF51
:100EE000C117031E71F100030DDA4FF0000CD0EBB7
:100EF0000C006CEB01012D2308E0FF1D27F0070714
:100F0000F7E80201EDE72B0504D52B238DF82830F7
:100F100001233BE0EB0739D02023F7E70A2000E06C
:100F200010200021CDE9080107E01020002145F044
:100F30000405CDE908014FF00808C5F30250022866
:100F40000FD001CF00214FF0000A2B071FD5702AC8
:100F50000DD0DDE908C38CF0100C5CEA030C0CD05A
:100F600015E0FF1D27F00707F7E80201EBE7402235
:100F70008DF828204FF0010A0BE050EA010306D05B
:100F800030238DF828308DF8292002239A46582ADC
:100F900004D024A20DF120090B9209E026A2F9E762
:100FA000DDE90823FFF700F90B9B9B5C09F8013D85
:100FB00050EA0102F4D1ADEB090020300890680737
:100FC00001D44FF001080899884502DDA8EB010023
:100FD00000E000208046002506E00AA85A46405D51
:100FE0000F9990476D1C761C5545F6DB04E03020C8
:100FF0005A460F999047761CB8F10001A8F10108F4
:10100000F5DC05E019F8010B5A460F999047761C5C
:101010000899481E08900029F4DC641CC5E600000D
:1010200009280100303132333435363738396162BE
:101030006364656600000000303132333435363782
:1010400038394142434445460000000010B504468B
:101050002349888800F0C0FF2149086801F02CF975
:101060001F490868214601F0D5F81D490868082184
:1010700001F091F91A490868042101F082F9184930
:101080000868052101F065F915490868062101F095
:1010900060F91349086801F057F91249888800F08F
:1010A0009BFF1049086801F007F90E4908682146BE
:1010B00001F0B0F80B490868082101F06CF9094902
:1010C0000868042101F05DF906490868072101F06C
:1010D00040F90449086801F037F9012010BD00000B
:1010E00024000020000000202DE9F04105460A20E0
:1010F00000F04AF959A12846FFF748F8002852D1D4
:10110000584C59A0FFF71EFE04F1120164A0FFF72E
:1011100019FE0A21E068B0FBF1F201FB1206B0FBF8
:10112000F1F201FB1200B0FBF1F201FB12076421A6
:10113000E068B0FBF1F201FB12000A21B0FBF1F212
:1011400001FB120833463A46414658A0FFF7FAFD24
:10115000207C012803D15AA0FFF7F4FD00E000BF76
:1011600000BF5BA06168FFF7EDFD607C012804D043
:10117000022806D003280CD107E059A0FFF7E2FDB2
:1011800008E05DA0FFF7DEFD04E062A0FFF7DAFDF6
:1011900000E000BF00BF66A0A168FFF7D3FD32A04A
:1011A000FFF7D0FD00BF66A12846FEF7EFFF00283D
:1011B00052D1654C2CA0FFF7C5FD04F1120138A0F7
:1011C000FFF7C0FD0A21E068B0FBF1F201FB120657
:1011D000B0FBF1F201FB1200B0FBF1F201FB1207D0
:1011E0006421E068B0FBF1F201FB12000A21B0FBC0
:1011F000F1F201FB120833463A4641462BA0FFF7B5
:10120000A1FD207C012803D12DA0FFF79BFD00E06C
:1012100000BF00BF2EA06168FFF794FD607C01282D
:1012200004D0022806D003280CD107E02CA0FFF739
:1012300089FD08E030A0FFF785FD04E035A0FFF749
:1012400081FD00E000BF00BF39A0A168FFF77AFD73
:1012500005A0FFF777FD00BFBDE8F0816170705F0A
:1012600031000000000007083D3D3D3D3D3D3D3D56
:101270003D3D3D3D3D3D3D3D3D3D3D3D3D3D3D3D9E
:101280003D3D3D3D3D3D3D3D3D3D3D3D3D3D3D3D8E
:101290003D3D3D3D3D3D3D3D3D3D3D3D0D0A00005B
:1012A0006E616D653A25730D0A00000076657273F4
:1012B000696F6E3A25642E25642E25640D0A0000A0
:1012C000636869703A47443332463330330D0A005D
:1012D00073697A653A256462797465730D0A000052
:1012E0006F7065726174696E672073797374656D70
:1012F0003A4E4F4F530D0A006F7065726174696EFC
:10130000672073797374656D3A4652454552544F60
:10131000530D0A006F7065726174696E672073798E
:101320007374656D3A525454485245440D0A000096
:101330006C6F61643A3078256C780D0A000000000B
:101340006170705F32000000000807080C480068F8
:1013500020F080700A4908600846006840F08070FC
:1013600008600848006820F0010006490860084647
:10137000006840F0010008600020486070470000ED
:10138000FCED00E0001000E070B50446002504E02C
:101390004FF47A7000F004F86D1CA542F8D370BDCC
:1013A00070B5044607484568012000F069FD06490C
:1013B000B0FBF1F0444300BF02484068401BA0422C
:1013C000FAD370BD001000E040420F0000B50346A4
:1013D000012200BF00F00CF802465B1E012A01D179
:1013E000002BF7D1012A00D10422104600BD0000D5
:1013F00000200A49C96801F0010109B101200CE08F
:101400000649C96801F0100109B1032005E003494C
:10141000C96801F0040101B10220704700200240B8
:1014200000B50346012200BF00F00CF802465B1E27
:10143000012A01D1002BF7D1012A00D10422104644
:1014400000BD000000200A49C96C01F0010109B18A
:1014500001200CE00649C96C01F0100109B103201C
:1014600005E00349C96C01F0040101B10220704795
:1014700000200240064A02EB9011096800F01F03A9
:1014800001229A401143024B03EB90121160704706
:101490000020024070B504460D460026274800880B
:1014A000B0F5007F31D92648844217D22548FFF78E
:1014B0008DFF0646002E3ED12348006940F0010012
:1014C0002149086125801F48FFF780FF06461E4816
:1014D000006920F001001C4908612CE01948FFF761
:1014E0009FFF06463EBB1848006D40F001001649BC
:1014F000086525801348FFF793FF06461248006DE4
:1015000020F001001049086515E00E48FFF75EFF66
:10151000064686B90C48006940F001000A49086196
:1015200025800848FFF752FF06460748006920F06B
:10153000010005490861304670BD0000E0F7FF1F5B
:10154000FFFF07080000FF0F002002400848006965
:1015500040F080000649086106480088B0F5007F29
:1015600004D90846006D40F080000865704700000F
:1015700000200240E0F7FF1F30B5054633480088E1
:10158000B0F5007F44D9324885421CD23148FFF77C
:101590001DFF0446002C56D12F48006940F0020080
:1015A0002D49086108464561006940F04000086126
:1015B0002848FFF70BFF04462748006920F0020087
:1015C000254908613FE02348FFF72AFF0446002C25
:1015D00039D12148006D40F002001F4908650846D6
:1015E0004565C06900F0020008B1084645611A4827
:1015F000006D40F04000184908651648FFF710FFDD
:1016000004461548006D20F00200134908651AE0F1
:101610001048FFF7DBFE0446ACB90F48006940F004
:1016200002000D49086108464561006940F040002C
:1016300008610848FFF7CAFE04460748006920F021
:10164000020005490861204630BD0000E0F7FF1F99
:10165000FFFF07080000FF0F002002400C48006950
:1016600000F0800020B10B48094948600A484860F2
:101670000A480088B0F5007F09D90548006D00F0E0
:10168000800020B103480249486403484864704719
:101690000020024023016745AB89EFCDE0F7FF1F33
:1016A00070B504460D4600BF06490868072100F0E2
:1016B00059FE0028F8D0C4F30800024909684860C0
:1016C000204670BD000000204161704701617047F5
:1016D000F0B5044616460025002201F00F0501F082
:1016E000100747B1042E05D145F00305E76B1F43F2
:1016F000E76300E0354300201EE0012787401F40DC
:10170000C7B122684FEA800C0F2707FA0CF7BA43DB
:10171000870005FA07F73A43282904D101278740B3
:101720001F40676105E0482903D1012787401F401A
:1017300027612260471CB8B20828DED3082022E0C7
:10174000012787401F40E7B16268A0F108074FEA10
:10175000870C0F2707FA0CF7BA43A0F10807BF0060
:1017600005FA07F73A43282904D1012787401F408B
:10177000676105E0482903D1012787401F402761A1
:101780006260471CB8B21028DAD3F0BDF0B50A4643
:10179000002300240021002500F00046B6F1004F90
:1017A00002D11D4EF16901E01B4E7168C0F3034583
:1017B00083B200F44016B6F5401F08D121F0E06175
:1017C000154E766826F0E066134F7E6012E000F456
:1017D0008016B6F5801F06D1032606FA05F4A1434C
:1017E00041F0E06106E0460D360103FA06F6B1432A
:1017F00041F0E06122B1460D360103FA06F63143AD
:1018000000F00046B6F1004F02D1034EF16101E055
:10181000014E7160F0BD0000000001403EB52A4C51
:101820002A492068884203D029A0FFF78BFA3EBDE1
:101830002AA12C48FEF7AAFC70B14FF40061294898
:10184000FEF73AFD25A103C9CDE90001062269464C
:101850002448FEF78DFD00BF607C012801D172B6DF
:1018600010E0607C022803D10120FFF78AFA09E02A
:10187000607C032803D10120FFF783FA02E01AA05D
:10188000FFF760FA4FF48031C80200F0DFF90A2058
:10189000FFF77AFD16A000680290022102A800F06E
:1018A0009FFC1448406814490860084600681349C2
:1018B00008601049086880F3088800BF0F48006876
:1018C000804700BFB3E70000000007082420052779
:1018D0004E4F20415050310D0A0000006170705F82
:1018E00031000000001007084545524F520D0A0014
:1018F000ADA50000000001084C00002050000020B1
:101900003EB52A4C2A492068884203D029A0FFF717
:1019100019FA3EBD2AA12C48FEF738FC70B14FF4ED
:1019200000612948FEF7C8FC25A103C9CDE90001E3
:10193000062269462448FEF71BFD00BF607C012893
:1019400001D172B610E0607C022803D10120FFF7BC
:1019500018FA09E0607C032803D10120FFF711FA8F
:1019600002E01AA0FFF7EEF94FF48021480200F0E0
:101970006DF90A20FFF708FD16A000680290022109
:1019800002A800F02DFC144840681449086008467D
:101990000068134908601049086880F3088800BF90
:1019A0000F480068804700BFB3E700000008070841
:1019B000242005274E4F20415050320D0A000000D0
:1019C0006170705F32000000001007084552524FEE
:1019D000520D0A00ADA50000000004084C000020D4
:1019E000500000200EB540F2036000F0F5FA4FF40D
:1019F000C06000F0F1FA01215648FFF7C7FE082049
:101A0000554908601020086018230122102152480F
:101A10001438FFF75DFEFFF799FCFFF745F900F07A
:101A200035FB00244DA0006800900221684600F0BC
:101A3000D7FB4BA0FFF786F91FE0641C494894FBD5
:101A4000F0F100FB114048B94748844206DA4548A6
:101A500094FBF0F6314645A0FFF774F901A800F0B9
:101A60001DFB20B19DF80400E52800D106E03E48AA
:101A7000401C844201DD012500E0DEE700BF68E094
:101A80000A20FFF781FC012D12D139A13A48FEF757
:101A90007DFB10B9FFF7C2FE0AE038A13648FEF719
:101AA00075FB10B9FFF72CFF02E036A0FFF74AF9EB
:101AB0000A20FFF769FC9DF80400392814D136A0EC
:101AC000FFF740F93CA0FFF73DF93EA0FFF73AF9D8
:101AD00044A0FFF737F94AA0FFF734F94FA0FFF70A
:101AE00031F953A0FFF72EF900BF02A800F0D6FA93
:101AF0000028FAD09DF80800E12802D1FEF7DCFDAD
:101B000027E09DF80800E22802D100F0ABF820E0C1
:101B10009DF80800E32803D115A0FFF7E5FA18E0C7
:101B20009DF80800E42803D114A0FFF7DDFA10E0C7
:101B30009DF80800E52802D1FFF770FE09E09DF846
:101B40000800E62802D1FFF7DBFE02E03DA0FFF728
:101B5000F9F895E700023000140C0140ADA4000034
:101B60000D0A000040420F008196980025640D0088
:101B70006170705F31000000001007086170705FD5
:101B800032000000456E74657220626F6F746C6F76
:101B9000616465720D0A0000506C656173652043D5
:101BA000686F6F736520596F757220436F6D6D613B
:101BB0006E643A0D0A000000313A55706461746138
:101BC0000D0A0000323A7175657279206C61737488
:101BD0002061707020696E666F6D6174696F6E0D43
:101BE0000A000000333A7175657279206170705F88
:101BF0003120696E666F6D6174696F6E0D0A000049
:101C0000343A7175657279206170705F3220696E47
:101C1000666F6D6174696F6E0D0A0000353A4A7522
:101C20006D7020746F204150505F310D0A0000002C
:101C3000363A4A756D7020746F204150505F320DF6
:101C40000A0000004545524F520D0A00034A0A405F
:101C50000243034B1A60BFF34F8F704780FFFF1F93
:101C600008ED00E02DE9F04155A15748FEF78EFA46
:101C700000284CD1554C04F1120155A0FFF762F831
:101C80000A21E068B0FBF1F201FB1205B0FBF1F2B2
:101C900001FB1200B0FBF1F201FB12066421E068C7
:101CA000B0FBF1F201FB12000A21B0FBF1F201FBE3
:101CB00012072B463246394648A0FFF743F8207CEE
:101CC000012803D14AA0FFF73DF800E000BF00BFA4
:101CD0004BA06168FFF736F8607C012804D0022829
:101CE00006D003280CD107E049A0FFF72BF808E045
:101CF0004DA0FFF727F804E052A0FFF723F800E01B
:101D000000BF00BF56A0A168FFF71CF855E058A11E
:101D10002D48FEF73BFA00284CD1574C04F1120134
:101D20002BA0FFF70FF80A21E068B0FBF1F201FBEE
:101D30001205B0FBF1F201FB1200B0FBF1F201FB66
:101D400012066421E068B0FBF1F201FB12000A21E7
:101D5000B0FBF1F201FB12072B46324639461FA0B9
:101D6000FEF7F0FF207C012803D121A0FEF7EAFF57
:101D700000E000BF00BF22A06168FEF7E3FF607CC7
:101D8000012804D0022806D003280CD107E020A0A7
:101D9000FEF7D8FF08E024A0FEF7D4FF04E029A056
:101DA000FEF7D0FF00E000BF00BF2DA0A168FEF746
:101DB000C9FF02E03148FEF7C5FFBDE8F081000031
:101DC0006170705F31000000001007080000070814
:101DD0006E616D653A25730D0A00000076657273B9
:101DE000696F6E3A25642E25642E25640D0A000065
:101DF000636869703A47443332463330330D0A0022
:101E000073697A653A256462797465730D0A000016
:101E10006F7065726174696E672073797374656D34
:101E20003A4E4F4F530D0A006F7065726174696EC0
:101E3000672073797374656D3A4652454552544F25
:101E4000530D0A006F7065726174696E6720737953
:101E50007374656D3A525454485245440D0A00005B
:101E60006C6F61643A3078256C780D0A00000000D0
:101E70006170705F3200000000080708AC230008A2
:101E80002DE9F04F8CB0074600200A904AA090E858
:101E9000004CC068CDE905BECDF810A007900FF248
:101EA0001C1ADAE9000ACDE9020A0FF2101ADAE97F
:101EB000000ACDE9000A44484068C0F381000B9055
:101EC0000B9820B1012804D002283FD103E03F4AFB
:101ED0003EE03E4A3CE03C48406800F4803CBCF5B3
:101EE000803F12D13848C06A00F08048B8F1000F36
:101EF00001D1364B00E0364B3348406800F40039DE
:101F0000B9F5003F02D15B0800E0324B2E48406833
:101F1000C0F383412C48406800F0006008B141F0F4
:101F200010012948406800F0804008B141F02001CC
:101F30000F2901D2891C06E00F2903D33E2901D8BD
:101F4000491C00E03F2103FB01F201E01F4A00BFF2
:101F500000BF1D484068C0F3031504A8465D22FA7F
:101F600006F419484068C0F3022502A8465D24FA29
:101F700006F0099014484068C0F3C2251DF80560BA
:101F800024FA06F0089037B1012F06D0022F06D0B0
:101F9000032F0AD106E00A9208E00A9406E00998A5
:101FA0000A9003E008980A9000E000BF00BF0A987A
:101FB0000CB0BDE8F08F0000000000000000000041
:101FC00001020304060708090010024000127A000B
:101FD000006CDC0200093D00064A02EB9011096822
:101FE00000F01F0301229A401143024B03EB9012B1
:101FF0001160704700100240064A02EB9011096818
:1020000000F01F0301229A409143024B03EB901210
:102010001160704700100240064A02EB90110968F7
:1020200000F01F0301229A401143024B03EB901270
:10203000116070470010024010B51249C888FFF7C0
:10204000CBFF1149C888FFF7C7FF0E494B69012232
:10205000C8681821FFF73CFB0A498B690122C86850
:102060004821FFF735FB08494B690122C868182150
:10207000FFF72EFB04498B690122C8684821FFF74E
:1020800027FB10BD240000200000002010B54FF4F5
:10209000E130FEF7DBFFFFF7CFFF10BD10B50446C0
:1020A00007490868052100F05DF930B10449086866
:1020B00000F0F8F82070012010BD0020FCE70000BF
:1020C00024000020002000213F4A126842F48032A0
:1020D0003D4B1A6000BF401C3B4A126802F40031BD
:1020E00019B94FF6FF729042F5D1374A126802F4DF
:1020F00000320AB900BFFEE7334AD26942F080528B
:10210000314BDA61314A126842F440422F4B1A6077
:102110002D4A52682C4B5A601A4652685A601A4629
:10212000526842F480625A601A46526822F4403281
:102130005A601A46526842F440325A601A4652684F
:10214000234B1A40204B5A601A465268214B1A43BF
:102150001D4B5A601A46126842F080721A6000BF26
:10216000194A126802F00072002AF9D0174A126860
:1021700042F48032154B1A6000BF144A526802F4D0
:102180008032002AF9D0114A126842F400320F4B13
:102190001A6000BF0D4A526802F40032002AF9D0DA
:1021A000094A526822F00302074B5A601A465268E5
:1021B00042F002025A6000BF034A526802F008026D
:1021C000002AF9D070470000001002400070004063
:1021D000FFFFC3B70000340810B5FFF773FF10BD51
:1021E00070B504460E4604B970BD002504E0615D7B
:1021F00006A0FEF7A7FD6D1CB542F8DB04A0FEF7B4
:10220000A1FD0A20FFF7C0F800BFEDE72558000048
:102210000D0A00002DE9F04704460D460027B84698
:10222000B94600261D49601A8C421CD006DC1C48A9
:10223000204470B1B0F5806F1FD10FE0B0F5806F12
:1022400016D0B0F56C4F18D10320FFF719FE0746E2
:1022500014E00220FFF714FE07460FE00220FFF70C
:102260000FFE07460AE00220FFF70AFE074605E0D8
:102270000220FFF705FE074600E000BF00BF07EBA6
:102280005500B0FBF5F64FF6F07006EA000806F0D0
:102290000F0948EA0900A060BDE8F087004C004043
:1022A00000BCFFBF01464868C0F308007047C1F397
:1022B000080242607047000010B504462049601AC9
:1022C0008C4228D006DC1F48204490B1B0F5806FC6
:1022D00033D117E0B0F5806F26D0B0F56C4F2CD11C
:1022E00040F20E30FFF798FE40F20E30FFF784FE0A
:1022F00024E040F21140FFF78FFE40F21140FFF75B
:102300007BFE1BE040F21240FFF786FE40F21240D7
:10231000FFF772FE12E040F21340FFF77DFE40F23D
:102320001340FFF769FE09E040F21440FFF774FE26
:1023300040F21440FFF760FE00E000BF00BF10BD98
:10234000004C004000BCFFBFC16841F40051C160B7
:10235000704701F01F0301229A40D24300EB911312
:102360001A60704710B5024602EB9110006801F048
:102370001F040123A340184008B1012010BD002014
:10238000FCE7C26822F00402C260C26801F00403E4
:102390001A43C2607047C26822F00802C260C26875
:1023A00001F008031A43C260704700006C61737447
:1023B0002068617665206E6F206170702C706C658E
:1023C00061736520646F206E6F74206A756D702074
:1023D000746F206170702C6E6F7720676F20746F40
:1023E00020626F6F746C6F616465720D0A0000008B
:1023F00010240008000000207C000000640D00088C
:102400008C2400087C00002004450000740D0008A6
:10241000004C0040130704060606000000100140AF
:102420000018014000040000000800000004000043
:1024300034000000003801400E06020602060000CB
:1024400000080140000801400002000000040000F4
:10245000000800002500000000000000000000004F
:1024600000000000000C0140001001400014014079
:102470000002000000100000040000000306040633
:0C24800005060000000000000000000045
:0400000508000131BD
:00000001FF
