:020000040801F1
:10000000B8890020F102010811130108C512010886
:10001000C912010891120108ED1401080000000046
:100020000000000000000000000000003102010894
:1000300095120108000000008D02010881130108DB
:100040000B0301080B0301080B0301080B03010854
:100050000B0301080B0301080B0301080B03010844
:100060000B0301080B0301080B0301080B03010834
:100070000B0301080B0301080B0301080B03010824
:100080000B0301080B0301080B0301080B03010814
:100090000B0301080B0301080B0301080B03010804
:1000A0000B0301080B0301080B0301080B030108F4
:1000B0000B0301080B030108311401080B030108AD
:1000C0000B0301080B0301080B0301080B030108D4
:1000D0000B030108591401080B0301080B03010865
:1000E0000B0301080B0301080B0301080B030108B4
:1000F0000B0301080B0301080B0301080B030108A4
:100100000B0301080B0301080B0301080B03010893
:100110000B0301080B0301080B0301080B03010883
:100120000B0301080B0301080B0301080B03010873
:1001300000F002F800F06CF80AA090E8000C82448D
:100140008344AAF10107DA4501D100F061F8AFF26A
:10015000090EBAE80F0013F0010F18BFFB1A43F0A5
:100160000103184728770000487700000A444FF041
:10017000000C10F8013B13F0070408BF10F8014B06
:100180001D1108BF10F8015B641E05D010F8016B4B
:10019000641E01F8016BF9D113F0080F1EBF10F8AF
:1001A000014BAD1C0C1B09D16D1E58BF01F801CBD2
:1001B000FAD505E014F8016B01F8016B6D1EF9D555
:1001C0009142D6D37047000000230024002500266A
:1001D000103A28BF78C1FBD8520728BF30C148BFAA
:1001E0000B607047642900F00D81732900F0A08234
:1001F000002070471FB507F0FDF99DE8030000F0EF
:10020000FBFD00F011FB1FBD10B500F076FB10BD2B
:1002100000F0AEFB1146FFF7EDFF02F02FFF00F0FC
:100220009DFD03B4FFF7F0FF03BC00F0DBFA000014
:100230002C4B19680868B0E8F04F80F30988BFF3C9
:100240006F8F4FF0000080F31188704700000000AE
:1002500008480068006880F308884FF0000080F3C9
:10026000148862B661B6BFF34F8FBFF36F8F00DFA4
:1002700000BF00BF08ED00E0DFF80C00016841F4AA
:1002800070010160704700BF88ED00E0EFF3098066
:10029000BFF36F8F134B1A681EF0100F08BF20EDCD
:1002A000108A20E9F04F106009B44FF0500080F33D
:1002B0001188BFF34F8FBFF36F8F05F087F94FF0B1
:1002C000000080F3118809BC19680868B0E8F04F95
:1002D0001EF0100F08BFB0EC108A80F30988BFF33E
:1002E0006F8F704708020020EFF305807047000011
:1002F0000948804709480047FEE7FEE7FEE7FEE7BA
:10030000FEE7FEE7FEE7FEE7FEE7FEE704480549F5
:10031000054A064B704700008913010831010108A6
:10032000B8810020B8890020B8850020B885002059
:100330000FB4044910B503AA029800F0FDF910BCEF
:100340005DF814FBAC8000202DE9F0410E46044618
:10035000002020622046E168884730B3252805D078
:10036000D4E901219047206A401CF2E7E168204669
:1003700000278847050018D0A5F14100192802D8A8
:1003800020354FF400673246294620462760FFF7A4
:1003900029FF40B1012804D0F61D26F007060836D3
:1003A000D8E7361DD6E72846DAE7206ABDE8F081AF
:1003B00070B50C460546012A05D02878800600D580
:1003C000EA69002302E0012305E05B1C934202D2AC
:1003D000E05C0028F9D1A869E618C01AA861286A6B
:1003E000184428622846AFF3008004E0D5E90121D3
:1003F00014F8010B9047B442F8D32846AFF30080BD
:1004000070BD00002DE9F0410646002410687529F2
:10041000314616A510D0AFF30080002802DA404222
:1004200013A507E031688A0701D512A502E0490744
:1004300004D511A5012401E0AFF3008000210A22B8
:1004400006F1240709E0B0FBF2FCB0FBF2F302FB7B
:100450001C00303078541846491C0028F3D123463C
:100460002A463046BDE8F04100F0F7B80000000031
:100470002D0000002B000000200000000EB50546F6
:1004800014460E4613A000F03DFE284600F03AFE4A
:1004900016A000F037FE304600F034FE15A000F044
:1004A00031FE00218DF80B100A210DF10A008DF8A4
:1004B0000A1008E094FBF1F201FB124294FBF1F404
:1004C000303200F8012D002CF4DC00F01BFE00F0AF
:1004D00045F900002A2A2A20617373657274696FD6
:1004E0006E206661696C65643A2000002C206669A4
:1004F0006C6520002C206C696E652000032A40F298
:10050000308010F0030C00F0158011F8013BBCF1B5
:10051000020F624498BF11F801CB00F8013B38BFCD
:1005200011F8013BA2F1040298BF00F801CB38BFDB
:1005300000F8013B11F0030300F01B81083AC0F002
:10054000088051F8043B083A51F804CBA0E80810A1
:10055000F5E7121D5CBF51F8043B40F8043BAFF3D4
:100560000080D20724BF11F8013B11F801CB48BF2E
:1005700011F8012B24BF00F8013B00F801CB48BF64
:1005800000F8012B70474FF0000200B51346944667
:100590009646203922BFA0E80C50A0E80C50B1F1DB
:1005A0002001BFF4F7AF090728BFA0E80C5048BFEF
:1005B0000CC05DF804EB890028BF40F8042B08BF8D
:1005C000704748BF20F8022B11F0804F18BF00F889
:1005D000012B70474FF0013C50F8042B51F8043BBD
:1005E0009A4221D1A2EB0C03934313EACC1317D107
:1005F00050F8042B51F8043B9A4215D1A2EB0C039E
:10060000934313EACC130BD150F8042B51F8043B5D
:100610009A4209D1A2EB0C03934313EACC13DBD02B
:100620004FF00000704700BFD01A01BAB1FA81F153
:1006300001F0180122FA01F0CB40C1F12001DBB238
:10064000C0B2C01A2CFA01F3D11A914311EAC311B6
:10065000E6D170477047704770472DE9F0470D4667
:1006600099469246044600F124080168880604D59C
:10067000E06921F01001216000E00120A84201DDC5
:10068000471B00E00027A1697A1902EB0900081A4C
:10069000A0612078C00602D42046AFF30080002677
:1006A00008E0D4E901211AF806009047206A401CAE
:1006B000761C20624E45F4DB2078C0060AD5204621
:1006C000AFF3008006E0D4E9012130209047206A92
:1006D000401C2062381EA7F10107F4DC07E0D4E9D2
:1006E000012118F805009047206A401C2062281E4E
:1006F000A5F10105F3DC2046AFF300802078000669
:1007000002D50220BDE8F0870120FBE710B5436960
:1007100013B1AFF3008001E0FFF74AFE012010BDE6
:10072000127800F124010A7000224A700122EDE7DC
:1007300011684FF0FF32E9E7074B70B50D467B4477
:1007400000F05BF80446284600F06AF810B14FF05C
:10075000FF3070BD204670BD0321000010B50020A1
:1007600000F0FEF8FFF750FDBDE81040012000F05A
:1007700039B810B5203AC0F00B80B1E81850203AD3
:10078000A0E81850B1E81850A0E81850BFF4F5AF31
:100790005FEA027C24BFB1E81850A0E8185044BFBB
:1007A00018C918C0BDE810405FEA827C24BF51F828
:1007B000043B40F8043B08BF7047D20728BF31F81C
:1007C000023B48BF11F8012B28BF20F8023B48BF6D
:1007D00000F8012B704708B569468DF8000003202A
:1007E000ABBE08BD01491820ABBEFEE726000200E3
:1007F00001694A1C02610878704700B58FB0CDE9E5
:1008000001310021059105497944CDE903101146D4
:100810006846FFF799FD0FB000BD0000E5FFFFFF40
:10082000007B00F08000704710B542485421FFF76C
:10083000AAFE41485421FFF7A6FE40485421FFF785
:10084000A2FE3F493B483C4A3F4B08603D490A6095
:100850003A491960531C0365481C1065012008655E
:100860003B48344A39A1784400F0DCF920B93848D3
:1008700078440A3800F098FA37482F4A35A178446E
:1008800000F0D0F920B9344878440A3800F08CFAE6
:1008900032482A4A2FA1784400F0C4F920B92F48E1
:1008A00078440A3800F080FA40232248DC00002116
:1008B000224600F094F920B125487844543800F0DD
:1008C00073FA1D4822464023002100F088F920B128
:1008D00021487844543800F067FA1848224610231B
:1008E000002100F07CF9002806D01C487844BDE8BF
:1008F0001040563800F058BA10BD104870B5006D61
:1009000020F001040B4800F003FA0B4800F000FA55
:100910000A4800F0FDF909E0206D20F001052046AD
:1009200000F0F6F9204600F048F82C46002CF3D1F0
:1009300070BD000058800020AC80002000810020A5
:1009400064030020680300206C0300207200000094
:10095000A66F000077000000956F0000856F000013
:1009600010B500F009FABDE8104000F000BA704779
:10097000754600F021FAAE4605006946534620F060
:100980000700854618B020B5FFF7C0FCBDE8204041
:100990004FF000064FF000074FF000084FF0000B3B
:1009A00021F00701AC46ACE8C009ACE8C009ACE8EE
:1009B000C009ACE8C0098D46704770B50446051FF4
:1009C00000F0FEF90068002C14BF446870BD002CD4
:1009D00018BFAC423CBF20466468F8D301680A18CF
:1009E000AA4218BF456003D12A6805461144016038
:1009F00028684119A1421CBF6C6070BD61686960C4
:100A000021680844286070BD2DE9F04705460C4672
:100A1000C86820F4201040F48000C860800602D529
:100A2000084600F01AFBE06841F282014FF0FF39FE
:100A30000140022903D0204600F0B8FAB5E000F4E6
:100A40002041B1F5004F0FD1C00306D56168E06ABF
:100A5000884200D80846606006E02069E062606075
:100A6000606900F010FFA061A0680022EEB20028CB
:100A70000DDAE1688B050AD4C043A06041F49030E0
:100A80002260E0606068411C61600670A5E0E0687B
:100A90009046226040F40050E060206968BB6069C5
:100AA00000F003FF012704F12405A0B1A08910F490
:100AB000407F08D0E06900F0CEF9206118B1E0680D
:100AC00040F4006016E0E7612561E06820F44070C2
:100AD00040F480600EE0E06900F0BDF9002820617C
:100AE000F1D0E06840F4006010F4407FE06002D193
:100AF00040F48070E06020696060E06825696FF014
:100B0000010AC1051FD56168E06A884200D808461D
:100B1000411B04D02246284600F052FAF0BBE068A0
:100B2000010203D5E562C4E9015854E0691CE162A1
:100B30006160E16940F48030491EC4E9021030462A
:100B40002E70BDE8F087010202D500F480320AE081
:100B50006068411C61600670E0680A2E40F48030D5
:100B6000E06006D00022E16A6068814203D90B464A
:100B700002E00122F7E70346A7895B1B7F0503D448
:100B8000E7699F4200DDE2B1814200D80146E5629B
:100B90000F1AC4E90158002B09DD00E005E02246E8
:100BA0001946284600F00CFA08B14846C9E747B193
:100BB000A069E5626560C01BA061E06840F01000BC
:100BC000E060E068000208D56168A069E562491B41
:100BD00008446560A0615046B3E73046B1E770B5A0
:100BE000C468A50713D0650211D4B2F5807F09D07F
:100BF000B2F5007F06D0B2F5806F08D1012300F175
:100C0000240106E05D1E6FF07F46B54201D301204E
:100C100070BD0161C361416024F470611143C16022
:100C2000002070BD2DE9F0410C46074616461046DF
:100C300000F06EF82078611C61280AD0722802D07A
:100C400077283CD102E00125002405E00225042498
:100C500002E0082448F2020511F8010B2B2806D007
:100C6000622809D011F8010C74280AD00BE045F075
:100C7000030544F00204EFE745F0040544F00104E5
:100C8000EAE744F010043846214600F021FE411CFA
:100C900015D00021316171604FF40071F560F16190
:100CA0007061200704D530460222002100F002F9CD
:100CB000306D40F0010030653046BDE8F081002025
:100CC000FBE72DE9F0410D460646104C206DC107AB
:100CD00004D0410804D020F00104F7E722460EE0DA
:100CE000542000F0B8F807000ED0206D47F0010145
:100CF0000843542120653846FFF745FC3A4629460B
:100D00003046BDE8F0418DE70020D6E7588000204E
:100D10002DE9F04704464FF000094FF0FF37C56852
:100D2000D4E90486A80707D0204600F073F93046BE
:100D300000F096FD002802DA3846BDE8F087280565
:100D400002D54046FFF739FE4C212046FFF71BFC39
:100D5000206D20F0010020654846EEE710B50446FE
:100D6000AFF300802046BDE81040FFF75ABA0028D4
:100D700001D0FFF737BD704710B5002102A000F089
:100D80008DF9012010BD0000534947414252543AA9
:100D90002041626E6F726D616C207465726D696E58
:100DA0006174696F6E00000010B500F091F9BDE844
:100DB0001040FFF7DCBF000000487047548100205E
:100DC000004870475C81002070477047704770474B
:100DD00038B504460A4600206946AFF30080002873
:100DE00008BF38BD02460099204600F09EF9012058
:100DF00038BD012000F018BAF8B5AFF30080054601
:100E000000200C46102000BF0646A819A0420DD9AC
:100E1000324669460020AFF30080070008BF00F0AB
:100E200003FA0098A04218BF0546C419FFF7C8FF8F
:100E300005600746F01D20F007004619284600F01F
:100E40006DF9B44208BFF8BDA21B31463868BDE851
:100E5000F84000F06AB970B50646FFF7B1FF0568C3
:100E600006F10B0020F00704B4429CBF002070BDC7
:100E70002B466A68BAB11068A04210D304F1080189
:100E800088423CBF5068586007D3516810194160D0
:100E90001168091B016058601460101D70BD134675
:100EA0005268002AE7D121462846FFF791FF002823
:100EB000DED170BD2DE9F041044616460D46476966
:100EC000007B80072ED0384600F0EFFC50BB3EB3CD
:100ED000012E02D0022E25D104E0204600F083F935
:100EE00005441DE0384600F0CEFCE168002841F0E2
:100EF0001001E16005DA204600F058F80120BDE855
:100F0000F081C9030BD56268E16A914200D81146AD
:100F1000A26911442269891A814200DD084605440C
:100F2000002D01DA0220EAE7E16A6068E2688142A6
:100F300006D29103E06203D522F4003141F01002A1
:100F4000A6690027AE4213DCE16A814201D90B4653
:100F500000E0034603EB060C2369ACEB030CAC4545
:100F600006DD814201D98C4600E084469C4505D1CE
:100F7000A760276042F02000A5620DE0AD1BE66986
:100F8000AE1B8142A66000D90846C01A281A20600C
:100F90005819606022F0200003490840E0600020FA
:100FA00084F84870ABE70000BFCFD7FFC16821F4D9
:100FB000001141F08001C160002181600160704733
:100FC0002DE9F047814614460E464FF0FF3832486F
:100FD000D5685769054209D03846A16900F0ACFCD4
:100FE000002811DB2C48C0430540E5602B46324603
:100FF0004946384600F0B6FCA16920F00042B21A1A
:1010000011440028A16103D02046FFF7CFFF4046DE
:10101000BDE8F08770B504460569C06A616888421A
:1010200000D80846E16821F42011E160C90312D517
:10103000A84208D02246411B2846FFF7C1FF10B145
:101040004FF0FF3070BD0020E562C4E90150E06858
:1010500020F48030E060002070BD10B50446C06808
:1010600020F02000E060A16AA06988420DD02046EF
:10107000FFF7D0FFE06820F4405040F01000E0603F
:10108000A06AA0612069E062606044F24001E0680B
:101090008843E06010BD00001000020070B50546F6
:1010A0000C460A2000E06D1CFFF795FB35B128784F
:1010B0000028F8D102E0641CFFF78DFB14B1207802
:1010C0000028F8D1BDE870400A20FFF784BB00007B
:1010D00010B5014602A0FFF7E1FF012010BD00009E
:1010E00053494752545245443A20526564697265E7
:1010F00063743A2063616E2774206F70656E3A20C6
:101100000000000010B5044900F05CF8BDE8104094
:10111000014800F040B8000000810020002101607B
:10112000C0E90110704710207047034640688C46A4
:10113000002818BF88423CBF03464068F8D31868AF
:101140001844884207D00CF1030020F00700001D6E
:10115000411A521A0146081D0A60FFF72EBC000012
:1011600070B50446C068810713D0800601D5A56A12
:1011700004E0A169606808442169451A2046FFF728
:1011800049FF0022064629462046FFF793FE3046D7
:1011900070BD002070BD70B510B1BDE87040DFE7D4
:1011A0000025074C6E1E07E02046FFF7D9FF00B16F
:1011B0003546206D20F00104002CF5D1284670BD85
:1011C0005880002070B50D46044604E0294601F021
:1011D00039FB401C04D014F8010B0028F6D170BD77
:1011E0004FF0FF3070BD10B50146C268900703D0C4
:1011F000900607D5886A0AE000F01EF80121016018
:10120000881E10BD8B69486818440B69C01A91F894
:1012100048301BB191F84910401A10BD1103FCD59C
:101220000028FADD401E10BD10B500F009F8BDE839
:101230001040FFF79CBD000000487047548100201B
:1012400010B5012805D0002103A0FFF727FF0120DA
:1012500010BD09A1F8E7000053494752544D454DD0
:101260003A204F7574206F662068656170206D6547
:101270006D6F7279000000003A2048656170206D42
:10128000656D6F727920636F72727570746564003A
:1012900000BFFEE77047000010B50949C88803F099
:1012A0007DF80749CB6801228868182101F0DCFD30
:1012B00003490B6901228868482101F0D5FD10BD62
:1012C000BC01002000BFFEE700BFFEE71FB5044BD6
:1012D0000FCB8DE80F00684600F004F81FBD00003A
:1012E0000076010838B504460020009021780246B7
:1012F000636801F083F800F0D5FF0248D4E90212D8
:1013000006C038BDB001002010B501F0E7F810BDEF
:10131000704700002DE9F04780468946174617B907
:101320000220BDE8F087002423E0002500261AE013
:10133000124800EB0610408808EB0401884200D0F8
:1013400010E00E4800EB0615287800F0010008B9FF
:101350000220E6E7A86820B1022202FB0470A96817
:10136000884700BF761C0B2EE2D30DB90120D8E7C9
:10137000641C4C45D9DB0020D3E70000240000208A
:1013800010B504F0D3FD10BD08B52648006840F440
:101390007000244908602448006840F00100224998
:1013A000086000BF2048006800F002000028F9D063
:1013B00000BF1D48406840F080001B494860002085
:1013C000009002E00098401C009000985028F9D34B
:1013D0001548406840F09000134948600020009094
:1013E00002E00098401C009000985028F9D300BFFC
:1013F0000D48406820F003000B494860084600682B
:101400000A490840084908604FF41F0088600846F0
:10141000006820F48020086000204860C86203F063
:101420001BF908BD88ED00E000100240FFFFF6FE4A
:1014300010B50121074803F0EEFA012809D1012176
:10144000044803F0E5FA0021024803F0BFF902F076
:101450002DFD10BD0008004010B50D4908680D496C
:1014600003F03DFC30B102F029FD094908680A4942
:1014700003F02CFC06490868084903F030FC30B141
:1014800002F024FD02490868044903F01FFC10BD66
:10149000BC01002005030500050303000603060048
:1014A00010B504461049888802F078FF0E49086894
:1014B00003F096FB0C490868214603F03FFB0A49FC
:1014C0000868082103F041FC07490868042103F07B
:1014D0002AFC0549087D0022042101F0CDFE0249C5
:1014E000086803F0C5FB10BDBC01002000BFFEE78B
:1014F0002DE9F04781468A46164616B90220BDE816
:10150000F087002534E0002400272BE01A4800EB88
:101510000710408809EB0501884200D021E01648F9
:1015200000EB0714207800F0020008B90220E6E77B
:1015300016F815004FF47F4101EA00206900491CAC
:10154000715C40EA0108A088404502DCE088404523
:1015500001DA0220D3E7E06810B14046E16888472D
:1015600000BF7F1C0B2FD1D30CB90120C7E76D1C26
:101570005545C8DB0020C2E72400002010B540F22A
:10158000036002F00BFF40F2036002F007FF40F23D
:10159000036002F003FF4FF48051114801F060FC3A
:1015A0004FF400510E4801F05BFC4FF480410C48B1
:1015B00001F056FC4FF4805303221021084801F03B
:1015C00053FC4FF4005303221021054801F04CFC5A
:1015D0004FF4804303220421014801F045FC10BD73
:1015E000000C014070B500244FF48051164801F002
:1015F00037FC4FF48051144801F034FC4FF4804123
:10160000114801F08FFC08B944F00104012516E0EF
:101610004FF400510C4801F023FC00BF00BF4FF411
:101620000051094801F01EFC4FF48041064801F0CA
:1016300079FC18B90120A840204384B26D1C102DFC
:10164000E6DB204670BD0000000C01402DE9F041B2
:1016500006460C4615461F46082E7AD2DFE806F0ED
:1016600004111E2B3845526554B9012D01D10120BA
:1016700000E000203D49097860F345113B480170C6
:1016800068E054B9012D01D1012000E00020374964
:10169000097860F38611354801705BE054B9012D7B
:1016A00001D1012000E000203049097860F3C71122
:1016B0002E4801704EE054B9012D01D1012000E007
:1016C00000202A49097860F304112848017041E09C
:1016D00054B9012D01D1012000E0002023490978EF
:1016E00060F3C3012148017034E054B9012D01D1E8
:1016F000012000E000201D49097860F382011B48A9
:10170000017027E0012C06D11848007820F0010074
:101710001649087008E0022C06D11448007820F021
:101720000100401C1149087014E0012C07D10F483A
:10173000007820F002000D49087009E009E0022C51
:1017400006D10A48007820F00200801C0749087082
:1017500000E000BF00BF0FB9BDE8F081034800F012
:101760004FF800F03FF800BFF6E70000F40000205B
:1017700010B50446208B02F011FEA08B02F00EFE85
:10178000608B02F00BFEE168206801F069FB616983
:10179000A06801F065FB2169606801F061FB03222C
:1017A0001021E368206801F05FFB032210216369C8
:1017B000A06801F059FB032210212369606801F041
:1017C00053FB10BD10B50548FFF7D2FF04480021B8
:1017D000017000F015F800F005F810BDD4000020ED
:1017E000F400002010B5054A1169506801F03AFB79
:1017F000024A1169506801F033FB10BDD40000208B
:1018000070B50546002403E0285D00F005F8641C6F
:10181000002CF9D070BD000070B5044600251AE018
:10182000E01128B90D4AD168106801F019FB04E0F5
:101830000A4AD168106801F015FB6006040E074AD9
:101840005169906801F00EFB044A5169906801F0FB
:1018500007FB681CC5B2082DE2DB70BDD400002078
:1018600001466FF40040084420B1012804D002284A
:1018700006D103E0002070470020FCE70020FAE7D3
:101880004FF0FF30F7E701466FF40040084420B105
:10189000012804D0022806D103E000207047002070
:1018A000FCE70020FAE70020F8E701466FF400406B
:1018B000084420B1012804D0022806D103E0012009
:1018C00070470120FCE70120FAE70020F8E700005C
:1018D00070B504460D4614B94FF0FF3070BD207846
:1018E0003A281AD10EA12046FEF774FE10B948F22C
:1018F0000100F3E70CA12046FEF76CFE10B948F298
:101900000200EBE70AA12046FEF764FE10B948F298
:101910000300E3E74FF0FF30E0E74FF0FF30DDE793
:101920003A535444494E00003A5354444F555400DE
:101930003A5354444552520002466FF4004010445A
:1019400020B1012805D0022809D105E04FF0FF3071
:1019500070474FF0FF30FBE74FF0FF30F8E74FF0F4
:10196000FF30F5E72DE9F04106460C46154698464E
:101970006FF40040304420B1012806D0022811D174
:1019800005E04FF0FF30BDE8F0810020FBE705E007
:1019900014F8017B384602F09BFD6D1E002DF7D137
:1019A0000020F0E74FF0FF30EDE7816841F00801DB
:1019B000816000BF816801F008010029FAD18168C7
:1019C00041F00401816000BF816801F00401002939
:1019D000FAD1704730B5012902D002291AD10CE0A2
:1019E000C36A23F47003C362C36A541E4FF47005C4
:1019F00005EA04542343C3620DE0836B23F44013D0
:101A00008363836B541E4FF4401505EA045423434B
:101A1000836300E000BF00BF30BD21B1826842F4A3
:101A20000062826003E0826822F400628260704794
:101A300010B504461348204430B1B0F5806F0CD087
:101A4000B0F5C05F1BD111E040F2093002F0C6FCD6
:101A500040F2093002F0B2FC12E040F20A3002F02B
:101A6000BDFC40F20A3002F0A9FC09E040F20F3060
:101A700002F0B4FC40F20F3002F0A0FC00E000BF26
:101A800000BF10BD00DCFEBF816841F48071816041
:101A90007047816801F0010119B9816841F00101C5
:101AA0008160704772B101F001031BB1836843F498
:101AB0008013836001F0020393B1836843F4004311
:101AC00083600DE001F001031BB1836823F48013F0
:101AD000836001F002031BB1836823F40043836039
:101AE0007047012902D0022910D107E0836823F44E
:101AF0006023836083681343836008E0836823F472
:101B0000E043836083681343836000E000BF00BF4D
:101B1000704700000146024830F81100704700008D
:101B20004C80002000B587B000F0B8F94FF4A060F9
:101B300002F034FC40F2096002F030FC012002F0B7
:101B4000A1FA1C216846FEF71EFD0021484800F05E
:101B5000CDFA4848009000208DF8180046480290C1
:101B600001208DF8190000020190800003900020F0
:101B70008DF81A00062004904FF4005005906A4634
:101B800000213B4800F0EAFA0021394800F095FABC
:101B90000021374800F078FA36484C38FFF748FF04
:101BA000002000F06BF80122022132484C3800F08E
:101BB000D8F8012211022F484C3800F0D2F8002149
:101BC0002C484C38FFF729FF0622012129484C38C0
:101BD000FFF700FF05230122002126484C3800F0C2
:101BE0005BF805230022012122484C3800F054F80C
:101BF00005230E2202211F484C3800F04DF8052322
:101C00000F2203211B484C3800F046F80523082218
:101C1000042118484C3800F03FF8052309221946E2
:101C200014484C3800F038F84FF460220121114874
:101C30004C38FFF756FF012211460E484C38FFF78B
:101C400031FF0C484C38FFF724FF032000F004F963
:101C500008484C38FFF7A9FE06484C38FFF714FF38
:101C6000012104484C3800F06DF807B000BD0000B9
:101C7000000002404C2401404C80002005490968C6
:101C800021F47021034A1160114609680143116073
:101C90007047000004240140F0B51D4606290CD20F
:101CA000436B01EB81071F26BE40B34301EB810666
:101CB00002FA06F63343436322E00C290ED2036B8B
:101CC0008E1F06EB86071F26BE40B3438E1F06EB12
:101CD000860602FA06F63343036311E010290FD299
:101CE000C36AA1F10C0606EB86071F26BE40B3436C
:101CF000A1F10C0606EB860602FA06F63343C36230
:101D00000A2A0CD2046902EB42070726BE40B443FC
:101D100002EB420605FA06F63443046111E0122A8A
:101D20000FD2C468A2F10A0606EB46070726BE409A
:101D3000B443A2F10A0606EB460605FA06F634435A
:101D4000C460F0BD01F001021AB1826842F4800261
:101D5000826001F002021AB1826842F400128260CD
:101D60007047AAB101F480731BB1436843F48073D8
:101D7000436001F480631BB1436843F480634360B4
:101D800001F00203CBB1836843F00203836014E0E7
:101D900001F480731BB1436823F48073436001F442
:101DA00080631BB1436823F48063436001F0020346
:101DB0001BB1836823F002038360704770B5002570
:101DC00014E000240CE0E0B2FFF7A4FE124901EB9E
:101DD0004411C98A0844104901EB4411C882641CAB
:101DE000062CF0DB0A2000F037F86D1CB5F5FA7F01
:101DF000E7DB00200CE0084901EB4011C98A4FF4F1
:101E0000FA7291FBF2F1044A02EB4012D182401CBB
:101E10000628F0DB70BD0000A40200200C4800681A
:101E200020F080700A4908600846006840F0807021
:101E300008600848006820F001000649086008466C
:101E4000006840F001000860002048607047000012
:101E5000FCED00E0001000E070B50446002504E051
:101E60004FF47A7000F004F86D1CA542F8D370BDF1
:101E700070B5044607484568012002F039F9064963
:101E8000B0FBF1F0444300BF02484068401BA04251
:101E9000FAD370BD001000E040420F0010B54FF4BF
:101EA000C06002F07BFA40F2026002F077FA40F282
:101EB000026002F073FA40F2046002F06FFA40F23E
:101EC000046002F06BFA40F2036002F067FA40F23D
:101ED000036002F063FA02211D4800F0C1FF0121F6
:101EE0001B4800F0BDFF10211A4800F0B9FF202167
:101EF000184800F0B5FF0121174800F0B1FF02219A
:101F0000154800F0ADFF022303220021104800F025
:101F1000ABFF0123032200210D4800F0A5FF102391
:101F2000032200210B4800F09FFF20230322002101
:101F3000084800F099FF012303220021064800F021
:101F400093FF022303220021034800F08DFF10BD00
:101F50000008014000100140000C014010B540F2A3
:101F6000046002F01BFA40F2026002F017FA4FF42C
:101F700000510A4800F076FF1021094800F072FF76
:101F80004FF4005303220421044800F06DFF102396
:101F900003220421024800F067FF10BD0010014039
:101FA0000008014010B540F2026002F0F7F940F27B
:101FB000036002F0F3F940F2026002F0EFF94FF42F
:101FC000C06002F0EBF90121124800F0B3FF4FF4BA
:101FD0000041114800F046FF4FF480610F4800F0C7
:101FE00041FF80210C4800F03DFF4FF400430322E5
:101FF0000421094800F038FF4FF4806303220421D4
:10200000064800F031FF802303220421024800F03B
:102010002BFF10BD0002300000080140000C014001
:1020200010B540F2046002F0B9F940F2026002F02B
:10203000B5F94FF480410A4800F014FF2021094807
:1020400000F010FF4FF4804303220421044800F005
:102050000BFF202303220421024800F005FF10BDDE
:10206000001001400008014010B50446208802F02D
:1020700095F9D4E9010100F0F5FE04221021D4E91C
:10208000010300F0F1FE10BD70B505460C46214677
:10209000284600F0FBF808B900BFFEE704EB840017
:1020A000810005F10800405840F0010104EB840074
:1020B000820005F10800815070BD70B505460C46E0
:1020C0002146284600F0E2F808B900BFFEE704EB1D
:1020D0008400810005F10800405840F0200104EB25
:1020E0008400820005F10800815070BD70B504467F
:1020F0000D462946204600F0C9F808B900BFFEE7A2
:1021000005EB8500810004F10800405820F0010132
:1021100005EB8500820004F108008150002105EBE9
:102120008500820004F10800815005EB85008200E3
:1021300004F10C00815005EB8500820004F11000D1
:10214000815005EB8500820004F114008150606825
:10215000AA000F2191400843606070BD2DE9F04155
:1021600004460D4616462946204600F08FF808B969
:1021700000BFFEE705EB8500820004F11000316826
:10218000815005EB8500820004F11400B168815094
:10219000308A81B205EB8500820004F10C00815089
:1021A00005EB8500810004F10800475827F47C57AF
:1021B000F1687068084371690843074305EB8500BF
:1021C000810004F108004750307E01280ED105EB54
:1021D0008500810004F10800405840F0400105EB03
:1021E0008500820004F1080081500DE005EB8500B8
:1021F000810004F10800405820F0400105EB850003
:10220000820004F108008150707E01280ED105EB98
:102210008500810004F10800405840F0800105EB82
:102220008500820004F1080081500DE005EB850077
:10223000810004F10800405820F0800105EB850082
:10224000820004F108008150B07E70B905EB850072
:10225000810004F10800405820F0100105EB8500D2
:10226000820004F1080081500DE005EB850081003B
:1022700004F10800405840F0100105EB8500820091
:1022800004F108008150BDE8F08100000246012001
:10229000034B9A4202D1042900DD00207047000060
:1022A0000004024010B5002406480078012806D139
:1022B00005480068804700200249087000E00624B5
:1022C000204610BDFA000020000100202DE9F04753
:1022D00005460C464FF0000A2088052834D168785E
:1022E0004FEA0029A87840EA0909E8780602287927
:1022F0000643012E25DB7D2E23DC2F460020208087
:10230000032007F8010B2088401C20807006000E77
:1023100007F8010B2088401C2080002332464946E4
:10232000384600F071FA8046B8F1000F04D04046FC
:1023300001F0ABFD824609E0208800EB46002080DA
:1023400004E04FF0030A01E04FF0030A5046BDE8F5
:10235000F0872DE9F04104460E464FF00008308822
:10236000052810D160780702A078074301231A4698
:102370003946E01C00F048FA054635B1284601F020
:1023800084FD804601E04FF003084046BDE8F0813F
:102390002DE9F04704460E464FF0000A3088062823
:1023A00026DB60784FEA0028A07840EA0808E07849
:1023B00005022079054394F80590012D15DB782D51
:1023C00013DC6806000E48450FD101232A4641461A
:1023D000A01D00F019FA074627B1384601F055FD57
:1023E000824607E00520308004E04FF0030A01E058
:1023F0004FF0030A5046BDE8F08700002DE9F04792
:1024000005460C4616461F46DDF820904FF00008A2
:102410001CB1012C01DBF72C02DD4FF0020835E086
:102420001C48047005BB1C481C4908601C481D4919
:1024300008601D481D4908601D481E4908600020AD
:102440001D4908601D481E4908601E481E49086055
:102450001E481F4908604B463A4631460D480078F1
:1024600000F0D8F8804602E04FF0020800BF00BF3D
:10247000B8F1000F0AD103F01BFB10B94FF00308AD
:1024800004E0144805700120134908704046BDE877
:10249000F0870000F8000020CD270108000100208F
:1024A000F1270108040100201D270108FC0000207D
:1024B0006D260108080100200C010020795B01084D
:1024C00010010020E15C010814010020555C0108A6
:1024D00018010020F9000020FA00002038B500257E
:1024E0004148007808B1062038BD684603F0CEFAAE
:1024F000012877D19DF8000030B1012805D00228CD
:1025000018D003286DD16BE06BE0384A3849394860
:10251000394B1B68984705465DB9364800783749FE
:102520000978884202D03348007810B9022003F0BD
:10253000C7FA56E02E48006800783149087001203B
:1025400030490870002417E02F4810F8340000B913
:1025500014E02D4810F834002949097888420AD13E
:10256000294800EBC400214942682148006890478F
:102570002449087002E0641C102CE5DB00BF1D48F4
:10258000007858B31F480078C8B100201749088068
:102590001B48007840F08001144802880088401CE5
:1025A000124B188012480068815416480278184669
:1025B00001880088401C18800D4800684254134868
:1025C0000078012800D100BF084802880848016847
:1025D0000A4800780E4B1B689847054601E001E069
:1025E00000BF00BF00207FE7FA000020AA01002002
:1025F000A4010020A801002008010020F80000200C
:10260000A9010020AC01002024010020F9000020D5
:10261000FC0000202DE9F04781460E4614461F4677
:102620004FF0000802F096FC3B4608222146304657
:1026300003F05EFA012802D04FF003080FE0B4F572
:10264000964F01D9232503E060000749B1FBF0F55F
:10265000A8B203F06DFA012801D04FF0030802F090
:10266000C3FC4046BDE8F087A07F17002DE9F0418C
:1026700004460D461646002702F06CFC12480088FE
:10268000FF2800DC04E09C2210A119A0FDF7F6FE53
:102690000D480088042810DB0B4801881E4802F012
:1026A00031FA50B91C480078207007480088C01ED5
:1026B00030801948401C286000E0052702F094FC97
:1026C0003846BDE8F0810000DE0100202E2E5C546B
:1026D000686972645F50617274795C4D6F64627591
:1026E000735C7274755C6D627274752E63000000A9
:1026F0007573526376427566666572506F73203CDF
:10270000204D425F5345525F5044555F53495A45EF
:102710005F4D415800000000A00300202DE9F0416A
:1027200005460E4617464FF0000802F013FC2248FB
:102730000078012838D1701E204908600120204906
:1027400008801E48006805700846008838440880E4
:10275000084601881948006802F0D4F9044618496F
:102760000888411C164B198016490C542212194630
:102770000888411C198013490A5401201249087025
:102780000121002002F082FB0C490968087803F05F
:10279000C3F90A480068401C0849086008480088D6
:1027A000401E0749088001E04FF0050802F01CFCBC
:1027B0004046BDE8F0810000D5010020D80100208E
:1027C000DC010020A0030020D401002010B502F09D
:1027D000C1FB0020054908700021012002F056FBD2
:1027E00002F0A4FB02F000FC10BD0000D5010020A7
:1027F00010B502F0AFFB0021084602F047FB02F0E3
:1028000081FB02F0F1FB10BD2DE9F04107460C46BB
:1028100015469846B8F1000F07D1E9B2E0B2084A70
:1028200013683A469847064606E0E9B2E0B2044A21
:1028300053683A46984706463046BDE8F0810000A6
:10284000B00100208A68002A01DCFEF7DDB8521EC4
:102850008A604A68C0B2531C4B6010707047000019
:1028600030B502460B46164C002145F25550154D29
:10287000286000BF1348C06800F00101601E041EFC
:1028800001D00029F6D109B1002030BD0D484360C8
:102890000B4C00BF0B48C06800F00201601E041E14
:1028A00001D00029F6D109B10020EEE7C2F30B00F8
:1028B000044DA8604AF6AA2028600120E5E7000040
:1028C000FFFF0F00003000404AF6AA2001490860CF
:1028D00070470000003000404CF6CC4001490860D1
:1028E0007047000000300040002001490860704738
:1028F0000030004045F25550014908607047000023
:10290000003000408AB000BF00200790089005907A
:102910000690039004900190029000F093FB00F069
:1029200051FB00F06BFBFA498868804700F0020019
:1029300068B94FF00109002507E005EB4501F54AAC
:1029400002EB8100FFF790FB6D1C062DF5DBDDE14E
:1029500000F058FB064600F039FB804600F076FB9D
:102960000746FEF73FFE044606F0010018B10120BD
:10297000E949087002E00020E749087006F002000B
:1029800018B10120E449C87002E00020E249C87093
:1029900006F0040018B10120DF49087102E00020B0
:1029A000DD49087104F0040018B10120DA4988708B
:1029B00002E00020D849887004F0200018B10120FE
:1029C000D549487002E00020D349487004F4004023
:1029D00018B10120D049487102E00020CE49487169
:1029E00008F0010018B101208DF80C0002E0002071
:1029F0008DF80C0008F0020018B101208DF81000CD
:102A000002E000208DF8100004F0020018B101204F
:102A10008DF80E0002E000208DF80E0004F010008A
:102A200018B101208DF80F0002E000208DF80F0092
:102A300004F0400018B101208DF80D0002E00020E4
:102A40008DF80D0004F4804018B101208DF81100BC
:102A500002E000208DF8110007F0010018B10120FC
:102A60008DF81C0002E000208DF81C009DF81C0071
:102A70009DF8141009B9012100E00021084048B96F
:102A80009DF80C009DF8041009B9012100E0002117
:102A90000840A0B14FF0FF31A048006803F0F2FCFD
:102AA0009FA0006800900221684602F011F8002300
:102AB0001A4619469948006803F02EFB00BF07F03C
:102AC000020018B101208DF8200002E000208DF8EE
:102AD00020009DF820009DF8181009B9012100E0A0
:102AE0000021084048B99DF810009DF8081009B968
:102AF000012100E000210840A0B14FF0FF318748DC
:102B0000006803F0BFFC87A00068009002216846BF
:102B100001F0DEFF00231A4619468048006803F0E2
:102B2000FBFA00BF04F4005018B101208DF8210019
:102B300002E000208DF821009DF821009DF8191079
:102B400009B9012100E000210840A0B14FF0FF3198
:102B50007248006803F096FC73A0006800900221A0
:102B6000684601F0B5FF00231A4619466B48006815
:102B700003F0D2FA00BF04F0800018B101208DF8F4
:102B80001D0002E000208DF81D009DF81D009DF83D
:102B9000151009B9012100E00021084048B99DF84D
:102BA0000D009DF8051009B9012100E00021084041
:102BB000A0B14FF0FF315948006803F063FC5BA0FF
:102BC000006800900221684601F082FF00231A4647
:102BD00019465248006803F09FFA00BF04F008004D
:102BE00018B101208DF81F0002E000208DF81F00B1
:102BF0009DF81F009DF8171009B9012100E0002180
:102C0000084048B99DF80F009DF8071009B9012147
:102C100000E000210840A0B14FF0FF313F480068BC
:102C200003F030FC42A0006800900221684601F0E9
:102C30004FFF00231A4619463848006803F06CFA23
:102C400000BF04F0010018B101208DF81E0002E061
:102C500000208DF81E009DF81E009DF8161009B981
:102C6000012100E00021084048B99DF80E009DF8C0
:102C7000061009B9012100E000210840A0B14FF081
:102C8000FF312648006803F0FDFB2AA00068009091
:102C90000221684601F01CFF00231A4619461F480E
:102CA000006803F039FA00BF002527E0B9F1000FF2
:102CB0001BD002F04FF905EB450CDFF87CA0D444A3
:102CC0009CF8023005EB450C1AF80C2005EB450C7E
:102CD000D4449CF8011005EB450CDFF838A00AEB52
:102CE0008C0002F057FE02F07FF907A8405D05A9AD
:102CF000485503A8405D01A948556D1C062DD5DB3C
:102D000000BF322109A803F021FD00BF20E600002A
:102D10007C0300205C02002018000020140000202A
:102D2000EE010000EE050000EE060000EE020000DD
:102D3000EE040000EE0300000000002010B501F0DA
:102D4000A1FEFEF71BFCFEF73DFD00F063FAFEF767
:102D5000E9FEFFF733F8074807490860074888602D
:102D600008688047012003F0FBF805490860FEF77A
:102D7000ADFA10BD154501087C0300201D45010872
:102D8000140000201CB500240FE01E4800EB840056
:102D90000A21CDE900101C4800EB44134FF4806277
:102DA0001AA11B4803F09EFC641C062CEDDB0020DE
:102DB0000A2103468022CDE9001016A1184803F02D
:102DC00091FC00200A2103468022CDE9001015A1C4
:102DD000194803F087FC00200A2103468022CDE930
:102DE000001016A1194803F07DFC00200A210346BB
:102DF0008022CDE9001016A1184803F073FC02F000
:102E000079FB1CBD88030020A402002061626300DE
:102E10008D460108646F675F6665656400000000A9
:102E2000614601087461736B5F6761726261676517
:102E30005F64657400000000052901087461736B0C
:102E40005F757365725F6C65640000009D4D0108DD
:102E50007461736B5F6D6F64627573009D30010800
:102E60004161704701617047F0B504461646002580
:102E7000002201F00F0501F0100747B1042E05D123
:102E800045F00305E76B1F43E76300E0354300208F
:102E90001EE0012787401F40C7B122684FEA800C1F
:102EA0000F2707FA0CF7BA43870005FA07F73A43EA
:102EB000282904D1012787401F40676105E0482980
:102EC00003D1012787401F4027612260471CB8B209
:102ED0000828DED3082022E0012787401F40E7B101
:102EE0006268A0F108074FEA870C0F2707FA0CF772
:102EF000BA43A0F10807BF0005FA07F73A432829AB
:102F000004D1012787401F40676105E0482903D1AC
:102F1000012787401F4027616260471CB8B2102814
:102F2000DAD3F0BD02469068084008B1012070472E
:102F30000020FCE7F0B50A4600230024002100250C
:102F400000F00046B6F1004F02D11D4EF16901E0DC
:102F50001B4E7168C0F3034583B200F44016B6F50A
:102F6000401F08D121F0E061154E766826F0E0663A
:102F7000134F7E6012E000F48016B6F5801F06D174
:102F8000032606FA05F4A14341F0E06106E0460D90
:102F9000360103FA06F6B14341F0E06122B1460D75
:102FA000360103FA06F6314300F00046B6F1004F51
:102FB00002D1034EF16101E0014E7160F0BD0000ED
:102FC0000000014010B5FEF7C9FF10BD10B5002488
:102FD0004FF400510748FFF7A5FF08B944F001047A
:102FE00010210548FFF79EFF08B944F0020420466F
:102FF00010BD0000001001400008014010B5FEF7B0
:10300000D1FF10BD10B500244FF400410B48FFF76D
:1030100089FF08B944F001044FF480610848FFF7C4
:1030200081FF08B944F0020480210448FFF77AFFC9
:1030300008B944F00404204610BD00000008014017
:10304000000C014010B5FEF7EBFF10BD10B50024D9
:103050004FF480410748FFF765FF08B944F00104C9
:1030600020210548FFF75EFF08B944F0020420461E
:1030700010BD000000100140000801404FF44070F6
:1030800000F05CF9012080F3108800BFFEF7C6FE57
:10309000FFF754FEFFF776FE00BFFEE704E0FEF701
:1030A00033F9012002F0B6F8F9E710B5044604B987
:1030B00010BD204600F0CFF8E1686068FFF7D0FE51
:1030C0002169A068FFF7CEFE0220207500BFEFE760
:1030D0002DE9F041044600250026A846002737497F
:1030E00001EB441000F0B7F80A2002F093F83349DE
:1030F00001EB441000F09CF84FF4FA7002F08AF8EB
:1031000016E0C82D00DB14E0E0B2FEF703FD064632
:103110002A4800EB4410C08A0A30B04202DD681C25
:10312000C5B202E00DB1681EC5B20A2002F072F805
:10313000E7E700BF4FF4FA7002F06CF81F4901EBAB
:10314000441000F088F80A2002F064F81B4901EBF3
:103150004410FFF7AAFF00254FF4FA7002F05AF866
:103160001AE0C82D00DB18E0E0B2FEF7D3FC0646FB
:10317000642E05DBB0447F1C5DB1681EC5B208E05B
:103180000E4800EB4410C08A0A30B04201DD681CD2
:10319000C5B20A2002F03EF8E3E700BF2FB1B8FB4A
:1031A000F7F0064901EB44110883044901EB441090
:1031B00000F051F80120BDE8F0810000A4020020D9
:1031C00010B50446208801F0E9F8608801F0E6F8BF
:1031D000A07E012807D14FF4C06001F0DFF8012183
:1031E0000B48FFF7A7FEE1686068FFF739FE216929
:1031F000A068FFF735FE01221021E3686068FFF741
:1032000033FE012210212369A068FFF72DFE10BDB7
:103210000002300010B5002405E0044901EB441021
:10322000FFF7CEFF641C062CF7DB10BDA4020020C4
:1032300010B5044604B910BD204600F00CF8216911
:10324000A068FFF70DFEE1686068FFF70BFE012044
:10325000207500BFEFE710B5044604B910BDE16862
:103260006068FFF7FDFD2169A068FFF7F9FD002008
:10327000207500BFF2E700002DE9F04103460D463E
:10328000164600240027A0462A48006800F4E060A3
:10329000B0F5E06F03D100BF4FF0040830E02548DF
:1032A000006800F4E060B0F5C06F03D101274FF073
:1032B000030825E01F48006800F4E060B0F5A06F47
:1032C00002D10227B8461BE01A48006800F4E0600B
:1032D000B0F5806F03D103274FF0010810E01548C7
:1032E000006800F4E060B0F5407F03D104274FF0A0
:1032F000000805E04FF4A06000F020F80227B8466F
:10330000C7F1040005FA00F4C8F104010F20C84019
:103310003040044324010848C45403F01F01012035
:1033200088405911890001F1E021C1F80001BDE890
:10333000F08100000CED00E000E400E002490143F0
:10334000024A1160704700000000FA050CED00E031
:103350002DE9F04105460E462648076826480068D4
:10336000001D01F04FFD50B92348006890F82C1063
:103370000120884021490968814320480160681C78
:10338000D8B9D6B11E4948681B49096888601A49EE
:1033900082680968CA6018490968091D8268516015
:1033A00015490968091D8160154A134909684A6170
:1033B00011460968491C11601AE07C190E48006822
:1033C0004460BC4207D20C480168091D0D480068E2
:1033D00001F042FD0CE008480168091D0A48006838
:1033E00001F03AFD09480068844201D207480460B0
:1033F000BDE8F0811C02002008020020200200200D
:1034000010800020100200200C0200203802002052
:1034100010B5044601F09EFD2F480068401C2E495F
:1034200008602E48006840B92C48046008460068CF
:1034300001280DD100F004FA0AE02948006838B9E3
:1034400026480068C06AE16A884201D823480460BF
:1034500024480068401C2349086094F82C1001207F
:1034600088402149096808431F490860E16A01EB67
:1034700081011E4A02EB81014868A0608268E26017
:10348000211D826851608160E16A01EB8101174A68
:1034900002EB81026261E16A01EB8101134A52F899
:1034A0002110491CE26A02EB8202104B43F8221001
:1034B00001F09AFD0A48006868B108480068C06ACF
:1034C000E16A884207D24FF0805009490860BFF393
:1034D0004F8FBFF36F8F10BD18020020080200202D
:1034E000240200203402002020020020407D002021
:1034F00004ED00E010B501F02DFD10480068D0B9D2
:103500000F4801F099FC0F4801F096FC0C480E4959
:1035100008600C480D490860002210210A2002F0C2
:1035200031FD064908600846006820B108A103483B
:10353000006801F001FE01F057FD10BD50020020AF
:103540002480002038800020480200204C02002007
:10355000546D72510000000010B516E001F0FAFC45
:103560000C48C068C468201D01F04CFC0A48006883
:10357000401E0949086009480068401E0749086064
:1035800001F032FD204600F05FF804480068002892
:10359000E4D110BDFC7F002018020020140200209E
:1035A00070B504460D46206C70B1216CE068014492
:1035B000E160D4E90210884201D32168E160284625
:1035C000226CE168FCF79AFF70BD2DE9F0410446DA
:1035D0000F4615464FF00008A66B206C48B92068CE
:1035E00000282CD1A06803F0A3FB80460020A06037
:1035F00025E07DB93946226C6068FCF77FFF216CBD
:10360000606808446060D4E90101884217D32068EB
:10361000606014E03946226CE068FCF76FFF216CB3
:10362000E068411AE1602168E068884203D2216CB9
:10363000A068411AE160022D01D106B1761E701C0E
:10364000A0634046BDE8F08110B50446206B01F050
:1036500009FD204601F006FD10BD01464A6A22B16F
:103660000A6B1268C2F1200000E0002070470000E1
:103670000146084A126812680AB9012200E00022D5
:103680000A600A6822B9034A1268D268106800E02A
:10369000002070474802002030B54FF4F043154831
:1036A00000F007042CB1C01D20F00700114C041BD2
:1036B0001B1B0246104C226000240F4D6C60D0187A
:1036C000083820F007000D4C206000240B4D2D68B9
:1036D0006C600A4D2D682C601146441A4C60074CF2
:1036E00024680C60064D4C682C60064D4C682C60BC
:1036F00030BD0000A0040020E0010020E80100200F
:10370000F0010020EC01002000BFFFF725FFFCE7DF
:1037100010B5044654B10020A06020600021E16093
:1037200000231A461946204602F0F6FC10BD2DE98A
:10373000F04106460D4617469846069C0DB9246092
:1037400000E02760E66325640121204602F064FC66
:103750000020A064BDE8F0812DE9FF5F81460F469F
:103760009246DDE90E6B109CAAF10100216B01EB82
:10377000800828F0070808F0070008B9012000E0D9
:10378000002028B940F25D321FA129A0FCF7D0FD2E
:103790007FB1002507E0795D04F134004155785D83
:1037A00000B902E06D1C102DF5D300BF00214320AD
:1037B0000155202E01D2012000E0002028B940F25E
:1037C000923211A11AA0FCF7B3FD202E00D31F26C0
:1037D000E6626664201D01F03CFB04F1180001F074
:1037E00038FB2461C6F12000A0616462494640466E
:1037F000039A00F031FC2060BBF1000F01D0CBF840
:103800000040BDE8FF9F00002E2E5C546869726482
:103810005F50617274795C4672656552544F535CB7
:10382000736F757263655C7461736B732E630000F4
:103830004572726F723A25732C2025640D0A0000C0
:1038400010B5002407E004EB84010F4A02EB81006D
:1038500001F0F2FA641C202CF5D30C4801F0ECFACC
:103860000B4801F0E9FA0B4801F0E6FA0A4801F0CA
:10387000E3FA0A4801F0E0FA0448094908600448FC
:103880000849086010BD0000407D0020C07F002076
:10389000D47F0020E87F0020FC7F002010800020E3
:1038A0000C0200201002002010B50146164800E06E
:1038B000006803688B42FBD30246436813448B4283
:1038C00004D143684C682344436001460A464B6870
:1038D00013440468A34211D10C4C03682468A3422A
:1038E00008D04B680468646823444B6003681B6815
:1038F0000B6005E0054B1B680B6001E003680B6083
:10390000884200D0016010BDE0010020E8010020E5
:103910002DE9F04104460D4616461F464FF00008BB
:1039200065602461B5420CD8F01BA169884202D3BE
:103930004FF0010811E0211D0948006801F08CFAE0
:103940000BE0BE4204D2BD4202D34FF0010804E0B6
:10395000211D0448006801F07FFA4046BDE8F0816F
:103960004C0200204802002070B5054601F0F2FA32
:10397000A86B08B9012400E0002401F035FB2046C3
:1039800070BD70B5054601F0E5FAA86BE96B884299
:1039900001D1012400E0002401F026FB204670BD87
:1039A000F1B50098846C00262CB940F6E33223A1CF
:1039B0002CA0FCF7BDFCA06BE16B884201D201207A
:1039C00000E0002028B940F6E4321CA125A0FCF755
:1039D000AFFCA06BE16B88422DD294F945500022D8
:1039E00069462046FFF7F1FD0646681C60B9606A2B
:1039F00008B9012000E00020E0B904F1240003F040
:103A000097FAB8B1012615E001F010FA0746BD4259
:103A10000FD27F2D01D0012000E0002028B940F610
:103A2000044206A10FA0FCF783FC681C40B284F896
:103A3000450000BF00BF3046F8BD00002E2E5C548C
:103A4000686972645F50617274795C467265655230
:103A5000544F535C736F757263655C717565756502
:103A60002E6300004572726F723A25732C20256414
:103A70000D0A000070B505460E460E480068C06885
:103A8000C468201D01F0BEF994F8240000F0040081
:103A900028B132462946204600F000F905E094F8A6
:103AA000240000F0FE0084F824002046216A8847A4
:103AB00070BD00004802002070B586B08AE0029810
:103AC00000280CDA03AE2EB940F20B3247A151A008
:103AD000FCF72EFCD6E90020B168904700BF0298A1
:103AE000002877DB049C606908B9012000E0002011
:103AF00010B9201D01F086F901A800F0FBF8054679
:103B000002980A2864D2DFE800F06305072E3653D6
:103B100006082F3700BF00BF00BF94F8240040F014
:103B2000010084F824000398A269811803462A46FC
:103B30002046FFF7EDFEA8B194F8240000F0040041
:103B400038B10398A26981182A46204600F0A6F8E9
:103B500005E094F8240000F0FE0084F824002046DC
:103B6000216A884735E000BF94F8240000F0FE0089
:103B700084F824002DE000BF94F8240040F00100F8
:103B800084F824000398A061A06908B1012000E036
:103B9000002028B940F25E3214A11EA0FCF7C8FB39
:103BA000A06941192B462A462046FFF7B1FE10E0D6
:103BB00094F8240000F0020018B9204601F052FAEF
:103BC00005E094F8240000F0FE0084F8240000E0F2
:103BD00000BF00BF002202A91248006802F090FB5B
:103BE00000287FF46CAF06B070BD00002E2E5C5430
:103BF000686972645F50617274795C46726565527F
:103C0000544F535C736F757263655C74696D657254
:103C1000732E63004572726F723A25732C202564EF
:103C20000D0A000050020020F8B505460C4601F0D0
:103C3000C5FC684600F05EF80646009820BB44B913
:103C4000B54206D803F01CFA31462846FFF712FFAA
:103C50001CE03CB10E480068006808B9012000E093
:103C600000200446A91B22460A48006801F0ACFA6D
:103C700003F006FA50B94FF0805007490860BFF3CF
:103C80004F8FBFF36F8F01E003F0FAF9F8BD00002A
:103C90004C0200205002002004ED00E070B5044604
:103CA0000D46164604E0A06905442046216A88476F
:103CB000A06941192B4632462046FFF729FE00280D
:103CC000F1D170BD09480068006808B9012000E022
:103CD000002020B14FF0FF300549086005E003489F
:103CE0000068C06800680249086070470C02002044
:103CF0003802002070B5044602F01EFF0546074852
:103D00000068854204D200F00BF80120206001E039
:103D10000020206001480560284670BD5802002040
:103D200070B508E00D480068C06804684FF0FF31C6
:103D30002046FFF79FFE09480068006808B9012087
:103D400000E000200028EDD0044805680448006821
:103D5000024908600248056070BD0000480200206A
:103D60004C0200200B480068401C08B9012000E00C
:103D7000002020B9EC2208A115A0FCF7D9FA00BF59
:103D8000502080F31188BFF34F8FBFF36F8F00BFB8
:103D900000BFFEE7FC0100202E2E5C5468697264AF
:103DA0005F50617274795C4672656552544F535C22
:103DB000706F727461626C655C525644535C415220
:103DC0004D5F434D34465C706F72742E630000008B
:103DD0004572726F723A25732C2025640D0A00001B
:103DE00008B500BF6846FFF743FC0446204600992B
:103DF000FFF71AFFFFF760FEF4E770B5044601F025
:103E0000A9F894F9455019E0A06C30B12046FFF7AD
:103E1000C7FD88B101F04EFA0EE0606A08B90120D2
:103E200000E0002038B904F1240003F081F818B153
:103E300001F040FA00E003E0681E45B2002DE3DC2B
:103E400000BFFF2084F8450001F0CEF801F082F8B1
:103E500094F9445010E0206908B9012000E00020E6
:103E600048B904F1100003F063F808B101F022FA38
:103E7000681E45B200E001E0002DECDC00BFFF2031
:103E800084F8440001F0B0F870BD014621B1012969
:103E900004D0072906D103E0002005E0022003E05A
:103EA000062001E0042000BF00BF704710B50248A3
:103EB0000068804710BD00001801002010B50248BE
:103EC0000068804710BD00001001002010B50248B6
:103ED0000068804710BD0000140100202DE9F04764
:103EE00005464FF0000901F069FB3D48006808B93C
:103EF000FFF7D2FB75B105F00700C0F11008C8F15B
:103F0000FF30A84201D2012000E0002008B945445A
:103F100000E00025012000EBE57000284DD0002DC9
:103F20004BD030480068854247D82F4E3046046851
:103F300001E0264624686068A84202D22068002872
:103F4000F7D127480068844237D0306800F108096B
:103F5000206830606068401B102813D9671907F08B
:103F6000070008B9012000E0002020B9DC221FA1D1
:103F70002BA0FCF7DDF96068401B7860656038466F
:103F8000FFF792FC174960680968081A154908602C
:103F90000846006826490968884203D2114800682B
:103FA00023490860606840F00040606000202060A5
:103FB00020480068401C1F49086003F061F809F0C0
:103FC000070008B9012000E0002028B94FF48E72E4
:103FD00006A113A0FCF7ACF94846BDE8F087000045
:103FE000E8010020EC010020E00100202E2E5C54AE
:103FF000686972645F50617274795C46726565527B
:10400000544F535C706F727461626C655C4D656D8A
:104010004D616E675C686561705F342E63000000FF
:104020004572726F723A25732C2025640D0A0000C8
:10403000F0010020F40100200648006830B1054975
:10404000096801F14800896C491C01600148006859
:104050007047000008020020001F4FF080730360CB
:10406000001F21F001030360001F054B036014389B
:104070000260001F6FF002030360203870470000E9
:10408000653D0108184B5968184B1940164BDA6A00
:1040900022F000520C2820D2DFE800F006070809C1
:1040A0001F0C1F0D1516171800BF00BF00BF41EAF7
:1040B000803113E000BF20F004004FF0805343EA4A
:1040C000803319430AE000BF00BF00BF20F00C009E
:1040D00041EA803142F0005200E000BF00BF024BD5
:1040E0005960DA627047000000100240FF3FFFEFA6
:1040F0002DE9F04F8CB0074600200A904AA090E8C6
:10410000004CC068CDE905BECDF810A007900FF2B5
:104110001C1ADAE9000ACDE9020A0FF2101ADAE9EC
:10412000000ACDE9000A44484068C0F381000B90C2
:104130000B9820B1012804D002283FD103E03F4A68
:104140003EE03E4A3CE03C48406800F4803CBCF520
:10415000803F12D13848C06A00F08048B8F1000FA3
:1041600001D1364B00E0364B3348406800F400394B
:10417000B9F5003F02D15B0800E0324B2E484068A1
:10418000C0F383412C48406800F0006008B141F062
:1041900010012948406800F0804008B141F020013A
:1041A0000F2901D2891C06E00F2903D33E2901D82B
:1041B000491C00E03F2103FB01F201E01F4A00BF60
:1041C00000BF1D484068C0F3031504A8465D22FAED
:1041D00006F419484068C0F3022502A8465D24FA97
:1041E00006F0099014484068C0F3C2251DF8056028
:1041F00024FA06F0089037B1012F06D0022F06D01E
:10420000032F0AD106E00A9208E00A9406E0099812
:104210000A9003E008980A9000E000BF00BF0A98E7
:104220000CB0BDE8F08F00000000000000000000AE
:1042300001020304060708090010024000127A0078
:10424000006CDC0200093D000146074A02EB9110B8
:10425000006801F01F0301229A40104008B10120BC
:1042600070470020FCE7000000100240064A02EB05
:104270009011096800F01F0301229A401143024B7C
:1042800003EB90121160704700100240F0B5064633
:10429000002400270025B6F5006F20D005DC8EB382
:1042A000102E0BD0182E73D161E0B6F5106F4CD0E4
:1042B000A6F54050103800286AD134E004E01120FF
:1042C000FFF7C2FF0546641C1DB94FF6FF7084421C
:1042D000F5D11120FFF7B8FF00B1012759E005E043
:1042E00040F60100FFF7B0FF0546641C1DB96FF0F2
:1042F0007C408442F4D140F60100FFF7A5FF00B1F5
:10430000012746E0FFE704E00120FFF79DFF054697
:10431000641C15B9B4F5A06FF6D10120FFF794FF26
:1043200000B1012735E005E043F21100FFF78CFFF3
:104330000546641C15B918488442F5D143F21100B2
:10434000FFF782FF00B1012723E005E040F60110EE
:10435000FFF77AFF0546641C15B90F488442F5D172
:1043600040F60110FFF770FF00B1012711E004E0F3
:104370001920FFF769FF0546641C15B906488442F9
:10438000F6D11920FFF760FF00B1012701E0FFE738
:1043900000BF00BF3846F0BDFFFF0F00064A02EB2A
:1043A0009011096800F01F0301229A401143024B4B
:1043B00003EB90121160704700100240064A02EBB6
:1043C0009011096800F01F0301229A409143024BAB
:1043D00003EB90121160704700100240064A02EB96
:1043E0009011096800F01F0301229A401143024B0B
:1043F00003EB90121160704700100240024600214A
:10440000002007E0074B03EB40135B7F83400B4426
:10441000D9B2401C0628F5DB081240EA01201080C2
:1044200070470000A402002002460021002007E09F
:10443000074B03EB40139B7F83400B44D9B2401CD6
:104440000628F5DB081240EA0120108070470000C2
:10445000A402002030B50022028000BF05E00488DD
:10446000064DAD5C2C430480521C062AF7DB014646
:104470000B784A780A704B7030BD0000180000209D
:10448000F0B5002202800023002400BF12E00F4E8E
:1044900006EB4216367FC2F10507BE401E44F3B25A
:1044A0000A4E06EB4216F67EC2F10507BE402644D0
:1044B000F4B2521C062AEADB04EB03220280014616
:1044C0000D784A780A704D70F0BD0000A4020020FB
:1044D00000BE704710B540F20460FFF75FFF40F286
:1044E0000460FFF75BFF02210948FEF7BBFC0121D6
:1044F0000748FEF7B7FC0223032204210448FEF715
:10450000B3FC0123032204210148FEF7ADFC10BDDA
:104510000010014010B5FFF7DDFF10BD10B50024FD
:1045200002210748FEF7FEFC08B944F0010401210E
:104530000348FEF7F7FC08B944F00204204610BD1A
:1045400000100140002000213F4A126842F48032EE
:104550003D4B1A6000BF401C3B4A126802F4003118
:1045600019B94FF6FF729042F5D1374A126802F43A
:1045700000320AB900BFFEE7334AD26942F08052E6
:10458000314BDA61314A126842F440422F4B1A60D3
:104590002D4A52682C4B5A601A4652685A601A4685
:1045A000526842F480625A601A46526822F44032DD
:1045B0005A601A46526842F440325A601A465268AB
:1045C000234B1A40204B5A601A465268214B1A431B
:1045D0001D4B5A601A46126842F080721A6000BF82
:1045E000194A126802F00072002AF9D0174A1268BC
:1045F00042F48032154B1A6000BF144A526802F42C
:104600008032002AF9D0114A126842F400320F4B6E
:104610001A6000BF0D4A526802F40032002AF9D035
:10462000094A526822F00302074B5A601A46526840
:1046300042F002025A6000BF034A526802F00802C8
:10464000002AF9D0704700000010024000700040BE
:10465000FFFFC3B70000340810B5FFF773FF10BDAC
:1046600008B501F0FAF902F067FA009000BF0BE01C
:10467000FEF740F9FEF728F9FEF736F900BF0A21E8
:10468000684602F063F800BFF2E700001CB505467B
:104690002E46B47E01270020019080468FE04FF027
:1046A000FF3001AB0246C1000090002002F0B6F9D5
:1046B000074607B983E0019800F00700012841D0C0
:1046C000022802D0042877D157E03046FEF7C3FD18
:1046D0003046FEF7EAFC4FF4FA7000F09BFD3046DE
:1046E00000F0D2FF80463046FEF7B5FDB8F1FF3F3F
:1046F0001DD14FF0FF313248006801F0C3FE31A0F8
:1047000000680090601CC0B28DF80100022168466C
:1047100000F0DEF900231A4619462948006801F026
:10472000FBFC0120284901EB4411887704E00120BB
:10473000254901EB4411C8760020234901EB4411BF
:1047400008773AE03046FEF786FD3046FEF770FD0A
:104750004FF4FA7000F05EFD304601F019F80120C8
:10476000194901EB441108770020174901EB441166
:10477000C8763046FEF76FFD1FE0134800EB44108B
:10478000407FB8B92046FEF7A3FC98B101200E493E
:1047900001EB4411C87600200B4901EB4411087766
:1047A0000120094901EB441148770020064901EB3B
:1047B0004411887701E0FFE700BF00BF00BF6EE74C
:1047C000140000200E000000A40200204162704787
:1047D00010B504465C49601A8C426FD019DC5B4905
:1047E000A4EB01008C424ED009DCB4F1804F2ED0F6
:1047F00057482044A0B3B0F5806F72D13AE0B0F5CD
:10480000806F49D0B0F5006F4FD0B0F5406FF4D154
:104810007BE0B0F5983F5BD009DCB0F5806F73D0DA
:10482000B0F5883F0AD0B0F58C3F5AD147E0B0F5DB
:104830009A3F57D0B0F59C3F53D15CE040F20B302B
:10484000FFF7CCFD40F20B30FFF7B8FD79E04FF4F5
:104850008060FFF7C3FD4FF48060FFF7AFFD70E0AD
:10486000FFE740F20140FFF7B9FD40F20140FFF7DA
:10487000A5FD66E040F20240FFF7B0FD40F20240C5
:10488000FFF79CFD5DE040F20340FFF7A7FD40F21B
:104890000340FFF793FD54E040F20440FFF79EFD14
:1048A00040F20440FFF78AFD4BE040F20540FFF77D
:1048B00095FD40F20540FFF781FD42E02EE040F219
:1048C0000D30FFF78BFD40F20D30FFF777FD38E03C
:1048D00040F21330FFF782FD40F21330FFF76EFD18
:1048E0002FE02DE04FF44570FFF778FD4FF4457051
:1048F000FFF764FD25E040F21530FFF76FFD40F251
:104900001530FFF75BFD1CE011E040F20640FFF7B9
:1049100065FD40F20640FFF751FD12E040F207400E
:10492000FFF75CFD40F20740FFF748FD09E04FF458
:104930008160FFF753FD4FF48160FFF73FFD00E01A
:1049400000BF00BF10BD0000001C0040000C004074
:1049500000FCFFBF016821F00101016070470168A0
:1049600041F00101016070470A8882621D4A90424D
:104970000ED0B0F1804F0BD01B4A904208D01B4A9A
:10498000904205D01A4A904202D01A4A90420BD166
:10499000026822F07002026002684B881A430260CB
:1049A00002688B881A4302608A68C262124A904287
:1049B0000AD0124A904207D0026822F44072026084
:1049C0000268CB881A430260064A904202D0094A24
:1049D000904201D10A7B0263426942F001024261C6
:1049E00070470000002C0140000400400008004017
:1049F000000C004000340140001000400014004052
:104A0000C2688A43C2607047C2680A43C260704786
:104A1000CA43026170470246D06800EA0103106988
:104A2000084010B10BB1012070470020FCE70021C5
:104A30000180418081804FF6FF7181600021C1803B
:104A40000173704710B540F20460FFF7A7FC4FF404
:104A500080610B48FEF704FA4FF400610848FEF746
:104A6000FFF94FF48063032218210548FEF7FCF993
:104A70004FF40063032248210148FEF7F5F910BD09
:104A80000010014010B5FFF7DDFF40F21370FFF793
:104A900085FC0E4800F0A4F84FF4E1310B4800F01B
:104AA0004DF80021094800F05AF90021074800F0AC
:104AB00044F90021054800F02EF90821034800F0D0
:104AC00044F9024800F0D4F810BD0000004C00404A
:104AD0002DE9F04105460E462F4600240BE0395DD6
:104AE000074800F078F800BF0721054800F0C5F836
:104AF0000028F9D0641CB442F1DBBDE8F08100006D
:104B0000004C004070B502460C46FF25FF2309E02B
:104B100012F8010B80EA03010648405C80EA0503B5
:104B20000548455C201EA4F10106B4B2F0D143EA69
:104B3000052070BD10760108107701082DE9F047B7
:104B400004460D460027B846B94600261D49601A9E
:104B50008C421CD006DC1C48204470B1B0F5806F3C
:104B60001FD10FE0B0F5806F16D0B0F56C4F18D1A3
:104B70000320FFF7BDFA074614E00220FFF7B8FA5A
:104B800007460FE00220FFF7B3FA07460AE00220CB
:104B9000FFF7AEFA074605E00220FFF7A9FA07463D
:104BA00000E000BF00BF07EB5500B0FBF5F64FF685
:104BB000F07006EA000806F00F0948EA0900A06054
:104BC000BDE8F087004C004000BCFFBF01464868CC
:104BD000C0F308007047C1F308024260704700004C
:104BE00010B504462049601A8C4228D006DC1F48C4
:104BF000204490B1B0F5806F33D117E0B0F5806FED
:104C000026D0B0F56C4F2CD140F20E30FFF7E6FB0A
:104C100040F20E30FFF7D2FB24E040F21140FFF7E4
:104C2000DDFB40F21140FFF7C9FB1BE040F21240F0
:104C3000FFF7D4FB40F21240FFF7C0FB12E040F256
:104C40001340FFF7CBFB40F21340FFF7B7FB09E03F
:104C500040F21440FFF7C2FB40F21440FFF7AEFBF6
:104C600000E000BF00BF10BD004C004000BCFFBF13
:104C7000C16841F40051C160704710B5024602EBB3
:104C80009110006801F01F040123A340184008B1EF
:104C9000012010BD0020FCE710B500EB9112126856
:104CA00001F01F040123A3409A4300EB91131A6003
:104CB00010BD10B500EB9112126801F01F04012322
:104CC000A3401A4300EB91131A6010BDC1F30443D3
:104CD00001229A40D24300EB91531A60704770B59D
:104CE000024600230024C1F38910105801F01F066A
:104CF0000125B54000EA050302EB91500068C1F3BD
:104D000004460125B54000EA050414B10BB10120A9
:104D100070BD0020FCE7C26822F4C062C260C268B5
:104D20000A43C2607047C26822F00402C260C268CF
:104D300001F004031A43C2607047026922F4405232
:104D4000026102690A4302617047C26822F00802E8
:104D5000C260C26801F008031A43C2607047C268AB
:104D600022F48052C260C2680A43C26070470000E9
:104D700010B540F20460FFF711FB08210448FEF76C
:104D80006FF80823032210210148FEF76DF810BDCB
:104D90000010014010B5FFF7EBFF10BD0B480C49A8
:104DA00008600C484860086880470EE00848416881
:104DB00000208847C82000F02DFA054841680120EE
:104DC00088474FF4FA7000F025FAEFE7954D010897
:104DD00070030020D94D010810B5044614B1012C10
:104DE0000AD104E008210648FEF73AF805E0082158
:104DF0000348FEF737F800E000BF00BF10BD000019
:104E00000010014001460A69D1E901309860D1E9FA
:104E1000010358605068884201D1886850600020C2
:104E200008611068401E10601068704701480068F3
:104E3000704700001802002000F1080141604FF0A7
:104E4000FF31816000F10801C16001610021016052
:104E5000704700210161704710B502460B685C1C69
:104E60000CB9106907E002F1080000E040684468EE
:104E700024689C42FAD944684C604C68A160886000
:104E800041600A611468641C146010BD70B504466A
:104E90000D46012C0CD11A49086840F20531FFF784
:104EA00008FF0123002219460720FCF7CFFB0BE087
:104EB0001349086840F20531FFF7EEFE0123002296
:104EC00002210720FCF7C2FB012D0CD10C49086818
:104ED00040F20631FFF7EDFE0123002202210720F8
:104EE000FCF7B4FB0BE00649086840F20631FFF717
:104EF000D3FE0123002219460720FCF7A7FB70BD53
:104F0000BC01002010B500210748FFF75FFC01211C
:104F10000548FFF77DFD01210348FFF771FD0248B9
:104F2000FFF718FD10BD00000008004010B500217B
:104F30000748FFF74BFC01210548FFF769FD0121F8
:104F40000348FFF761FD0248FFF709FD10BD0000AF
:104F50000008004010B500BF502080F31188BFF357
:104F60004F8FBFF36F8F00BF0B480068401C0A498A
:104F700008600846006801280DD108480068C0B2E2
:104F800008B9012000E0002028B940F2B91204A1BC
:104F900011A0FBF7CDF910BDFC01002004ED00E0ED
:104FA0002E2E5C54686972645F50617274795C463D
:104FB00072656552544F535C706F727461626C65B8
:104FC0005C525644535C41524D5F434D34465C70D5
:104FD0006F72742E630000004572726F723A25730F
:104FE0002C2025640D0A000010B50B48006828B974
:104FF0004FF4E07209A117A0FBF79AF90648006880
:10500000401E054908600846006820B9002080F36A
:10501000118800BF00BF10BDFC0100202E2E5C5483
:10502000686972645F50617274795C46726565523A
:10503000544F535C706F727461626C655C5256447D
:10504000535C41524D5F434D34465C706F72742E19
:10505000630000004572726F723A25732C2025643C
:105060000D0A000070B506463546002E31D0083DC9
:105070002C466068C00F28B940F22F1215A122A05B
:10508000FBF756F9206808B9012000E0002028B994
:105090004FF498720FA11CA0FBF74AF96068C00F8B
:1050A000B8B12068A8B9606820F00040606000F0E6
:1050B00085FA19496068096808441749086020465C
:1050C000FEF7F2FB15480068401C1449086001F027
:1050D000D7FF70BD2E2E5C54686972645F50617298
:1050E00074795C4672656552544F535C706F72748C
:1050F00061626C655C4D656D4D616E675C68656194
:10510000705F342E630000004572726F723A25732F
:105110002C2025640D0A0000EC010020F80100207D
:1051200000204FF0E02108618861024848610720B3
:1051300008617047BFD401002DE9F04105460F46D4
:1051400000262DB940F6D82210A11AA0FBF7F0F8DE
:10515000BFB1002412E01B4800EBC4004068A84225
:1051600003D1184800EBC4060AE036B9154850F8D8
:10517000340010B9134800EBC406641C142CEAD3A5
:1051800000BF0EB137607560BDE8F0812E2E5C5413
:10519000686972645F50617274795C4672656552C9
:1051A000544F535C736F757263655C71756575659B
:1051B0002E6300004572726F723A25732C202564AD
:1051C0000D0A0000A07C00202DE9F04105460E46A6
:1051D00017462C46FFF7BEFE94F94400401C10B958
:1051E000002084F8440094F94500401C10B90020C8
:1051F00084F84500FFF7F8FEA06B28B93A4631461F
:1052000004F1240000F090F82046FEF7F6FDBDE81A
:10521000F081000070B504460025ACB10F4800686D
:1052200008B9012000E0002028B940F21C520CA16E
:1052300015A0FBF77DF800F0C1F900212046FEF72C
:1052400087F801F01DFF05463DB94FF08050124927
:105250000860BFF34F8FBFF36F8F70BD4402002013
:105260002E2E5C54686972645F50617274795C467A
:1052700072656552544F535C736F757263655C74ED
:1052800061736B732E6300004572726F723A2573FF
:105290002C2025640D0A000004ED00E00349096894
:1052A0000160034909684160704700003002002036
:1052B0001C02002001200149086070472C020020D8
:1052C00070B504460D462CB940F60E4207A111A058
:1052D000FBF72EF81348016818312046FFF7BCFD94
:1052E00001212846FEF734F870BD00002E2E5C54D4
:1052F000686972645F50617274795C467265655268
:10530000544F535C736F757263655C7461736B7338
:105310002E6300004572726F723A25732C2025644B
:105320000D0A00000802002070B504460E4615461E
:105330002CB940F6444211A11AA0FAF7F9FF6068AF
:105340001C490968C8611B49826809680A621949D1
:1053500009681831826851601649096818318160FE
:10536000144909688C622168491C21600DB14FF015
:10537000FF3629463046FDF7EBFF70BD2E2E5C54FC
:10538000686972645F50617274795C4672656552D7
:10539000544F535C736F757263655C7461736B73A8
:1053A0002E6300004572726F723A25732C202564BB
:1053B0000D0A0000080200202DE9F04706460F46BE
:1053C00034464FF00109002E70D0A06C28B941F28C
:1053D000980237A140A0FAF7ABFF606CB84201D247
:1053E0003D4600E0656CE06AA8425FD0A06C0128F1
:1053F0005CD13D480068844201D0012000E00020DB
:1054000028B941F2B3022AA133A0FAF791FFD4F8E8
:105410002C80E562A06900F0004010B9C5F12000C1
:10542000A06108EB8801314A02EB81016069884282
:1054300001D1012000E00020C0B3201DFFF7E2FCF5
:1054400040B994F82C10012088402949096881430B
:105450002748016094F82C100120884024490968ED
:10546000084323490860E16A01EB81011F4A02EB0E
:1054700081014868A0608268E260211D82685160F5
:105480008160E16A01EB8101184A02EB81026261ED
:10549000E16A01EB8101154A52F82110491CE26AC8
:1054A00002EB8202114B43F8221000BFBDE8F087E7
:1054B0002E2E5C54686972645F50617274795C4628
:1054C00072656552544F535C736F757263655C749B
:1054D00061736B732E6300004572726F723A2573AD
:1054E0002C2025640D0A000008020020407D0020C9
:1054F000200200201CB51B4800210B468022CDE96C
:10550000001019A11A4801F0EDF80446012C02D14F
:1055100001F088FE0446012C15D100BF502080F315
:105520001188BFF34F8FBFF36F8F00BF4FF0FF3075
:105530001049086001201049086000200F490860E8
:1055400000F030FC0BE0601C08B1012000E00020FE
:1055500028B940F612020AA113A0FAF7E9FE16488C
:1055600000681CBD3C02002049444C45000000007E
:105570000937010838020020240200201C02002004
:105580002E2E5C54686972645F50617274795C4657
:1055900072656552544F535C736F757263655C74CA
:1055A00061736B732E6300004572726F723A2573DC
:1055B0002C2025640D0A00004002002002480068EB
:1055C000401C0149086070474402002010B51B4888
:1055D000006818B101201A4908602DE00020184920
:1055E000086018480068B0FA80F0C0F11F0404EBAE
:1055F0008400154951F8200008B1012000E0002086
:1056000028B940F6F63211A11AA0FAF791FE04EB80
:1056100084010D4A02EB810041684968416000F154
:10562000080142688A4202D1416849684160416884
:10563000C968144A116000BF10BD00004402002078
:105640002C02002020020020407D00202E2E5C54E1
:10565000686972645F50617274795C467265655204
:10566000544F535C736F757263655C7461736B73D5
:105670002E6300004572726F723A25732C202564E8
:105680000D0A0000080200202DE9F0472DED068BE1
:105690008046002498F81A500027A14600266DE0A5
:1056A000E8B2FCF737FA374901EB4511098B471A85
:1056B000344901EB4511088B01F019FE41EC1A0B3E
:1056C0009FED310B53EC102B01F060FE41EC180BF9
:1056D000384601F0F5FD41EC190B53EC182B01F0A5
:1056E00053FF1FD2274901EB4511088B01F0FFFD45
:1056F00041EC1A0B9FED240B53EC102B01F046FEEE
:1057000041EC180B484601F0DBFD41EC190B53EC62
:10571000182B01F039FF05D2601C84B2E6B1701E6F
:1057200086B219E0174800EB4510C08A1430B84221
:105730000CDD144800EB4510C08A1430484505DDE7
:10574000701C86B244B1601E84B205E00EB1701EBA
:1057500086B20CB1601E84B2142C08DB4046FDF703
:105760007AFD4FF0FF30BDEC068BBDE8F087C82E08
:1057700000DB04E0B9460A20FFF74CFD90E700BFCC
:105780000020F0E7A4020020333333333333C33F28
:105790002DE9F04106464FF00008B47E00270025B1
:1057A00022E0E0B2FCF7B6F9124901EB4411098B93
:1057B000471A104800EB4410C08A0A30B84209DD8D
:1057C0000C4800EB4410C08A0A30404502DD681CDA
:1057D00085B202E00DB1681E85B2C82D00DB04E081
:1057E000B8460A20FFF716FDDBE700BF0020BDE842
:1057F000F0810000A402002008490968002900DAAD
:105800007047074A054B1B6802EB431250774FF075
:10581000FF31024A116000BFF2E7000020000020C3
:10582000A4020020411E014A1160704720000020A0
:1058300038B504462A480068002800DA38BD201F21
:10584000062845D2DFE800F003101D252E37002082
:105850002449234A0090126851F8220001231A4675
:10586000002100F0EBFF34E000201E491C4A0090AC
:10587000126851F8220001230222002100F0DEFF0D
:1058800027E01949164A126801EB4210FDF7E3FCC4
:105890001FE013490968C8B2012300221146FBF733
:1058A000D5FE16E00E490968C8B201231A46002148
:1058B000FBF7CCFE0DE000200A49094A009012686F
:1058C00051F8220001230422002100F0B7FF00E07C
:1058D00000BF00BF4FF0FF300149086000BFADE7D7
:1058E0002000002088030020A40200200849096845
:1058F000002900DA7047064A126802EB4202054BA3
:105900001A4490704FF0FF31014A116000BFF1E777
:10591000200000200000002006490968002900DA64
:105920007047044A126802EB4202034B1A4450705B
:1059300000BFF5E7200000200000002006490968AC
:10594000002900DA7047044A126802EB4202034B56
:10595000985400BFF6E7000020000020000000205F
:10596000012080F3138800BF00BFBFF34F8F0748AB
:10597000006800F4E06006490843001D0349086020
:10598000BFF34F8F00BF00BFFEE700000CED00E04B
:105990000000FA05FFB583B00646304600F030F847
:1059A00004A8009005A8019006A8029000251DE01B
:1059B000002418E0E21704EB5272D2105DF82220A6
:1059C0001278E31704EB5373DB10A4EBC3078023B7
:1059D0003B411A401AB1304600F024F802E030464C
:1059E00000F02CF8641C182CE4D36D1C102DDFDBA8
:1059F00007B0F0BD00BF011EA0F10100FBD1704750
:105A000070B50446012525B1D4E90101FDF72AFA54
:105A100003E0D4E90101FDF723FA00BF0A20FFF7F4
:105A2000E9FF70BD10B50446D4E9011048610E20AD
:105A3000FFF7E0FFD4E90110086110BD10B504467E
:105A4000D4E9011048610820FFF7D4FFD4E9011020
:105A500008610320FFF7CEFF10BD10B54FF41060B2
:105A6000FEF704FC00BF4FF41060FEF70FFC0128A6
:105A7000F9D1FCF73FFF022140F6C410FCF7F0FE1D
:105A8000FCF732FFFCF728FF10BD000001460020A4
:105A9000054A127832B1054A12780A700022024B88
:105AA0001A70012070470000B9010020B8010020E1
:105AB000002002490870012070470000B901002051
:105AC00001460120024A107002480170012070470F
:105AD000B9010020B801002010B504460349086848
