:020000040800F2
:10000000D0DB002005020008F5080008A908000858
:10001000AD080008770800082D1300080000000054
:100020000000000000000000000000004501000882
:100030007B08000800000000A10100088D090008ED
:100040001F0200081F0200081F0200081F0200080C
:100050001F0200081F0200081F0200081F020008FC
:100060001F0200081F0200081F0200081F020008EC
:100070001F0200081F0200081F0200081F020008DC
:100080001F0200081F0200081F0200081F020008CC
:100090001F0200081F0200081F0200081F020008BC
:1000A0001F0200081F0200081F0200081F020008AC
:1000B000110A0008550B0008990C00081F020008DF
:1000C0001F0200081F0200081F0200081F0200088C
:1000D0001F02000805120008B51200081F020008E0
:1000E0001F0200081F0200081F0200081F0200086C
:1000F000851000081F0200081F0200081F020008E8
:100100001F0200081F020008C10C00081F0200089F
:10011000BD1100081F020008090E00084D0F00085D
:100120001F0200081F0200081F0200081F0200082B
:10013000DFF80CD000F062FB0048004741370008B0
:10014000D0DB00202C4B19680868B0E8F04F80F332
:100150000988BFF36F8F4FF0000080F3118870475C
:100160000000000008480068006880F308884FF02D
:10017000000080F3148862B661B6BFF34F8FBFF3FF
:100180006F8F00DF00BF00BF08ED00E0DFF80C005C
:10019000016841F470010160704700BF88ED00E024
:1001A000EFF30980BFF36F8F134B1A681EF0100F27
:1001B00008BF20ED108A20E9F04F106009B44FF01D
:1001C000500080F31188BFF34F8FBFF36F8F06F09D
:1001D0008DFB4FF0000080F3118809BC1968086896
:1001E000B0E8F04F1EF0100F08BFB0EC108A80F39B
:1001F0000988BFF36F8F704770060020EFF305800A
:10020000704700000648804706480047FEE7FEE7C3
:10021000FEE7FEE7FEE7FEE7FEE7FEE7FEE7FEE7B6
:10022000950900083101000840EA01039B0703D04B
:1002300009E008C9121F08C0042AFAD203E011F825
:10024000013B00F8013B521EF9D27047D2B201E0E7
:1002500000F8012B491EFBD270470022F6E710B5CB
:1002600013460A4604461946FFF7F0FF204610BD24
:100270002DE9FE4F804681EA0300C00F0C46009036
:1002800021F0004123F00045B8EB0200A94105D25E
:100290004046214690461C460B46024623F000404D
:1002A000104347D0270DC7F30A00C3F30A51029049
:1002B000401A019040286BDAC3F3130040F4801B0E
:1002C0000098924620B10023D2EB030A63EB0B0B9C
:1002D00001985946C0F14002504600F0A0F9064688
:1002E0000D4650465946019A00F0B8F910EB080047
:1002F0006141002487EA115284EAE7731A4340D02F
:10030000009A62B3019A012A4FEA075215DC001BDA
:1003100061EB02014FF0004202EA0752CDE90042D0
:10032000001C41F5801132462B4600F0B8F903B0AD
:10033000BDE8F08F40462146F9E7001B61EB020162
:10034000001C41F5801300185B412018A2F500172E
:1003500047EB030140EAD570B6196D4111E06D0815
:100360004FEA360645EAC0754FEA0752001B61EBBB
:100370000201001C41F5801149084FEA30000019C4
:10038000514132462B4603B0BDE8F04F00F078B93A
:100390000098012240000023D0EB020263EBE073DF
:1003A000009821464FEAE074B8EB000061EB0401CD
:1003B000E9E783F000435BE781F0004158E72DE96E
:1003C000FE4F81EA030404F0004421F00041009450
:1003D0004FF0000B23F0004350EA01045ED052EAD4
:1003E00003045BD0C3F30A54C1F30A552C44A4F2AE
:1003F000F3340194A0FB0254C1F3130141F48011C2
:10040000C3F3130343F4801301FB024400FB034EC8
:10041000840A970A44EA815447EA8357A4FB076891
:1004200002958D0A05FB07854FEA932C04FB0C54BB
:100430002705029D4FEA065847EA1637B5EB08052F
:100440006EEB070C870E920E47EA811742EA831281
:10045000A7FB0201B6EB0B0164EB00042B0D43EA92
:100460000C335E1844EB1C50DA465146E7FB0201A0
:10047000C5F313044FEA0B3343EA14534FEA043233
:10048000019C43EA0603A4F10C040294009CCDE90C
:1004900000B400F004F903B0BDE8F08F002001467D
:1004A000F9E72DE9F04D81EA030404F0004B21F057
:1004B000004514464FF0000A23F0004150EA0502BF
:1004C00020D054EA01021DD0C5F30A570246C5F3F5
:1004D0001303C1F31300C1F30A5640F4801543F42B
:1004E0008013A7EB0608101BD64608F2FD3873EB05
:1004F000050002D308F1010801E092185B41B8F150
:10050000000F03DA00200146BDE8F08D00204FF413
:100510008011064684460EE0171B73EB050705D3D2
:10052000121B63EB050306434CEA010C49084FEA32
:10053000300092185B4150EA0107EDD152EA030006
:1005400012D082EA040083EA0501084305D0101B9B
:10055000AB4106D20122002306E000224FF0004307
:1005600002E06FF0010253101AEB06004CEB085149
:1005700010EB0A0041EB0B01BDE8F04D00F080B834
:100580000EB540F2334102910021CDE900110A4637
:100590000B4600F084F803B000BDC1F30A5210B559
:1005A000C1F3130140F2FF3341F480119A4201DAA2
:1005B000002010BD40F233439A42A2F2334203DCE2
:1005C000524200F03BF810BD904010BD00F00042D8
:1005D00030F000400AD0C10D01F56071C0F3160083
:1005E00042EA0151C208400711437047002001460A
:1005F000704730B50B46014600202022012409E057
:1006000021FA02F59D4205D303FA02F5491B04FACB
:1006100002F52844151EA2F10102F1DC30BD202AAA
:1006200004DB203A00FA02F1002070479140C2F149
:10063000200320FA03F3194390407047202A04DB7B
:10064000203A21FA02F00021704721FA02F3D0404B
:10065000C2F120029140084319467047202A06DB68
:10066000CB17203A41FA02F043EAE07306E041FA80
:1006700002F3D040C2F1200291400843194670476E
:1006800010B5141E73F1000408DA401C41F100019A
:1006900092185B411A4301D120F0010010BD2DE9F1
:1006A000F04D92469B4611B1B1FA81F202E0B0FAE8
:1006B00080F220329046FFF7B2FF04460F4640EA30
:1006C0000A0041EA0B0153465A46084313D011462B
:1006D00053EA010019D0C8F140025046FFF7AEFFBF
:1006E00005460E46504659464246FFF798FF0843D6
:1006F00005D0012004E020463946BDE8F08D0020F9
:10070000054346EAE0762C4337430A986305E40A3A
:10071000A0EB08000022FD0A44EA47540A3002D543
:1007200000200146E9E7010510196941DDE90845A6
:1007300000196941BDE8F04DA2E70EB5C10F80EA8E
:10074000E0700844CA07002140F233438DE80E00F0
:100750000A460B46FFF7A3FF03B000BD70B5C1F317
:100760000A5201F000450024C1F3130140F2FF33A7
:1007700041F480119A4201DA002070BD40F2334307
:100780009A42A2F2334203DC5242FFF757FF00E0E5
:1007900090402C43F1D0404270BD000030B5041EA3
:1007A00071F1000404DB4FF00044404264EB0101AE
:1007B000141E73F1000405DB1C464FF00043524247
:1007C00063EB04038B4208BF824230BD30B5041E88
:1007D00071F1000404DB4FF00044404264EB01017E
:1007E000141E73F1000405DB1C464FF00043524217
:1007F00063EB0403994208BF904230BD064C074D9D
:1008000006E0E06840F0010394E8070098471034E0
:10081000AC42F6D3FFF790FC149000083490000827
:1008200070B58C1810F8015B15F0070301D110F8B2
:10083000013B2A1106D110F8012B03E010F8016BDF
:1008400001F8016B5B1EF9D12B0705D40023521E62
:100850000DD401F8013BFAE710F8013BCB1A921CCA
:1008600003E013F8015B01F8015B521EF9D5A142C8
:10087000D8D3002070BD00BFFEE7704710B509490E
:10088000C88804F09FF807494B690122C8681821FD
:1008900002F086FD03498B690122C868482102F0F5
:1008A0007FFD10BDFC07002000BFFEE700BFFEE794
:1008B0001FB5044B0FCB8DE80F00684600F004F81D
:1008C0001FBD00002C8D000838B5044600200090A4
:1008D00021780246636802F0A5FA02F0F7F90248AF
:1008E000D4E9021206C038BDC406002010B502F0DB
:1008F00009FB10BD704700002DE9F047804689468E
:10090000174617B90220BDE8F087002423E0002530
:1009100000261AE0124800EB0610408808EB04019C
:10092000884200D010E00E4800EB0615287800F051
:10093000010008B90220E6E7A86820B1022202FB04
:100940000470A968884700BF761C182EE2D30DB941
:100950000120D8E7641C4C45D9D30020D3E7000020
:100960002400002010B50849088904F02BF8064837
:10097000C0690549096948610349CB6903220869CF
:10098000102102F00DFD10BDFC07002010B506F08F
:10099000FBFC10BD08B51B48006840F47000194905
:1009A00008601948006840F00100174908600846CF
:1009B000406840F0800048600020009002E000980D
:1009C000401C009044F6206100988842F7D30E48FE
:1009D000406820F003000C494860084600680B4955
:1009E0000840094908604FF41F0088600846006805
:1009F00020F48020086000204860C86204F0B4FD44
:100A000008BD000088ED00E000100240FFFFF6FE88
:100A100010B50121880705F0BEF8012876D14748B6
:100A2000C06890F84C00A8B34448C06890F84D00E6
:100A300080BB4FF48051424802F010FD012804D1E0
:100A400001033F4802F0A8FC04E04FF480513C4809
:100A500002F0A4FC0421032001F0B8FD012867D1B5
:100A600038480068401C37490860B0F5FA7F5FD904
:100A70003249C968086B05F02DF800202F49C96874
:100A800081F84C002F4908602F49D1F8C40208F0C2
:100A900069F84DE0FFE72948C06890F84C00B0B312
:100AA0002648C06890F84D00012831D10103244840
:100AB00002F0D4FC012804D10103214802F06CFCAF
:100AC00004E04FF480511E4802F068FC1E4991F882
:100AD000B000042101F07AFD50BB1C480068401CA6
:100AE0001A490860B0F57A7F22D9174991F8B00009
:100AF000042101F06BFDD8B900201049C96881F8C4
:100B00004D004021124802F049FC11E014E0FFE7DB
:100B10004FF480510A4802F041FC0849C96801F1CC
:100B20001C0004F0DFFB4FF48051054802F034FC58
:100B30000121880705F02CF810BD0000D40C00201E
:100B40000008014020060020D001002024060020DB
:100B50000010014010B50121494805F01CF801289A
:100B600077D14848006990F84C00A8B3454800691F
:100B700090F84D0080BB4FF40041434802F06EFCFA
:100B8000012804D1C103404802F006FC04E04FF400
:100B900000413D4802F002FC0421084601F016FD28
:100BA000012868D139480068401C38490860B0F510
:100BB000FA7F60D933490969086B04F08BFF002084
:100BC0003049096981F84C00304908603049D1F852
:100BD000780307F0C7FF4EE0FFE72A48006990F866
:100BE0004C00B8B32748006990F84D00012832D175
:100BF000C103254802F032FC012804D1C103224878
:100C000002F0CAFB04E04FF400411F4802F0C6FBAB
:100C10001F4991F8B000042101F0D8FC58BB1D48D1
:100C20000068401C1B490860B0F57A7F23D9184939
:100C300091F8B000042101F0C9FCE0B9002011498D
:100C4000096981F84D004FF480610F4802F0A6FB5E
:100C500011E014E0FFE74FF400410B4802F09EFB67
:100C60000849096901F11C0004F03CFB4FF4004104
:100C7000054802F091FB0121014804F089FF10BDF5
:100C800000040040D40C002000140140280600207D
:100C9000D00100202C06002010B50121074804F0E7
:100CA0007AFF012809D10121044804F071FF0021D5
:100CB000024804F09FFE03F0EDFC10BD0008004068
:100CC00010B50121494804F066FF012877D1484852
:100CD000406990F84C00A8B34548406990F84D0031
:100CE00080BB4FF40071434802F0B8FB012804D1E7
:100CF0004102404802F050FB04E04FF400713D48CF
:100D000002F04CFB0421052001F060FC012868D1B1
:100D100039480068401C38490860B0F5FA7F60D94E
:100D200033494969086B04F0D5FE00203049496910
:100D300081F84C00304908603049D1F82C0407F0A4
:100D400011FF4EE0FFE72A48406990F84C00B8B325
:100D50002748406990F84D00012832D141022548CA
:100D600002F07CFB012804D14102224802F014FB6E
:100D700004E04FF400711F4802F010FB1F4991F886
:100D8000B000042101F022FC58BB1D480068401C43
:100D90001B490860B0F57A7F23D9184991F8B00053
:100DA000042101F013FCE0B900201149496981F8E0
:100DB0004D004FF48051134802F0F0FA11E014E0B6
:100DC000FFE74FF400710B4802F0E8FA084949695F
:100DD00001F11C0004F086FA4FF40071054802F09E
:100DE000DBFA0121014804F0D3FE10BD000C0040E5
:100DF000D40C00200014014030060020D001002057
:100E000034060020000C014010B50121494804F0CF
:100E1000C2FE012877D14848006890F84C00A8B37A
:100E20004548006890F84D0080BB4FF400414348AE
:100E300002F014FB012804D1C103404802F0ACFACF
:100E400004E04FF400413D4802F0A8FA04210020DC
:100E500001F0BCFB012868D139480068401C3849C2
:100E60000860B0F5FA7F60D933490968086B04F06F
:100E700031FE00203049096881F84C003049086093
:100E80003049D1F8A80007F06DFE4EE0FFE72A4890
:100E9000006890F84C00B8B32748006890F84D00FF
:100EA000012832D1C103254802F0D8FA012804D123
:100EB000C103224802F070FA04E04FF400411F48D9
:100EC00002F06CFA1F4991F8B000042101F07EFB9A
:100ED00058BB1D480068401C1B490860B0F57A7F6C
:100EE00023D9184991F8B000042101F06FFBE0B953
:100EF00000201149096881F84D004FF480410F48E6
:100F000002F04CFA11E014E0FFE74FF400410B4807
:100F100002F044FA0849096801F11C0004F0E2F902
:100F20004FF40041054802F037FA0121014804F06E
:100F30002FFE10BD00100040D40C00200010014016
:100F400008060020D00100200C06002010B5012169
:100F5000464804F020FE012874D14548806890F886
:100F60004C0098B34248806890F84D0070BB8021D7
:100F7000404802F073FA012804D180213D4802F074
:100F80000BFA03E080213B4802F008FA042102201A
:100F900001F01CFB012864D137480068401C364929
:100FA0000860B0F5FA7F5CD931498968086B04F0B4
:100FB00091FD00202E49896881F84C002E49086077
:100FC0002E49D1F8100207F0CDFD4AE0FFE728488E
:100FD000806890F84C00A0B32548806890F84D00D8
:100FE000012830D18021234802F038FA012804D1A9
:100FF0008021204802F0D0F903E080211D4802F052
:10100000CDF91E4991F8B000042101F0DFFA40BB90
:101010001B480068401C1A490860B0F57A7F20D947
:10102000164991F8B000042101F0D0FAC8B90020A7
:101030000F49896881F84D0040210E4802F0AEF951
:101040000FE000E011E080210A4802F0A7F908490A
:10105000896801F11C0004F045F98021054802F07F
:101060009BF90121014804F093FD10BD00140040DC
:10107000D40C0020000C014018060020D0010020F4
:101080001C06002010B50121464804F084FD01280B
:1010900074D14548406890F84C0098B34248406885
:1010A00090F84D0070BB0821404802F0D7F90128A4
:1010B00004D108213D4802F06FF903E008213B48C4
:1010C00002F06CF90421012001F080FA012864D1BA
:1010D00037480068401C36490860B0F5FA7F5CD993
:1010E00031494968086B04F0F5FC00202E49496835
:1010F00081F84C002E4908602E49D1F85C0107F0B8
:1011000031FD4AE0FFE72848406890F84C00A0B362
:101110002548406890F84D00012830D10821234827
:1011200002F09CF9012804D10821204802F034F98A
:1011300003E008211D4802F031F91E4991F8B00082
:10114000042101F043FA40BB1B480068401C1A49C7
:101150000860B0F57A7F20D9164991F8B0000421D3
:1011600001F034FAC8B900200F49496881F84D00F0
:1011700004210E4802F012F90FE000E011E008210E
:101180000A4802F00BF90849496801F11C0004F013
:10119000A9F80821054802F0FFF80121014804F0F0
:1011A000F7FC10BD00340140D40C002000180140B1
:1011B00010060020D00100201406002010B50D49B3
:1011C00008680D4904F043FE30B103F06BFA094999
:1011D00008680A4904F032FE06490868084904F024
:1011E00036FE30B103F066FA02490868044904F09B
:1011F00025FE10BDFC0700200503050005030300C4
:10120000060306003EB5002002902649264804F059
:101210001EFE002844D02349234804F00FFE224834
:1012200004F06EFDC5B2214A92F82C10106A01F04C
:10123000E4FCC0F132001D4981F866000024084634
:1012400090F837000106194890F8380041EA00414B
:10125000164890F8390041EA0020144991F83A10F4
:1012600040EA010402A8002103232246CDE9001030
:101270000F48006806F058FF0C4A92F82C10106ACC
:1012800001F09AFB094A92F82C10106A322201F000
:10129000A1FC064A92F82C10106A01F0A6FB00BFD0
:1012A0003EBD00000403040000380140CC060020CD
:1012B0000000002010B50749074804F0C8FD40B100
:1012C0000449054804F0BAFD034804F019FDC4B20E
:1012D00000BF10BD050305000044004010B50446E2
:1012E0001149888803F06EFB0F49086804F012FD6D
:1012F0000D4908684FF4165104F0BAFC0A49086811
:10130000082104F0DAFD08490868042104F0C3FD4F
:10131000054991F820000022062102F0FBFA02495B
:10132000086804F049FD10BDFC07002000BFFEE77F
:101330002DE9F04781468A46164616B90220BDE8D7
:10134000F087002534E0002400272BE01A4800EB4A
:101350000710408809EB0501884200D021E01648BB
:1013600000EB0714207800F0020008B90220E6E73D
:1013700016F815004FF47F4101EA00206900491C6E
:10138000715C40EA0108A088404502DCE0884045E5
:1013900001DA0220D3E7E06810B14046E1688847EF
:1013A00000BF7F1C182FD1D30CB90120C7E76D1CDB
:1013B0005545C8D30020C2E7240000202DE9F041A4
:1013C00006460C4615461F46072E71D2DFE806F08A
:1013D0000479E8F1F0EFEE00032C10D1012D07D1D4
:1013E000F848C07820F040004030F649C87067E007
:1013F000F448C07820F04000F249C87060E0042C46
:101400000BD1012D01D1012000E00020ED498979A7
:1014100060F38201EB48817152E0052C0BD1012D64
:1014200001D1012000E00020E649897960F3C30181
:10143000E448817144E05CB9012D01D1012000E054
:101440000020E049C97860F30001DE48C17037E050
:10145000012C0BD1012D01D1012000E00020D94940
:10146000C97860F3C711D748C17029E0022C0BD1AD
:10147000012D01D1012000E00020D249897860F3DC
:101480000001D04881701BE0062C0BD1012D01D149
:10149000012000E00020CB49897960F30001C948B0
:1014A00081710DE0072C0BD1012D02D1012001E04B
:1014B00062E20020C349897960F34101C14881712A
:1014C0005BE2032C0BD1012D01D1012000E00020B3
:1014D000BC49C97860F34511BA48C1705FE0042C7B
:1014E0000BD1012D01D1012000E00020B5498979FF
:1014F00060F38611B348817151E0052C0BD1012DA9
:1015000001D1012000E00020AE49897960F3C711C4
:10151000AC48817143E05CB9012D01D1012000E0AC
:101520000020A849897860F34101A648817036E01F
:10153000012C0BD1012D01D1012000E00020A14997
:10154000897860F382019F48817028E0022C0BD1DA
:10155000012D01D1012000E000209A49897860F333
:10156000C301984881701AE0062C0BD1012D01D1DE
:10157000012000E000209349897960F3041191482B
:1015800081710CE0072C0AD1012D01D1012000E06E
:1015900000208C49897960F345118A488171ECE11A
:1015A000032C0FD1012D05D1012004E0BBE14BE15B
:1015B000D8E068E000208349C97860F304118148CD
:1015C000C1705FE0042C0BD1012D01D1012000E09E
:1015D00000207C49497960F382017A48417151E0E9
:1015E000052C0BD1012D01D1012000E0002075490F
:1015F000497960F3C3017348417143E05CB9012D3F
:1016000001D1012000E000206E49897860F3C71104
:101610006C48817036E0012C0BD1012D01D10120E5
:1016200000E000206749497860F300016548417097
:1016300028E0022C0BD1012D01D1012000E0002077
:101640006049497860F341015E4841701AE0062C18
:101650000BD1012D01D1012000E000205949497929
:1016600060F30001574841710CE0072C0AD1012DAD
:1016700001D1012000E000205249497960F3410185
:101680005048417179E1032C0BD1012D01D101208A
:1016900000E000204B49C97860F3C3014948C1709C
:1016A0005FE0042C0BD1012D01D1012000E00020CE
:1016B0004449497960F386114248417151E0052C53
:1016C0000BD1012D01D1012000E000203D494979D5
:1016D00060F3C7113B48417143E05CB9012D01D172
:1016E000012000E000203749497860F38201354845
:1016F000417036E0012C0BD1012D01D1012000E019
:1017000000203049497860F3C3012E48417028E039
:10171000022C0BD1012D01D1012000E0002029492C
:10172000497860F30411274841701AE0062C0BD168
:10173000012D01D1012000E000202249497960F308
:101740000411204841710CE0072C0AD1012D01D170
:10175000012000E000201B49497960F34511194838
:1017600041710AE1032C0BD1012D01D1012000E0D0
:1017700000201449C97860F382011248C17062E008
:10178000042C0BD1012D01D1012000E000200D49D6
:10179000097960F382010B48017154E0052C0BD1EB
:1017A000012D01D1012000E000200649097960F3F4
:1017B000C3010448017146E074B9012D04D1012030
:1017C00003E00000C401002000207149497860F363
:1017D00045116F48417036E0012C0BD1012D01D12C
:1017E000012000E000206A49497860F386116848CA
:1017F000417028E0022C0BD1012D01D1012000E025
:1018000000206349497860F3C711614841701AE0CC
:10181000062C0BD1012D01D1012000E000205C49F4
:10182000097960F300015A4801710CE0072C0AD1D4
:10183000012D01D1012000E000205549097960F314
:1018400041015348017198E0032C0BD1012D01D1C6
:10185000012000E000204E49C97860F341014C4866
:10186000C1705FE0042C0BD1012D01D1012000E0FB
:1018700000204749097960F386114548017151E01C
:10188000052C0BD1012D01D1012000E000204049A1
:10189000097960F3C7113E48017143E05CB9012D3D
:1018A00001D1012000E000203949097860F30001EE
:1018B0003748017036E0012C0BD1012D01D10120F8
:1018C00000E000203249097860F34101304801709E
:1018D00028E0022C0BD1012D01D1012000E00020D5
:1018E0002B49097860F38201294801701AE0062C1F
:1018F0000BD1012D01D1012000E0002024490979FC
:1019000060F30411224801710CE0072C0AD1012D6B
:1019100001D1012000E000201D49097960F3451143
:101920001B48017129E05CB9012D01D1012000E0C3
:1019300000201749897860F30411154881701AE076
:10194000012C0BD1012D01D1012000E00020104914
:10195000897860F345110E4881700CE0022C0AD1A1
:10196000012D01D1012000E000200949897860F3B0
:1019700086110748817000E000BF00BF0FB9BDE8C5
:10198000F081034800F050F800F040F800BFF6E79F
:10199000C401002010B50446208B03F013F8A08B7F
:1019A00003F010F8608B03F00DF8E168206801F097
:1019B000F3FC6169A06801F0EFFC2169606801F047
:1019C000EBFC03221021E368206801F0E9FC03220C
:1019D00010216369A06801F0E3FC03221021236950
:1019E000606801F0DDFC10BD10B50648FFF7D2FFBE
:1019F0000548002101608180817100F015F800F038
:101A000005F810BDA4010020C401002010B5054A4E
:101A10001169506801F0C2FC024A1169506801F076
:101A2000BBFC10BDA401002070B50546002403E0F6
:101A3000285D00F005F8641C072CF9D370BD000088
:101A400070B5044600251AE0E01128B90D4AD168A6
:101A5000106801F0A1FC04E00A4AD168106801F0A6
:101A60009DFC6006040E074A5169906801F096FCDF
:101A7000044A5169906801F08FFC681CC5B2082DBA
:101A8000E2DB70BDA40100200FB4054B10B503A923
:101A9000044A029800F0DAFA10BC5DF814FB00006A
:101AA000453200082408002003B401984100009842
:101AB00050EAC12018BF04204A0D18BF40F00100B1
:101AC00040F2FF72B2EB515F08BF40F00200012804
:101AD00008BF052002B070470EB507460E461446F3
:101AE00019491AA001F0BEFB1749384601F0BAFBAC
:101AF00015491CA001F0B6FB1349304601F0B2FBBA
:101B000011491AA001F0AEFB03AD0021681E054685
:101B100001700A21681E054601700CE00A2094FB42
:101B2000F0F100FB11403030C1B2681E0546017073
:101B30000A2094FBF0F4002CF0DC0349284601F065
:101B400091FB00F09BFB0000200800202A2A2A209D
:101B5000617373657274696F6E206661696C656428
:101B60003A2000002C2066696C6520002C206C69EE
:101B70006E6520000000000070B52DED020B2DED0C
:101B80000A8B82B00D98C40F20F00045AE48854204
:101B900048D3AE48854219D30C99C5F313000843C6
:101BA00009D09DED0C0B02B0BDEC0A8B02B0BDE874
:101BB000704000F009BA002C14BF9FEDA50B9DEDFD
:101BC0000C0B02B0BDEC0A8B02B070BD9FEDA20BF6
:101BD00053EC102B9DED0C0B51EC100BFEF7F6FDAA
:101BE0000AD2022000F02CFA02B0BDEC0A8B02B03F
:101BF000BDE8704000F0F4B99FED990B53EC102B49
:101C00009DED0C0B51EC100BFEF7C8FD0AD2022023
:101C100000F016FA02B0BDEC0A8B02B0BDE87040CD
:101C200000F0EEB990489FED92BBA8425CD292487A
:101C3000854219D29148784400EBC40090ED000B26
:101C400053EC102B9DED0C0B51EC100BFEF7B1FB80
:101C500041EC1A0B8A48784400EBC40090ED009BDD
:101C6000C4F10100041B36E09FED870B53EC102BF1
:101C70009DED0C0B51EC100BFEF7A1FB41EC100B92
:101C80008348784400EBC40090ED001B51EC100B2E
:101C900053EC112BFEF7ECFAFEF760FD0446FEF75D
:101CA0004CFD41EC180B9FED7C0B53EC102BFEF719
:101CB00086FB9DED0C1B53EC112BFEF77DFB41ECDD
:101CC0001A0B9FED770B51EC180B53EC102BFEF712
:101CD00076FB41EC190B51EC1A0B53EC192BFEF768
:101CE00068FBCDE90C011BE06F48854217D29FEDE0
:101CF000700B53EC102B9DED0C0B51EC100BFEF701
:101D0000B7FA53EC1B2BFEF761FD08D29DED0C0BCF
:101D100053EC1B2B51EC100BFEF7AAFA6EE00024DB
:101D20009DED0C0B53EC102B51EC100BFEF747FB09
:101D300041EC180B60480521B0EE480AF0EE680A45
:101D4000784400F0C5F853EC182B51EC100BFEF75B
:101D500036FB9DED0C1B53EC112BFEF72DFB41ECDC
:101D6000180B9FED570B5CB353EC182B51EC100B79
:101D7000FEF71FFB9DED0C0B41EC1C0B53EC182BDD
:101D800051EC100BFEF71BFB53EC1C2BFEF789FBF1
:101D900053EC192BFEF710FB53EC1A2BFEF709FB43
:101DA00053EC1B2BFEF708FBCDE900016FF47F70AD
:101DB000844226DB01EB045001909DED000B00E70F
:101DC00053EC102B51EC180BFEF7F3FA9DED0C0BB6
:101DD00041EC190B53EC182B51EC100BFEF7EFFAFA
:101DE00053EC192BFEF75DFB9DED0C1B53EC112BF7
:101DF000FEF7DFFA53EC1B2BFEF7DEFA41EC100B7B
:101E0000DFE608464FF07A5101EB04519FED2E0BAF
:101E1000084453EC102B01909DED000B51EC100B7E
:101E2000FEF7CDFA0D4645EC100B044651EC100BB5
:101E3000FFF73AFE042808BF00F0E2F845EC104B2B
:101E4000BFE6000000000000422E86400000F07F48
:101E50000000000000000000EF39FAFE422E86402C
:101E600051302DD5104987C0422ED63F00000000CA
:101E7000000000000000F03FB2A2F03F2E7300000F
:101E80001E73000000000000FE822B654715F73F1F
:101E9000D2720000000000000000E0FE422EE63F8B
:101EA000763C7935EF39EA3D0000303E0000000015
:101EB0009C7500883CE4377E4472000000000000FE
:101EC0000000000000000040000000000000700161
:101ED00070B504462DED028B4D1E00EBC500B0EE33
:101EE000408AF0EE608A90ED000B35F0060017D0C6
:101EF00053EC182B51EC100BFEF761FA41EC100B70
:101F00006D1E04EBC50090ED001B51EC100B53EC63
:101F1000112BFEF7ADF941EC100B35F00600E7D1BF
:101F2000022D36D0042D1CD0062D1CBFBDEC028B1B
:101F300070BD53EC182B51EC100BFEF740FA94EDEA
:101F40000A1B53EC112BFEF793F953EC182BFEF7F9
:101F500036FA94ED081B53EC112BFEF789F941EC8E
:101F6000100B53EC182B51EC100BFEF728FA94EDE4
:101F7000061B53EC112BFEF77BF953EC182BFEF7E5
:101F80001EFA94ED040B53EC102BFEF771F941ECA3
:101F9000100B53EC182B51EC100BFEF710FA94EDCC
:101FA000021B53EC112BFEF763F953EC182BFEF7D1
:101FB00006FA94ED001B53EC112BFEF759F9BDEC1A
:101FC000028B41EC100B70BD10B553EC102B51EC93
:101FD000100BFEF74DF941EC100B10BD0000000096
:101FE0009FED050B10B553EC102B51EC100BFEF7C9
:101FF000E6F941EC100B10BD00000000000000707D
:102000009FED050B10B553EC102B51EC100BFEF7A8
:10201000D6F941EC100B10BD0000000000000010CC
:1020200002E008C8121F08C1002AFAD170477047A1
:10203000002001E001C1121F002AFBD170470000FF
:102040000149086070470000280800202DE9FF4F73
:102050008BB09A460F460546002606E025280BD091
:1020600052460D9990476D1C761C28780028F5D1B2
:102070000FB03046BDE8F08F0024A0460122604931
:1020800000E0044315F8013F203B02FA03F0084248
:10209000F7D128782E2817D115F8010F44F0040441
:1020A0002A280ED06FF02F022878A0F130010929DC
:1020B0000AD808EB880102EB410100EB01086D1C16
:1020C000F2E757F8048B6D1C287869283ED006DCAF
:1020D0000028CDD063280BD0642804D136E07328C3
:1020E00010D075284BD052460D999047761C85E04C
:1020F00017F8040B8DF8000000208DF80100E94668
:10210000012003E057F8049B4FF0FF3061074FF0C8
:10211000000401D40AE0641C44450DDA8442FADB71
:1021200019F804100029F6D106E0641C8442FCDB97
:1021300019F804100029F8D1264404E019F8010B1D
:1021400052460D999047641EF8D257E001CF4FF0E8
:102150000A0B002802DA40422D2102E0210504D5B5
:102160002B218DF82410012103E0E10705D0202167
:10217000F7E70DF1200908910CE00021F9E701CF04
:102180004FF00A0BF9E75946FEF733FA01F1300236
:1021900009F8012D0028F6D1ADEB090000F1200B64
:1021A000600701D44FF00108D84502DDA8EB0B0011
:1021B00000E000208046002406E009A85246005DA9
:1021C0000D999047641C761C08988442F5DB04E066
:1021D000302052460D999047761CB8F10001A8F1C5
:1021E0000108F5DC05E019F8010B52460D999047FE
:1021F000761CBBF10001ABF1010BF4DC6D1C34E784
:102200000928010070B504460D4614B94FF0FF309F
:1022100070BD608D02F0D6FBE06903F07BFD2946BE
:10222000E06903F025FD0021E06903F050FE002184
:10223000E06903F03AFE0021E06903F024FE00218A
:10224000E06903F0CDFD0021E06903F0D3FD042136
:10225000E06903F020FE0821E06903F02EFE4FF450
:102260004171E06903F0DDFD20780022062101F0D4
:1022700051FBE06903F0A0FD0020C9E700BFFEE7C5
:1022800070B504460D460CB1052D02DD4FF0FF3050
:1022900070BD144840F82540002084F864009FED8C
:1022A000120A84ED150AB7EE000A84ED160A9FEDB6
:1022B0000F0A84ED170A9FED0E0A84ED140A9FEDB4
:1022C0000D0A84ED180AA06684F84C0084F84D00CD
:1022D000204601F011FA04F11C0002F0C7FF0020B3
:1022E000D6E70000D40C0020CDCC4C3E14AED73F36
:1022F0007593D83F3333B33E002009490978FF294D
:1023000001D1411CC8B206494978FF2901D1411CBD
:10231000C8B203498978FF2901D1411CC8B270476E
:10232000CB010020014691F84000704710B50446EB
:1023300014B94FF0FF3010BD204602F085FE04F1C5
:10234000180002F081FE04F1240002F07DFE04F189
:102350000C0002F079FE0020EDE710B504460021E4
:10236000204602F061FEA06B04F038F8002104F171
:10237000180002F059FE10BD10B5044604F1240007
:1023800002F08AFE20B9012104F1240002F04CFE83
:10239000022084F8400010BD70B504460D46FFF7DA
:1023A000ABFF064616B94FF0FF3070BD3D480078D0
:1023B000FF281CD13B4805703B48206080206060AE
:1023C00040F2056020813948A0611021E16140F2AE
:1023D0000361218460622021A16240F20361A18532
:1023E000E0600821216140F20361A18240E02D48B4
:1023F0004078FF281CD12B4845702B4820600820CE
:10240000606040F2056020812748A0612021E161E1
:1024100040F20561218460624021A16240F20561C1
:10242000A185E0601021216140F20561A1821FE0D9
:102430001C488078FF281BD11A4885701C482060F2
:102440008014606040F2046020811748A06102217E
:10245000E16140F20561218460620421A16240F2E1
:102460000561A185E0600121216140F20561A18241
:10247000032004F8300F02206070DC20608096207A
:10248000A08040F6C410E0804FF47A60A06040F66F
:10249000C410E06000202074303C2046FFF746FF67
:1024A000002082E7CB01002000140140000C014015
:1024B0000010014010B5044604F1240002F0ECFDC8
:1024C000012804D1002104F1240002F0ADFD002018
:1024D00084F8400010BD70B5044604F1240002F0F9
:1024E000DBFD00B970BD012084F8400001212046C9
:1024F00002F09AFDA06B03F071FF012104F10C00C2
:1025000002F092FDE06B03F069FF012104F1180075
:1025100002F08AFDE08E03F061FF002104F1240047
:1025200002F082FD002104F10C0002F07DFD94F820
:10253000310000EE100AF8EE400AB7EE001A81EE04
:10254000200AF7EE000A70EEC00A94ED0F0AB8EE0A
:10255000400A20EE800ABCEEC00A10EE106A304637
:1025600003F03CFF002610E0012104F10C0002F012
:102570005BFDA08E03F032FF002104F10C0002F09D
:1025800053FD608E03F02AFF761C94F83000B042B1
:10259000EADC94F83110E06BB0FBF1F0E16B081A63
:1025A000A18E628E114494F8302001FB1205002D9B
:1025B00001DC4FF47A7505F57A75284603F00EFFB5
:1025C000002084F8400000BF8CE700002DE9F047B0
:1025D00007460C46A046062F4BD2DFE807F0030F54
:1025E0001B26323EFF2C06D106274FF00708394D37
:1025F0004FF400463EE0374D10263BE0FF2C06D15D
:1026000006274FF00508334D4FF4004632E0314DB8
:1026100040262FE0FF2C05D14FF003082D4D4FF43D
:10262000004627E02C4D102624E0FF2C06D106277B
:102630004FF00008274D4FF400461BE0274D0126C0
:1026400018E0FF2C06D106274FF00108214D4FF46A
:1026500000460FE0224D80260CE0FF2C06D1062715
:102660004FF002081B4D4FF4004603E01C4D6E1561
:1026700000E000BF00BF08F0010200231946384601
:10268000FEF79CFE0023C8F3400201213846FEF706
:1026900095FE0123C8F3800202213846FEF78EFE24
:1026A000642000F073F93146284600F0D7FE8146D9
:1026B000062C0AD0032C08D0042C06D02CB1022CF6
:1026C00003D0012C01D0052C01D189F00109484625
:1026D000BDE8F0870008014000100140000C0140F7
:1026E000001801402DE9F0412DED028B0446002633
:1026F0009FED360AF0EE408A03F0BAFC94F8B00081
:102700000421FFF763FF074603F0FCFC1FB9BDEC93
:10271000028BBDE8F081002544E004F1840000EB69
:10272000850090ED000AD4ED240A30EE600A30EE08
:10273000680AB0EE408AB5EEC08AF1EE10FA03D80E
:102740009FED220AB0EE408AB0EE480A002104F163
:10275000300002F03BFE4FF0FF31A06F05F0A8F90A
:1027600038EE880AF0EE408AE06E064403F080FC02
:1027700094F8B0000521FFF729FF074603F0C2FCDB
:10278000012F07D194F894000121A940084384F84F
:10279000940006E094F894000121A940884384F84D
:1027A00094006D1C032DB8DB4FF4487003F016FE47
:1027B00001233246194604F14C0002F073FD4FF03C
:1027C000FF31A06F05F074F900BFA0E70000000022
:1027D00030B58DB00446062C03DD4FF0FF300DB050
:1027E00030BDC4EB041000EB4000464901EB80050E
:1027F000214605F13000FFF743FD284600F00EFAB0
:10280000D5F89C00401CB0B9FFF776FD98B1442084
:1028100001F058FFC5F89C00D5F89C0010B96FF086
:102820000100DCE72146D5F89C00FFF7B5FD10B1AB
:102830006FF00200D3E70021281D00F037FF0021D0
:1028400005F1300000F032FF2FA30FCBCDE90B23B1
:10285000CDE909019DF830002044C0B28DF8300068
:10286000C4EB041000EB4000264901EB8000A830C7
:102870000A21CDE90010C4EB041000EB400021490F
:1028800001EB8003802209A9234805F041FA1822B0
:1028900022A103A8FDF7C8FC9DF81F002044C0B288
:1028A0008DF81F00C4EB041000EB4000154901EB4C
:1028B0008000AC300A21CDE90010C4EB041000EB1D
:1028C0004000104901EB80034FF4007203A919483E
:1028D00005F01EFA03F0CCFB002301220421204660
:1028E000FEF76CFD0023012205212046FEF766FD60
:1028F00001231A4603212046FEF760FD03F002FC87
:1029000000206CE7D00100207461736B5F63686125
:102910006E6E656C31000000715500087461736B58
:102920005F6368616E6E656C5F6465746563743166
:1029300000000000515700080C48006820F080702B
:102940000A4908600846006840F08070086008483E
:10295000006820F00100064908600846006840F061
:10296000010008600020486070470000FCED00E0B6
:10297000001000E070B50446002504E04FF47A70C2
:1029800000F004F86D1CA542F8D370BD70B5044684
:1029900007484568012001F069FF0649B0FBF1F0E6
:1029A000444300BF02484068401BA042FAD370BDB8
:1029B000001000E040420F0070B505460C4621466D
:1029C000284600F0FBF808B900BFFEE704EB8400DE
:1029D000810005F10800405820F0010104EB84005B
:1029E000820005F10800815070BD70B505460C46A7
:1029F0002146284600F0E2F808B900BFFEE704EBE4
:102A00008400810005F10800405840F0010104EB0A
:102A10008400820005F10800815070BD70B5044645
:102A20000D462946204600F0C9F808B900BFFEE768
:102A300005EB8500810004F10800405820F00101F9
:102A400005EB8500820004F108008150002105EBB0
:102A50008500820004F10800815005EB85008200AA
:102A600004F10C00815005EB8500820004F1100098
:102A7000815005EB8500820004F1140081506068EC
:102A8000AA000F2191400843606070BD2DE9F0411C
:102A900004460D4616462946204600F08FF808B930
:102AA00000BFFEE705EB8500820004F110003168ED
:102AB000815005EB8500820004F11400B16881505B
:102AC000308A81B205EB8500820004F10C00815050
:102AD00005EB8500810004F10800475827F47C5776
:102AE000F1687068084371690843074305EB850086
:102AF000810004F108004750307E01280ED105EB1B
:102B00008500810004F10800405840F0400105EBC9
:102B10008500820004F1080081500DE005EB85007E
:102B2000810004F10800405820F0400105EB8500C9
:102B3000820004F108008150707E01280ED105EB5F
:102B40008500810004F10800405840F0800105EB49
:102B50008500820004F1080081500DE005EB85003E
:102B6000810004F10800405820F0800105EB850049
:102B7000820004F108008150B07E70B905EB850039
:102B8000810004F10800405820F0100105EB850099
:102B9000820004F1080081500DE005EB8500810002
:102BA00004F10800405840F0100105EB8500820058
:102BB00004F108008150BDE8F081000002460120C8
:102BC000034B9A4202D1042900DD00207047000027
:102BD0000004024070B506460C46154621463046B4
:102BE000FFF7ECFF08B900BFFEE7A9B204EB8400D1
:102BF000820006F10C00815070BD70B505460C4690
:102C000021462846FFF7DAFF08B900BFFEE704EBCC
:102C10008400810005F10C00405870BD10B50446D9
:102C200014B94FF0FF3010BD201D00F065FD04F118
:102C3000200000F05AFB0120207060700020F2E7B5
:102C400010B5044603F014FA94F8B0000421FFF71D
:102C5000BDFC01282ED194F8B0000121FFF7B6FC8D
:102C6000012827D1D4F89C00E0B1D4F89C00401C86
:102C7000C0B1D4F89C0090F8400048B994F8B00076
:102C800001231A460621FEF799FB03F03BFA10BD1B
:102C900094F8B000012300220621FEF78FFB03F019
:102CA00031FAF4E794F8B00001231A460621FEF742
:102CB00085FB06E094F8B000012300220621FEF710
:102CC0007DFB03F01FFA00BFE1E7000010B5002410
:102CD00006480078012806D1054800688047002092
:102CE0000249087000E00624204610BD3607002087
:102CF0003C0700202DE9F04705460C464FF0000A3E
:102D00002088052834D168784FEA0029A87840EA5D
:102D10000909E878060228790643012E25DB7D2E75
:102D200023DC2F4600202080032007F8010B208899
:102D3000401C20807006000E07F8010B2088401C04
:102D40002080002332464946384600F05DFA80462E
:102D5000B8F1000F04D0404601F08BFC824609E038
:102D6000208800EB4600208004E04FF0030A01E0D9
:102D70004FF0030A5046BDE8F0872DE9F0410446C4
:102D80000E464FF000083088052810D16078070201
:102D9000A078074301231A463946E01C00F034FAB4
:102DA000054635B1284601F064FC804601E04FF04D
:102DB00003084046BDE8F0812DE9F04704460E4681
:102DC0004FF0000A3088062826DB60784FEA00289A
:102DD000A07840EA0808E07805022079054394F8D5
:102DE0000590012D15DB782D13DC6806000E484593
:102DF0000FD101232A464146A01D00F005FA0746DF
:102E000027B1384601F035FC824607E005203080C6
:102E100004E04FF0030A01E04FF0030A5046BDE81A
:102E2000F08700002DE9F04705460C4616461F4680
:102E3000DDF820904FF000081CB1012C01DBF72CCD
:102E400002DD4FF0020835E01C48047005BB1C4849
:102E50001C4908601C481D4908601D481D49086040
:102E60001D481E49086000201D4908601D481E4974
:102E700008601E481E4908601E481F4908604B46EE
:102E80003A4631460D48007800F0D8F8804602E016
:102E90004FF0020800BF00BFB8F1000F0AD104F0E4
:102EA00039F810B94FF0030804E014480570012008
:102EB000134908704046BDE8F08700003407002041
:102EC000DD3100083C070020F931000840070020F0
:102ED00035310008380700208D30000844070020F5
:102EE00048070020D56F00084C0700203D710008FE
:102EF00050070020B170000854070020350700205B
:102F00003607002038B500254148007808B1062072
:102F100038BD684603F0ECFF012877D19DF800002A
:102F200030B1012805D0022818D003286DD16BE0FC
:102F30006BE0384A38493948394B1B689847054691
:102F40005DB93648007837490978884202D033485D
:102F5000007810B9022003F0E5FF56E02E48006823
:102F6000007831490870012030490870002417E0CA
:102F70002F4810F8340000B914E02D4810F8340040
:102F80002949097888420AD1294800EBC40021491F
:102F900042682148006890472449087002E0641C98
:102FA000102CE5DB00BF1D48007858B31F4800789F
:102FB000C8B10020174908801B48007840F0800104
:102FC000144802880088401C124B18801248006880
:102FD000815416480278184601880088401C1880E1
:102FE0000D480068425413480078012800D100BF02
:102FF00008480288084801680A4800780E4B1B6898
:103000009847054601E001E000BF00BF00207FE7D0
:1030100036070020E6070020E0070020E407002034
:103020004407002034070020E5070020E8070020BF
:103030006007002035070020380700202DE9F04701
:1030400081460E4614461F464FF000083B460822B4
:103050002146304603F07EFF012802D04FF00308DE
:103060000FE0B4F5964F01D9232503E0600006492F
:10307000B1FBF0F5A8B203F089FF012801D04FF0B1
:1030800003084046BDE8F087A07F17002DE9F04116
:1030900004460D461646002711480088FF2800DC2C
:1030A00004E09C220FA118A0FEF716FD0C48008832
:1030B000042810DB0A4801881D4802F0BDFD50B904
:1030C0001B480078207006480088C01E30801848D1
:1030D000401C286000E005273846BDE8F08100006C
:1030E000F60700202E2E5C54686972645F5061728E
:1030F00074795C4D6F646275735C7274755C6D623B
:103100007274752E630000007573526376427566A3
:10311000666572506F73203C204D425F5345525F8D
:103120005044555F53495A455F4D415800000000D7
:10313000CCC600202DE9F04105460E4617464FF05B
:10314000000821480078012838D1701E1F49086006
:1031500001201F4908801D48006805700846008846
:1031600038440880084601881848006802F064FD69
:10317000044617490888411C154B198015490C5401
:10318000221219460888411C198012490A5401204C
:10319000114908700D490968087803F0EBFE0B48E7
:1031A0000068401C0949086009480088401E084919
:1031B00008800121002002F0FBFE01E04FF005082D
:1031C0004046BDE8F0810000ED070020F007002038
:1031D000F4070020CCC60020EC07002010B500202A
:1031E000044908700021012002F0E2FE02F02CFFE9
:1031F00010BD0000ED07002010B50021084602F0C8
:10320000D7FE02F00DFF10BD2DE9F04107460C4638
:1032100015469846B8F1000F07D1E9B2E0B2084A66
:1032200013683A469847064606E0E9B2E0B2044A17
:1032300053683A46984706463046BDE8F08100009C
:10324000C406002070B505460C460548844203D1EB
:10325000284601F028FF70BD4FF0FF30FBE700006B
:103260002008002070B50D46044602E02946FFF70D
:10327000E9FF14F8010B0028F8D170BDFFB583B049
:103280000546284603F007FE04A8009005A8019013
:1032900006A8029000261DE0002418E0E21704EBC7
:1032A0005272D2105DF822201278E31704EB5373A8
:1032B000DB10A4EBC30780233B411A401AB1284618
:1032C00003F0F3FD02E0284603F000FE641C182C16
:1032D000E4D3761C287BB042DEDC07B0F0BD00BF33
:1032E000011EA0F10100FBD1704710B5044614B9CE
:1032F0004FF0FF3010BD208901F064FBD4E90001DC
:1033000000F04CF803221021D4E9000300F048F843
:103310000020EFE770B504460025002008E094F88F
:10332000941001228240114009B1691CCDB2401CA9
:103330000328F4DB052D2CD2DFE805F0030B131B6B
:10334000230000231A46FF2104F12000FFF796FF17
:1033500020E0FF230022114604F12000FFF78EFF3A
:1033600018E00023FF22114604F12000FFF786FF3A
:1033700010E00023FF22194604F12000FFF77EFF32
:1033800008E0F423FF22032104F12000FFF776FF79
:1033900000E000BF00BF70BD416170470161704730
:1033A000F0B5044616460025002201F00F0501F095
:1033B000100747B1042E05D145F00305E76B1F4305
:1033C000E76300E0354300201EE0012787401F40EF
:1033D000C7B122684FEA800C0F2707FA0CF7BA43EF
:1033E000870005FA07F73A43282904D101278740C7
:1033F0001F40676105E0482903D1012787401F402E
:1034000027612260471CB8B20828DED3082022E0DA
:10341000012787401F40E7B16268A0F108074FEA23
:10342000870C0F2707FA0CF7BA43A0F10807BF0073
:1034300005FA07F73A43282904D1012787401F409E
:10344000676105E0482903D1012787401F402761B4
:103450006260471CB8B21028DAD3F0BD024690680B
:10346000084008B1012070470020FCE7F0B50A468B
:10347000002300240021002500F00046B6F1004F93
:1034800002D11D4EF16901E01B4E7168C0F3034586
:1034900083B200F44016B6F5401F08D121F0E06178
:1034A000154E766826F0E066134F7E6012E000F459
:1034B0008016B6F5801F06D1032606FA05F4A1434F
:1034C00041F0E06106E0460D360103FA06F6B1432D
:1034D00041F0E06122B1460D360103FA06F63143B0
:1034E00000F00046B6F1004F02D1034EF16101E059
:1034F000014E7160F0BD00000000014010B50446AF
:1035000002F0B6FD207F022802D0207F0A49087011
:1035100094F8B0000721FFF759F8012804D10221DF
:10352000201D00F0C3F804E003480178201D00F0DE
:10353000BDF802F0E7FD10BD460600207FB5044649
:1035400052A00068039052A00068029051A0006849
:10355000019051A00068009002F08AFD94F8B0003C
:103560008DF80C0094F8B0000621FFF72FF8012821
:1035700022D114F8B00F494951F82000401C21789D
:10358000464A42F8210014F8B009114651F82000CB
:10359000012817D100250CE000BF0721404802F0A8
:1035A00010FC0028F9D003A8415D3D4802F0ADFBB6
:1035B0006D1C022DF0D305E0002094F8B010374ABE
:1035C00042F8210002F09EFD94F8B00000285CD182
:1035D000972000F0F1F801281AD132480068401C09
:1035E0003049086008460068012814D100250CE025
:1035F00000BF07212A4802F0E4FB0028F9D002A806
:10360000415D274802F081FB6D1C022DF0D302E0E2
:10361000002024490860872000F0CEF8012819D145
:1036200021480068B0B920480068401C1E49086065
:1036300000250CE000BF0721194802F0C2FB00285A
:10364000F9D001A8415D164802F05FFB6D1C022D08
:10365000F0D31AE0872000F0AFF8B0B91248006844
:1036600098B100201049086000250CE000BF072138
:103670000B4802F0A6FB0028F9D01DF805100848F9
:1036800002F043FB6D1C022DF0D37FBD00FF000054
:1036900007FF000008FF000009FF0000EC0C0020FD
:1036A00000440040380600203C06002070B5044667
:1036B0000D4665B1012D13D0022D1AD1D4E90001B8
:1036C000FFF76AFED4E90301FFF766FE11E0D4E9D3
:1036D0000301FFF761FED4E90001FFF75FFE08E098
:1036E000D4E90001FFF758FED4E90301FFF756FEC5
:1036F00000BF00BF257670BD10B5044614B94FF069
:10370000FF3010BD208901F05DF9A08A01F05AF95F
:10371000D4E90001FFF740FED4E90301FFF73CFEC6
:103720000220207602221021D4E90003FFF738FEA0
:1037300002221021D4E90303FFF732FE0020E0E764
:103740001CB5FEF751F94FF496536E224FF47A717F
:103750000F4801F0D7FCFFF7EFF801F027FC00F06D
:10376000C9F800F05DF8FDF7A3F800200121034639
:103770004A02CDE9001007A1094804F0C9FA01285E
:1037800001D102F09BFF02E006A0FEF77DF9FBE706
:103790004CA100207461736B5F6372656174650096
:1037A0009D5700085461736B2043726561746520F6
:1037B00046616C6965640A0070B50446872C03D1C4
:1037C000094D4FF4004604E0972C02D1064D4FF40A
:1037D000804631462846FFF741FE012801D10020EE
:1037E00070BD0120FCE700000018014010B540F258
:1037F000066001F0E7F840F2066001F0E3F84FF4EC
:103800000043022204210548FFF7CAFD4FF480431C
:10381000022204210148FFF7C3FD10BD001801403A
:1038200010B5FFF7E3FF10BD70B505460C4625B196
:10383000012D0FD0022D26D119E0012C04D1E10277
:103840001248FFF7ABFD04E04FF400610F48FFF7AB
:10385000A3FD19E0012C04D1A1020C48FFF79EFD45
:1038600004E04FF480610948FFF796FD0CE0012C5D
:1038700004D104210548FFF791FD03E0042103482A
:10388000FFF78AFD00E000BF00BF70BD000C0140E3
:1038900010B540F2036001F095F840F2036001F0CA
:1038A00091F840F2036001F08DF84FF40061104888
:1038B000FFF772FD4FF480610D48FFF76DFD0421A5
:1038C0000B48FFF769FD4FF40063022210210848FE
:1038D000FFF766FD0423022210210548FFF760FD73
:1038E0004FF48063022210210148FFF759FD10BDFB
:1038F000000C014010B5FFF7CBFF01210020FFF7BE
:1039000093FF00210120FFF78FFF00210220FFF726
:103910008BFF10BD2DE9F04103460D4616460024ED
:103920000027A0462A48006800F4E060B0F5E06F88
:1039300003D100BF4FF0040830E02548006800F4D0
:10394000E060B0F5C06F03D101274FF0030825E018
:103950001F48006800F4E060B0F5A06F02D10227B4
:10396000B8461BE01A48006800F4E060B0F5806FCC
:1039700003D103274FF0010810E01548006800F458
:10398000E060B0F5407F03D104274FF0000805E068
:103990004FF4A06000F020F80227B846C7F10400F9
:1039A00005FA00F4C8F104010F20C8403040044378
:1039B00024010848C45403F01F0101208840591114
:1039C000890001F1E021C1F80001BDE8F0810000AB
:1039D0000CED00E000E400E002490143024A1160FE
:1039E000704700000000FA050CED00E070B50446D9
:1039F00002F03EFB257F9DB1012D23D194F8B0004C
:103A00000221FEF7E3FD012809D1022104F1300073
:103A1000FFF74CFE012060702046FFF77BFC12E0B0
:103A200094F8B0000121FEF7D1FD012809D102214F
:103A300004F13000FFF73AFE012060702046FFF7E6
:103A400069FC00E000BF00BF02F05CFB70BD00003D
:103A50002DE9F04105460E462648076826480068CD
:103A6000001D02F03CFA50B92348006890F82C1071
:103A70000120884021490968814320480160681C71
:103A8000D8B9D6B11E4948681B49096888601A49E7
:103A900082680968CA6018490968091D826851600E
:103AA00015490968091D8160154A134909684A6169
:103AB00011460968491C11601AE07C190E4800681B
:103AC0004460BC4207D20C480168091D0D480068DB
:103AD00002F048FA0CE008480168091D0A4800682D
:103AE00002F040FA09480068844201D207480460A5
:103AF000BDE8F081840600207006002088060020C2
:103B000024A000207806002074060020A0060020D3
:103B100010B5044602F0ACFA2F480068401C2E494C
:103B200008602E48006840B92C48046008460068C8
:103B300001280DD100F034FA0AE02948006838B9AC
:103B400026480068C06AE16A884201D823480460B8
:103B500024480068401C2349086094F82C10012078
:103B600088402149096808431F490860E16A01EB60
:103B700081011E4A02EB81014868A0608268E26010
:103B8000211D826851608160E16A01EB8101174A61
:103B900002EB81026261E16A01EB8101134A52F892
:103BA0002110491CE26A02EB8202104B43F82210FA
:103BB00002F0A8FA0A48006868B108480068C06ABC
:103BC000E16A884207D24FF0805009490860BFF38C
:103BD0004F8FBFF36F8F10BD80060020700600204E
:103BE0008C0600209C06002088060020549D0020A2
:103BF00004ED00E008B502F03BFA12480068E8B9AD
:103C0000114802F09FF9114802F09CF90E48104942
:103C100008600E480F49086000200F4B0F4A102122
:103C200000900A2003F018FC064908600846006866
:103C300020B10BA10348006802F062FB02F062FAB7
:103C400008BD0000B806002038A000204CA00020CD
:103C5000B0060020B406002060A00020ACA0002028
:103C6000546D72510000000010B516E002F000FA29
:103C70000C48C068C468201D02F031F90A48006889
:103C8000401E0949086009480068401E074908604D
:103C900002F038FA204600F05FF804480068002877
:103CA000E4D110BD10A00020800600207C0600207A
:103CB00070B504460D46206C70B1216CE06801447B
:103CC000E160D4E90210884201D32168E16028460E
:103CD000226CE168FCF7A8FA70BD2DE9F0410446BA
:103CE0000F4615464FF00008A66B206C48B92068B7
:103CF00000282CD1A06804F0BBFC80460020A06006
:103D000025E07DB93946226C6068FCF78DFA216C9C
:103D1000606808446060D4E90101884217D32068D4
:103D2000606014E03946226CE068FCF77DFA216C93
:103D3000E068411AE1602168E068884203D2216CA2
:103D4000A068411AE160022D01D106B1761E701CF7
:103D5000A0634046BDE8F08110B5044694F85100D8
:103D600030B9206B02F00CFA204602F009FA15E097
:103D700094F85100012803D1204602F001FA0DE029
:103D800094F85100022801D1012000E0002028B958
:103D900040F6957202A10CA0FDF776FE10BD000062
:103DA0002E2E5C54686972645F50617274795C464F
:103DB00072656552544F535C736F757263655C74C2
:103DC00061736B732E6300004572726F723A2573D4
:103DD0002C2025640D0A000001464A6A22B10A6BB4
:103DE0001268C2F1200000E0002070470146084A36
:103DF000126812680AB9012200E000220A600A680B
:103E000022B9034A1268D268106800E000207047A7
:103E1000B006002030B54FF41043154800F00704F9
:103E20002CB1C01D20F00700114C041B1B1B0246C7
:103E3000104C226000240F4D6C60D018083820F020
:103E400007000D4C206000240B4D2D686C600A4D5E
:103E50002D682C601146441A4C60074C24680C6095
:103E6000064D4C682C60064D4C682C6030BD00003F
:103E7000040D0020480600205006002058060020AF
:103E80005406002000BFFFF7EFFEFCE72DE9F041EC
:103E900006460D4617469846069C0DB9246000E07C
:103EA0002760E66325640121204603F031FB0020F2
:103EB000A064BDE8F08100002DE9FF5F81460F4658
:103EC0009246DDE90E6B109CAAF10100216B01EB1B
:103ED000800828F0070808F0070008B9012000E072
:103EE000002028B940F25D321FA129A0FDF7CCFDCA
:103EF0007FB1002507E0795D04F134004155785D1C
:103F000000B902E06D1C102DF5D300BF0021432045
:103F10000155202E01D2012000E0002028B940F2F6
:103F2000923211A11AA0FDF7AFFD202E00D31F265B
:103F3000E6626664201D02F012F804F1180002F037
:103F40000EF82461C6F12000A06164624946404633
:103F5000039A00F075FC2060BBF1000F01D0CBF894
:103F60000040BDE8FF9F00002E2E5C54686972641B
:103F70005F50617274795C4672656552544F535C50
:103F8000736F757263655C7461736B732E6300008D
:103F90004572726F723A25732C2025640D0A000059
:103FA00010B5002407E004EB84010F4A02EB810006
:103FB00001F0C8FF641C202CF5D30C4801F0C2FFAF
:103FC0000B4801F0BFFF0B4801F0BCFF0A4801F0AD
:103FD000B9FF0A4801F0B6FF0448094908600448DF
:103FE0000849086010BD0000549D0020D49F0020A7
:103FF000E89F0020FC9F002010A0002024A00020AB
:10400000740600207806002010B50146164800E02E
:10401000006803688B42FBD30246436813448B421B
:1040200004D143684C682344436001460A464B6808
:1040300013440468A34211D10C4C03682468A342C2
:1040400008D04B680468646823444B6003681B68AD
:104050000B6005E0054B1B680B6001E003680B601B
:10406000884200D0016010BD4806002050060020A4
:104070002DE9F04104460D4616461F464FF0000854
:1040800065602461B5420CD8F01BA169884202D357
:104090004FF0010811E0211D0948006801F062FF9E
:1040A0000BE0BE4204D2BD4202D34FF0010804E04F
:1040B000211D0448006801F055FF4046BDE8F0812D
:1040C000B4060020B006002070B5054601F0D0FF10
:1040D000A86B08B9012400E0002402F013F8204680
:1040E00070BD70B5054601F0C3FFA86BE96B88424F
:1040F00001D1012400E0002402F004F8204670BD44
:10410000F1B50098846C00262CB940F6E33223A167
:104110002CA0FDF7B9FCA06BE16B884201D2012015
:1041200000E0002028B940F6E4321CA125A0FDF7EC
:10413000ABFCA06BE16B88422DD294F94550002274
:1041400069462046FFF7C9FD0646681C60B9606AEB
:1041500008B9012000E00020E0B904F1240004F0D7
:1041600087FBB8B1012615E001F0CEFE0746BD423F
:104170000FD27F2D01D0012000E0002028B940F6A9
:10418000044206A10FA0FDF77FFC681C40B284F832
:10419000450000BF00BF3046F8BD00002E2E5C5425
:1041A000686972645F50617274795C4672656552C9
:1041B000544F535C736F757263655C71756575659B
:1041C0002E6300004572726F723A25732C202564AD
:1041D0000D0A000070B505460E460E480068C0681E
:1041E000C468201D01F07BFE94F8240000F0040058
:1041F00028B132462946204600F000F905E094F83F
:10420000240000F0FE0084F824002046216A88473C
:1042100070BD0000B006002070B586B08AE002983C
:1042200000280CDA03AE2EB940F20B3247A151A0A0
:10423000FDF72AFCD6E90020B168904700BF02983C
:10424000002877DB049C606908B9012000E00020A9
:1042500010B9201D01F043FE01A800F0FBF805464F
:1042600002980A2864D2DFE800F06305072E36536F
:1042700006082F3700BF00BF00BF94F8240040F0AD
:10428000010084F824000398A269811803462A4695
:104290002046FFF7EDFEA8B194F8240000F00400DA
:1042A00038B10398A26981182A46204600F0A6F882
:1042B00005E094F8240000F0FE0084F82400204675
:1042C000216A884735E000BF94F8240000F0FE0022
:1042D00084F824002DE000BF94F8240040F0010091
:1042E00084F824000398A061A06908B1012000E0CF
:1042F000002028B940F25E3214A11EA0FDF7C4FBD5
:10430000A06941192B462A462046FFF7B1FE10E06E
:1043100094F8240000F0020018B9204601F030FFA4
:1043200005E094F8240000F0FE0084F8240000E08A
:1043300000BF00BF002202A91248006803F0F6FA8D
:1043400000287FF46CAF06B070BD00002E2E5C54C8
:10435000686972645F50617274795C467265655217
:10436000544F535C736F757263655C74696D6572ED
:10437000732E63004572726F723A25732C20256488
:104380000D0A0000B8060020F8B505460C4602F0FC
:10439000A5FA684600F05EF80646009820BB44B9CE
:1043A000B54206D804F00CFB31462846FFF712FF51
:1043B0001CE03CB10E480068006808B9012000E02C
:1043C00000200446A91B22460A48006801F0E0FFCD
:1043D00004F0F6FA50B94FF0805007490860BFF377
:1043E0004F8FBFF36F8F01E004F0EAFAF8BD0000D1
:1043F000B4060020B806002004ED00E070B50446C5
:104400000D46164604E0A06905442046216A884707
:10441000A06941192B4632462046FFF729FE0028A5
:10442000F1D170BD09480068006808B9012000E0BA
:10443000002020B14FF0FF300549086005E0034837
:104440000068C06800680249086070477406002070
:10445000A006002070B5044604F00EF80546074893
:104460000068854204D200F00BF80120206001E0D2
:104470000020206001480560284670BDC00600206D
:1044800070B508E00D480068C06804684FF0FF315F
:104490002046FFF79FFE09480068006808B9012020
:1044A00000E000200028EDD00448056804480068BA
:1044B000024908600248056070BD0000B006002097
:1044C000B40600200B480068401C08B9012000E039
:1044D000002020B9EC2208A115A0FDF7D5FA00BFF5
:1044E000502080F31188BFF34F8FBFF36F8F00BF51
:1044F00000BFFEE7640600202E2E5C5468697264DB
:104500005F50617274795C4672656552544F535CBA
:10451000706F727461626C655C525644535C4152B8
:104520004D5F434D34465C706F72742E6300000023
:104530004572726F723A25732C2025640D0A0000B3
:1045400070B5054600262C462DB940F2FC620EA13E
:1045500017A0FDF799FA1A496069884201D1012034
:1045600000E0002070B11749A06A884201D1012003
:1045700000E0002030B9A06A08B9012000E0002066
:1045800000B10126304670BD2E2E5C5468697264FD
:104590005F50617274795C4672656552544F535C2A
:1045A000736F757263655C7461736B732E63000067
:1045B0004572726F723A25732C2025640D0A000033
:1045C00024A00020FC9F002008B500BF6846FFF72C
:1045D0000DFC044620460099FFF7D6FEFFF71CFEAF
:1045E000F4E770B5044601F043FD94F9455019E035
:1045F000A06C30B12046FFF783FD88B101F03EFF8B
:104600000EE0606A08B9012000E0002038B904F12A
:10461000240004F02DF918B101F030FF00E003E0B0
:10462000681E45B2002DE3DC00BFFF2084F8450082
:1046300001F068FD01F01CFD94F9445010E0206980
:1046400008B9012000E0002048B904F1100004F08E
:104650000FF908B101F012FF681E45B200E001E059
:10466000002DECDC00BFFF2084F8440001F04AFD7F
:1046700070BD014621B1012904D0072906D103E00C
:10468000002005E0022003E0062001E0042000BF36
:1046900000BF704710B502480068804710BD000099
:1046A0005407002010B502480068804710BD000084
:1046B0004C07002010B502480068804710BD00007C
:1046C000500700202DE9F04705464FF0000902F0A1
:1046D00005F93D48006808B9FFF79CFB75B105F086
:1046E0000700C0F11008C8F1FF30A84201D2012034
:1046F00000E0002008B9454400E00025012000EB5F
:10470000E57000284DD0002D4BD030480068854220
:1047100047D82F4E3046046801E02646246860687A
:10472000A84202D220680028F7D1274800688442B6
:1047300037D0306800F10809206830606068401B9D
:10474000102813D9671907F0070008B9012000E005
:10475000002020B9DC221FA12BA0FDF795F960688D
:10476000401B786065603846FFF74EFC174960686B
:104770000968081A1549086008460068264909684A
:10478000884203D21148006823490860606840F0FD
:10479000004060600020206020480068401C1F49E5
:1047A000086004F00DF909F0070008B9012000E0E5
:1047B000002028B94FF48E7206A113A0FDF764F90A
:1047C0004846BDE8F087000050060020540600204F
:1047D000480600202E2E5C54686972645F50617236
:1047E00074795C4672656552544F535C706F727495
:1047F00061626C655C4D656D4D616E675C6865619D
:10480000705F342E630000004572726F723A257338
:104810002C2025640D0A0000580600205C060020AC
:104820000648006830B10549096801F14800896C03
:10483000491C0160014800687047000070060020B4
:10484000001F4FF080730360001F21F0010303601D
:10485000001F054B036014380260001F6FF0020355
:104860000360203870470000C54400082DE9F04F70
:104870008CB0074600200A904AA090E8004CC0681F
:10488000CDE905BECDF810A007900FF21C1ADAE9A9
:10489000000ACDE9020A0FF2101ADAE9000ACDE99E
:1048A000000A44484068C0F381000B900B9820B187
:1048B000012804D002283FD103E03F4A3EE03E4AAF
:1048C0003CE03C48406800F4803CBCF5803F12D19D
:1048D0003848C06A00F08048B8F1000F01D1364B6B
:1048E00000E0364B3348406800F40039B9F5003F2A
:1048F00002D15B0800E0324B2E484068C0F3834190
:104900002C48406800F0006008B141F010012948CF
:10491000406800F0804008B141F020010F2901D229
:10492000891C06E00F2903D33E2901D8491C00E069
:104930003F2103FB01F201E01F4A00BF00BF1D48F9
:104940004068C0F3031504A8465D22FA06F419482E
:104950004068C0F3022502A8465D24FA06F00990DB
:1049600014484068C0F3C2251DF8056024FA06F01B
:10497000089037B1012F06D0022F06D0032F0AD19D
:1049800006E00A9208E00A9406E009980A9003E01B
:1049900008980A9000E000BF00BF0A980CB0BDE87C
:1049A000F08F00000000000000000000010203047E
:1049B000060708090010024000127A00006CDC02B1
:1049C00000093D00064A02EB9011096800F01F0340
:1049D00001229A401143024B03EB90121160704781
:1049E00000100240064A02EB9011096800F01F0314
:1049F00001229A409143024B03EB901211607047E1
:104A000000100240064A02EB9011096800F01F03F3
:104A100001229A401143024B03EB90121160704740
:104A20000010024070B504460020208001F020FBF9
:104A300000250CE0E8B20421FDF7C8FD30B920885C
:104A4000C5F1050201219140084320806D1C042D11
:104A5000F0DB01F057FB70BD70B5044600202080EC
:104A6000002501F005FB00202BE0C0EB001101EB5D
:104A70004101174A02EB8101D1F89C1001B3C0EB50
:104A8000001101EB410102EB8101D1F89C10491C9E
:104A9000B1B1C0EB001101EB410102EB810191F8D2
:104AA000B010491C01F00F010822A2EB85029140D1
:104AB000228811432180691CCDB2032D00DB02E066
:104AC000401C0428D1DB00BF01F01CFB70BD0000BE
:104AD000D0010020F8B505460020009001F0C8FA8A
:104AE0000024002623E0C4EB041000EB40001A4928
:104AF00001EB8000D0F89C00C0B1C4EB041000EBC7
:104B0000400001EB8000D0F89C00401C70B1C4EB69
:104B1000041101EB4101104A02EB8101D1F89C0024
:104B2000FDF700FC3146761C0DF80100641C042CD6
:104B3000D9DB01F0E7FA9DF800008007800E9DF8B0
:104B4000011001F0030140EA81009DF8021001F01C
:104B5000030108432880F8BDD001002070B5044649
:104B60000025002601F084FA084890F8946001F0CE
:104B7000C9FA002006E006F0010109B1691C8DB2F6
:104B80007610401C0328F6DB258070BDD001002084
:104B900070B504460025002601F06AFA084890F82E
:104BA000486101F0AFFA002006E006F0010109B10A
:104BB000691CCDB27610401C0328F6DB258070BD41
:104BC000D001002070B504460025002601F050FAFF
:104BD000084890F8FC6101F095FA002006E006F024
:104BE000010109B1691CCDB27610401C0328F6DB27
:104BF000258070BDD001002070B504460025002638
:104C000001F036FA084890F8B06201F07BFA002013
:104C100006E006F0010109B1691CCDB27610401C16
:104C20000328F6DB258070BDD001002070B5044656
:104C30000025002601F01CFA084890F8646301F092
:104C400061FA002006E006F0010109B1691CCDB24D
:104C50007610401C0328F6DB258070BDD0010020B3
:104C600070B504460025002601F002FA084890F8C5
:104C7000186401F047FA002006E006F0010109B1CE
:104C8000691CCDB27610401C0328F6DB258070BD70
:104C9000D001002070B504460020208001F0E8F922
:104CA00000250DE0E8B20121FDF790FC012806D1B6
:104CB0002088C5F1050201219140084320806D1C28
:104CC000042DEFDB01F01EFA70BD70B50446002024
:104CD000208001F0CDF900250DE0E8B20221FDF7BA
:104CE00075FC012806D12088C5F1050201219140FB
:104CF000084320806D1C042DEFDB01F003FA70BD2A
:104D000002490968C1F3CF310180704720000020BB
:104D100038B50446002000901649086001F0A8F953
:104D200000200BE0C0EB001101EB4101124A02EB45
:104D3000810191F894100DF80010401C0428F1DB5B
:104D400001F0E0F900200DE00A490968C900094AAC
:104D500011601DF8001001F0070112681143054AA7
:104D60001160401C0428EFDB02480088C0F30E00ED
:104D7000208038BD20000020D00100200A490968A9
:104D8000491C19B94FF6FF7101807047064909683F
:104D90004FF6FF7202EA114101804FF0FF31024AE3
:104DA000116000BFF1E70000140000207FB5044649
:104DB00010A103C9CDE90201082202A90F4800F0A1
:104DC0000DF9012500200190401E0D490860642066
:104DD00001ABAA1E00210090084603F0BFFA054669
:104DE000012D02D10649019808600548006820801D
:104DF0007FBD0000010300060002240ACC0600204B
:104E0000140000200A490968491C19B94FF6FF71BE
:104E100001807047064909684FF6FF7202EA1141A6
:104E200001804FF0FF31024A116000BFF1E700003E
:104E3000180000207FB5044610A103C9CDE9020186
:104E4000082202A90F4800F0C9F8012500200190AE
:104E5000401E0D490860642001ABAA1E002100908D
:104E6000084603F07BFA0546012D02D10649019858
:104E700008600548006820807FBD0000010300082D
:104E8000000245C9CC060020180000200A49096824
:104E9000491C19B94FF6FF7101807047064909682E
:104EA0004FF6FF7202EA114101804FF0FF31024AD2
:104EB000116000BFF1E700001C0000207FB5044630
:104EC00010A103C9CDE90201082202A90F4800F090
:104ED00085F8012500200190401E0D4908606420DE
:104EE00001ABAA1E00210090084603F037FA0546E0
:104EF000012D02D10649019808600548006820800C
:104F00007FBD00000103000A0002E409CC06002076
:104F10001C00002070B588B004460E4625461C359E
:104F2000688AFFF74FFD297C6868FDF777FD1C2232
:104F30000A4901A8FBF778F90196297C01AA68685B
:104F4000FDF7A4FD4021286800F02CFF297C68684B
:104F50001C3DFDF74AFD08B070BD00003C8D000807
:104F600010B50446A08CFFF72DFDD4E9010188425D
:104F700002D0E08CFFF726FD208DFFF723FD0322F2
:104F80004821E3686068FEF70BFA032218212369C1
:104F90006068FEF705FAD4E9050148610222102194
:104FA000D4E90530FEF7FCF910BD000010B5094842
:104FB000FFF7D6FF4FF416510648FDF723F90649CF
:104FC0000448FFF7A7FF00F0FDFD4FF4165000F076
:104FD0000DFE10BDCC060020043801402DE9F04143
:104FE00004460E4617460025D4E90501086100BFB6
:104FF0000FE00C49E06900F021FF705DE169486055
:1050000000BF0621E06900F0DCFE0028F9D0681C32
:10501000C5B2BD42EDDBD4E9050148612846BDE8D3
:10502000F08100000603060070B504460D46012D10
:1050300004D1D4E90001FEF7B1F903E0D4E900019D
:10504000FEF7AAF970BD000010B5044614B94FF080
:10505000FF3010BD0E49206888420AD160681028D0
:1050600007D14FF4C060FFF7ADFC01210948FEF7FE
:10507000FDF92089FFF7A6FCD4E90001FEF78CF9C1
:1050800002221021D4E90003FEF78AF90020E0E7AC
:10509000000C01400002300010B50446D4E90001C4
:1050A000FEF7DCF910BD00BE7047000070B5044685
:1050B000012594F8B000FF21FDF788FA054600F0BD
:1050C000D7FFC5B900BF07210C4800F07AFE0028C1
:1050D000F9D094F8B0000A4A115C084800F015FEB7
:1050E00000BF0721054800F06CFE0028F9D0FF2121
:1050F000024800F00AFE01F005F870BD00440040CF
:10510000400600202DE9F0472DED108B07460D4697
:1051100014469A46AC4203DBBDEC108BBDE8F08729
:10512000281B1FFA80F8B8EE008A002649E04046A6
:10513000FBF726FA41EC1A0BB1EE480ADFED230A21
:1051400080EE201A11EE109A4846FBF73FFA41EC28
:105150001F0BB0EE4F0AF0EE6F0AFCF70DFDB0EE3C
:1051600040EAF0EE60EA9FED1A0B53EC102B51EC85
:105170001E0BFBF77DF841EC1D0B53EC1D2B9FED37
:10518000140B51EC100BFBF78CF941EC1C0B9FED51
:10519000100B53EC102BFBF70FF941EC1B0B53ECEE
:1051A0001A2BFBF70CF941EC190BFBF7F6F920442D
:1051B00027F81600761C9FED080A38EE000AB0EEBC
:1051C000408AB6F5965FB2DB00BFA5E7CDCC0C40B8
:1051D000000000000000F03F8988083B70B50446DD
:1051E00004F14C05012184F87C1094F8B0000421EE
:1051F000FDF7ECF9012807D1A9682868FEF7CCF87B
:10520000012184F87D1003E0A9682868FEF7C6F83C
:105210004FF47A71686900F0EBFB686900F05FFC9D
:10522000D4F8A80001F0C2FA70BD10B50446208A77
:10523000FFF7C8FB608A218A884202D0608AFFF7A4
:10524000C1FBE1686068FEF7A7F8A1682068FEF777
:10525000A5F801221021E3686068FEF7A1F8022298
:105260001021A3682068FEF79BF810BD10B5044616
:1052700004B910BD2046FFF7D8FF4EF66021204646
:1052800000F07EF803220021012002F097F8E0628E
:10529000034A1188606900F0ABFB00BFE9E700003A
:1052A0004CA100202DE9F04104460D4616461F464C
:1052B000012F02D14FF496506062A6620020206256
:1052C000207725B9A1682068FEF766F805E0012D72
:1052D00003D1A1682068FEF761F8606900F0FFFB68
:1052E000BDE8F08138B5044600200090206A401CDB
:1052F0002062207F30B1012813D002281AD0032861
:1053000038D12BE0D4E90801884207DA1B4B226A26
:1053100033F81210606900F06BFB01E00120207788
:1053200029E0216AA06A401A616A884201D80220F5
:10533000207720E0A16A206A884202D303202077E8
:105340000BE0216AA06A451A002D05DB0B4A32F8F2
:105350001510606900F04CFB0DE000BF606900F0C3
:10536000B9FB0021606900F045FB6946E06A02F084
:1053700043FA00E000BF00BF38BD00004CA1002090
:105380007FB504460D46208BFFF71CFB606900F0DB
:1053900033FB684600F00BFC7720ADF80000681E78
:1053A00002906946606900F09FFB0121606900F08E
:1053B000EFFB0121606900F0E7FBA07E00220621DF
:1053C000FEF7A8FA606900F085FB7FBD2DE9F0418A
:1053D0002DED028B06460F46B0EE408A06F11C0406
:1053E000B5EEC08AF1EE10FA17DDDFED180A88EE8F
:1053F000200ADFED170A20EE200ABCEEC00A10EEEC
:10540000105AB5F5165F03D34FF49650606215E05D
:105410000320B5FBF0F0606210E0B5EEC08AF1EE5B
:1054200010FA0BD10020206200231A461946E06AC8
:1054300002F0EEF8BDEC028BBDE8F08100232A46B5
:1054400039462046FFF72EFF00BFF3E7BC74933DBB
:105450000000C844002000213F4A126842F4803214
:105460003D4B1A6000BF401C3B4A126802F40031F9
:1054700019B94FF6FF729042F5D1374A126802F41B
:1054800000320AB900BFFEE7334AD26942F08052C7
:10549000314BDA61314A126842F440422F4B1A60B4
:1054A0002D4A52682C4B5A601A4652685A601A4666
:1054B000526842F480625A601A46526822F44032BE
:1054C0005A601A46526842F440325A601A4652688C
:1054D000234B1A40204B5A601A465268214B1A43FC
:1054E0001D4B5A601A46126842F080721A6000BF63
:1054F000194A126802F00072002AF9D0174A12689D
:1055000042F48032154B1A6000BF144A526802F40C
:105510008032002AF9D0114A126842F400320F4B4F
:105520001A6000BF0D4A526802F40032002AF9D016
:10553000094A526822F00302074B5A601A46526821
:1055400042F002025A6000BF034A526802F00802A9
:10555000002AF9D07047000000100240007000409F
:10556000FFFFC3B70000340810B5FFF773FF10BD8D
:105570001CB505460126002001902C462046FFF769
:105580002DFE4FF4487000F029FF2046FDF7AAF8E1
:1055900000F06EFD2046FDF7BDFE00F0B3FDD6E045
:1055A00000F066FD94F8B000012300220721FBF70C
:1055B00005FF00F0A7FD4FF0FF3001AB0246C1042C
:1055C0000090002002F0CAFE064606B9BFE000F0D7
:1055D0004FFD94F8B00001231A460721FBF7EEFEB9
:1055E00000F090FD0198C0F31200802868D010DC14
:1055F000082841D006DC012823D002282CD004281A
:105600007AD134E0102846D0202849D04028F7D15C
:105610004BE0B0F5804F63D009DCB0F5807F2FD030
:10562000B0F5007F69D0B0F5806FE9D185E0B0F5C5
:10563000004F63D0B0F5803F6CD0B0F5802FDFD144
:1056400038E000F015FD0020607000F05BFD0121E6
:10565000201DFEF72BF878E000F00AFD00206070B6
:1056600000F050FD0021201DFEF720F86DE0022122
:10567000201DFEF71BF868E02046FFF7AFFD64E051
:105680002046FDF72FF800F0F3FC2046FDF742FE20
:1056900000F038FD59E01021204600F0EFF854E00A
:1056A0002021204600F0EAF84FE04021204600F09B
:1056B000E5F84AE04FF48021204600F0DFF844E0AE
:1056C00000F0D6FC94F89400072802D100F01AFDEF
:1056D0003BE000F017FD8021204600F0CFF834E0D9
:1056E000D4F89C0038B1D4F89C00401C18B1D4F810
:1056F0009C00FCF741FE28E026E017E0D4F89C006F
:1057000038B1D4F89C00401C18B1D4F89C00FCF7C8
:10571000D1FE1AE0D4F89C0038B1D4F89C00401CAB
:1057200018B1D4F89C00FCF7D6FE0EE000F0A0FC07
:105730000020207000F0E6FC07E000F099FC01205A
:10574000207000F0DFFC00E000BF00BF00BF27E7D3
:1057500008B5054600BF02F08FFE00902C461CE005
:1057600000F086FC2778667800F0CCFC17B920465C
:10577000FDF7C4FE16B92046FEF738F92046FDF7BE
:10578000DDFE2046FDF75CFA2046FFF78FFC00BFE8
:105790006421684602F060FB00BFE1E71CB500F041
:1057A00067FC002413E0E0B2FDF712F80020C4EB20
:1057B000041101EB4101124A02EB81010090012327
:1057C0000222D1F8A800002102F0BEFB641C042CC8
:1057D000E9DB0C480A2100238022CDE900100AA150
:1057E0000C4802F095FA4FF4FA60FDF7C3F800F0A8
:1057F00089FC03E04FF47A7000F0F0FDFAE7000056
:10580000D0010020000000207461736B5F6D6F6435
:10581000627573001958000804E0FBF767F801206F
:1058200000F0DCFDF9E770B504460D4600F020FC01
:1058300094F8B0000521FCF7C9FE064600F062FCB2
:10584000012D01D1002506E0022D01D1012502E044
:10585000032D00D10225012E07D194F894000121D7
:10586000A940084384F8940006E094F894000121CC
:10587000A940884384F8940070BD00002DE9F041F0
:105880002DED028B04460D469FED580AB0EE408A7E
:1058900000F0EEFB94F8B0000421FCF797FE0746F9
:1058A00000F030FC1FB9BDEC028BBDE8F081102D7B
:1058B00005D194ED210AB0EE408A01252FE0202D7C
:1058C00005D194ED220AB0EE408A022527E0402D52
:1058D00005D194ED230AB0EE408A03251FE094F829
:1058E000940000F0040028B994ED230AB0EE408A39
:1058F000032514E094F8940000F0020028B994ED18
:10590000220AB0EE408A022509E094F8940000F0E3
:10591000010020B994ED210AB0EE408A0125B0EED5
:10592000480A002104F13000FFF750FD4FF0FF312D
:10593000A06F02F0BDF8D4F89C0038B1D4F89C00F8
:10594000401C18B1D4F89C00FCF707FD4FF416700A
:1059500000F044FD012104F13000FDF7A7FE40F600
:10596000B83000F03BFD002104F13000FDF79EFE51
:1059700040F6B83000F032FDE66E012D09D1D4EDCD
:10598000210AB0EE600A012104F13000FFF71EFD8C
:1059900008E0D4ED240AB0EE600A012104F13000E1
:1059A000FFF714FD4FF0FF31A06F02F081F8294698
:1059B0002046FFF738FF00F05BFB2046FDF7AAFC0E
:1059C00000F0A0FB012D00D16DE7E06E361A012337
:1059D0003246194604F14C00FFF764FC4FF0FF31EA
:1059E000A06F02F065F800BF5DE700000000000056
:1059F000C16270474162704710B504463349601A6E
:105A00008C4244D00CDCB4F1804F1CD03048204490
:105A100010B3B0F5806F28D0B0F5006F52D12DE0F3
:105A2000B0F5806F3CD0B0F58E3F03D0B0F5923F1B
:105A300048D13EE040F20B30FEF7E4FF40F20B307D
:105A4000FEF7D0FF3FE04FF48060FEF7DBFF4FF43E
:105A50008060FEF7C7FF36E040F20140FEF7D2FF5C
:105A600040F20140FEF7BEFF2DE040F20240FEF79B
:105A7000C9FF40F20240FEF7B5FF24E040F20340C8
:105A8000FEF7C0FF40F20340FEF7ACFF1BE040F220
:105A90000440FEF7B7FF40F20440FEF7A3FF12E018
:105AA00040F20540FEF7AEFF40F20540FEF79AFFD8
:105AB00009E040F20D30FEF7A5FF40F20D30FEF791
:105AC00091FF00E000BF00BF10BD000000100040CB
:105AD00000FCFFBF016821F001010160704701680F
